:020000040000FA
:060000000212460207AFE8
:03002B0002107D43
:03003300020DFDBE
:03004300020F1990
:030053000206E0C2
:03006B00020DE3A0
:100083000207440101FF01010503010F10FEFFBA3E
:100093001ABA1ABA1ABA1A70196A19BA1AB9270007
:1000A3000000007D28000000000C0000000C00018F
:1000B300FFFF0B0C05698700010101009E0500008D
:1000C3000013060A0064006400B80102020008007D
:1000D30000050207051E02051E020A0A03B80B02E9
:1000E300803E0102F1FF011496511800020206300E
:1000F300313233343536373839414243444546008B
:10010300286E756C6C20706F696E74657229003F80
:100113003F3F000000807F0000803FF9021550B789
:1001230043BA510000204100E7DB2E0000A040103D
:10013300000000080000000A00000012129260464E
:10014300121265603DE9687008F618F618F618F69D
:1001530022748067F7120172090909748067F72214
:10016300121265601D1212927005191919801A1264
:100173001119701F12112EC37003E6673319191971
:1001830040071818182208080874FFF618F618F61E
:1001930018F62212112E60171212D1702192F0124A
:1001A30012DB7019501720F014080808090909E731
:1001B300F61819E7F61819E7F61819E7F6221212D6
:1001C300DB60E6E869701F0808E62480F608E43679
:1001D300F618547FB47F0CE654806007F6E418F6F3
:1001E30018F622181822E9C6CC08C6CD08C6CE08D0
:1001F300C6CFC0E0E8C0E0EAC0E0EBC0E009E9F840
:1002030009E7FA09E7FBE6F918E6F8C3EC98ED9974
:10021300EE9AEBC2E7F5F0EFC2E795F0500E600CF3
:10022300EBCFFBEACEFAE9CDF9E8CCF8EAA2E7D2C4
:10023300E7FAEB33FB13F5F0EEA2E7D2E7FEEF3379
:10024300FFC5F013A2E730E601B313C5F0C3C0E066
:10025300C0F07F00C39BFB605B9418600C401AD016
:10026300E023F9D0E0F80203418AF0E9486003D2C1
:10027300F0E4AFF0FAF9F8803BEB30E40D89F0EAF3
:100283006003D2F0E4AFF0F9CAF8EB30E30D88F085
:10029300EF6002D2F0AFF0E4CAC9F8EB5407601480
:1002A300FBC3EA13FAE913F9E813F8EF135002D288
:1002B300E0FFDBEDD0E0C0E030E739C3E49FFFF5BA
:1002C300F0EC98FC42F0ED99FD42F0EE9AFE42F01C
:1002D300D0E0F9D0E0F8E5F0607AE923F9EE20E721
:1002E30042D8028067C3EF33FFEC33FCED33FDEEFE
:1002F30033FE80EAEC28FCED39FDEE3AFED0E02334
:10030300F9D0E0F84002801BC3EE13FEED13FDECC1
:1003130013FCEF135002D2E0FF08B800067F7F748E
:10032300FF802EEF3350178CF020F00260100CBCCE
:10033300000C0DBD00080EBE000408E860DFE933C1
:10034300E813FFEE2313FE4F4D4C8008E95480FF62
:10035300E4FEFDFCEE33EF33F47004FCFD7E80D04D
:10036300E0FBD0E0FAD0E0F8D0E0CFC618CEC61854
:10037300CDC618CCC6F922121265700418181822BB
:10038300121292700D74FFF61819F61819F618194F
:10039300F622E7548066F61212DB700F1212D17048
:1003A300F014F608F608F608F680D11212D1700C94
:1003B300F608F608768008E6447F80EC1211317067
:1003C3000C12111C60BFE65480F6E480BB12111CB2
:1003D300700519191980A5E869700C763F187680A5
:1003E30018F618F6E8F922E6CDC0E018ECC0E0E60E
:1003F30033CD33CDD313F6E719FCE7191933CC33D7
:10040300C3947F400ECD9D502408E65480F6E41833
:10041300F6800FF4043D14501408E6447FF6187672
:1004230080E418F618F6D0E0FCD0E0FD22CCD3131C
:10043300CCFD18E4C6CBC0E018E4C6CAC0E0080887
:10044300ED08C633E613F618E433C675F003C3CAE2
:1004530097CA09CB97CB199C40047D08802EBD0019
:100463000302052316B6FF050606081618C3CA338A
:10047300CACB33CB33CA27CA09CB37CB193CC37D8D
:1004830008803E187D0820E75CC633C6CA33CACB52
:1004930033CB33DDF1D5F0EB30E77BCA97CA09CB19
:1004A300974ACB199C406F4B7025E620E02180666C
:1004B300187D08C3CA97CA09CB97CB199CD3C633F7
:1004C300C6CA33CACB33CB3350C9DDE7D5F0E1D34A
:1004D300E4C636C608C636C608C636C608C636C615
:1004E3001818188031C3CA97CA09CB97CB199CB384
:1004F3004097C633C6CA33CACB33CB33DD34D5F0CA
:100503002EC6A2E0C640C8CA27CA09CB37194A700B
:10051300BECB3CB480B90808E63308E633601F1845
:100523001818D0E0FAD0E0FBD0E0FCD0E0FD2218B0
:100533007D08CA27CA09CB37CB193CD3808013F671
:1005430018E4B67F11F618B6FF0EF618C60470D27B
:100553000808768080CAF618F618F680C5001212CD
:1005630065604F1212926012E7548066F6121119F9
:1005730070111212D1703B090909F4F618F618F636
:1005830018F62212112E70151212DB08080860EA01
:10059300E6447FF618768018E4F618F6221212DB8A
:1005A30060161212D17012E4F608F608F608E65443
:1005B30080F609090918181822EAC0E0EBC0E0EC3C
:1005C300C0E0EDC0E0E687F0A4FBACF008E687F0FE
:1005D300A42CFCE435F0FA1809E687F0A42C4B6050
:1005E300027401CA35F0FCE433FB09E687F0D2F765
:1005F300A42CCB35F0FC1908E687F0A42BCC35F0FE
:10060300FBE433FD0819E687F0D2E7A42C4ACB3587
:10061300F0CD3400FC09E687F0D2E7A42DCC35F009
:10062300FDE433FA0918E687F0D2F7A42CCD35F0B0
:10063300CA3400FC08E687F0D2E7D2F7A42ACC3507
:10064300F07A7E20E70B0ACB33CBCD33CDCC33CC42
:1006530033CB3350147004ED30E00ED2F1E4CD3DD2
:10066300CDCC3CCC3B5005DA05C2F1EB547FC6330D
:1006730008E63392F0FBE73309E733C39A502D2B97
:1006830070190C0D4C4D70151806E608C333700D28
:1006930020F10AA2F013F6E418800B4024E4F630AC
:1006A300F002768018F618F618F68024D33B14501F
:1006B3001074FFA2F013F6187680E418F618F6808B
:1006C3000FA2F013F618E63303F618ECF618EDF65E
:1006D300D0E0FDD0E0FCD0E0FBD0E0FA22C0E07433
:1006E300F2120ACFA2AFE433FED2AFE5A7FFE5A132
:1006F300F5085F541060061221FE75A1EFE5085F4F
:100703005408600812220475A1F7802BEFA2E0C001
:10071300D0E508A2E092F01211A4158182F05017DF
:10072300906198E0F8900AEDE0C398A2D265D033C7
:100733005002E8F075A1FEEEA2E092AF7F01020B3A
:100743002EC0E074F2120ACFA2AFE433FED2AF9010
:1007530061A4E0F8759B00E5915854086008759111
:10076300F712224C802AE59158541060087591EFD6
:10077300122252801BE8A2E0C0D0E591A2E092F0E1
:100783001211A4158182F05007E0C2E0F012239603
:100793009061A3E0F8E5E9585404600E12236C75E8
:1007A300E9FB906193E0A2E640F2808BC0E074F233
:1007B300120ACFA2AFE433FED2AF9061A5E0F8E511
:1007C300BF585404600675BFFB1223AE02073AC339
:1007D300E498F8E499F91208138026C3E49AFAE43A
:1007E3009BFBE920E7E9120813E498F8E499F9225E
:1007F300C3E498F8E499F9120813E498F8E499F932
:10080300C3E49AFAE49BFB22EB20E7CFE920E7E07D
:10081300B90010BB0008E88AF084F8AAF022E4FBD0
:10082300C8FA22EB70227B10C833C8C933C93350CE
:1008330007C39AC3DBF280069A50012ADBEAC83366
:10084300F4C8C933F4C9FA2275F008E4C833C8C937
:1008530033C933C99AC99B5004C92AC93BD5F0ECA3
:10086300FBC833F4C8E4C9FA221208AC20F01430F0
:10087300E72B74FFFCFBFA747F8022E4FCFBFA7421
:1008830080801AB48008BC00F2BB00EF800F50EBED
:10089300F9E4C39AFAE49BFBE49CFCE499C6CC1804
:1008A300C6CB18C6CA18C6F922E4C9C608CAC60800
:1008B300CBC6D3330308CCC63392F0C3947F402E08
:1008C30094184019C9B90704CACBCC225025C309CF
:1008D300CA33CACB33CBCC33CC33D9F422F4600D37
:1008E300C9CCC313CB13CBCA13CAD9F6CC22E4FCAD
:1008F300FBFA2214FCFBFA22080808EAC0E0EBC06A
:10090300E086F0E7A4FA180986F0E7A42AFA1809A2
:1009130086F0E7A42AFA180986F0E7A42AFA1986CA
:10092300F0E7A4FBE5F02AFA190886F0E7A42BFB0D
:10093300E5F03AFA190886F0E7A42BFBE5F03AFA5A
:1009430018180986F0E7A4C5F02BFBE43AFA190856
:10095300E7C5F0C6A426F6E5F03BFBE43AFA1886B1
:10096300F0E7A4F6E5F00826F6E43B08F6E43A08D7
:10097300F6D0E0FBD0E0FA22080808E630E71112CF
:100983001157120993080808C64480C6181818227C
:10099300181818E9799EC608CAC608CBC608CCC67B
:1009A300C370207996CACBCC7019798ECBCC7013D7
:1009B3007986CC700EF9802ACA33CACB33CBCC33B9
:1009C300CC331930E7F2CCCBCA3350147004EA307D
:1009D300E00DE4CA3ACACB3BCBCC3CCC500209C3B2
:1009E300E913C6CC182313C6CB18C6CA18C6F922F6
:1009F300E4CFC0E0E4CEC0E0E4CDC0E0E4CCC0E0AE
:100A030075F020C3E633F608E633F608E633F60856
:100A1300E633F6181818EC33FCED33FDEE33FEEF36
:100A230033FFC3EC9709ED9709EE9709EF9719196F
:100A330019400FFFEC97FC09ED97FD09EE97FE199E
:100A43001906D5F0BEECF709EDF709EEF709EFF754
:100A5300191919D0E0FCD0E0FDD0E0FED0E0FF2270
:100A63002518C582C0E0E51934FFC583C0E0E51849
:100A7300C3958224F810AF088583198582188008EE
:100A8300858319858218D2AFCEF0A3E520F0A37831
:100A930008E608F0A3DEFAEFF0A3E58124FAF8E60E
:100AA30008F0A3E608F0A3E608F0A30808E608F0B8
:100AB300A3E608F0A315811581D0E0FED0E0F81578
:100AC3008115811581E8C0E0EEC0E022C0D0251871
:100AD300C582C0E0E51934FFC583C0E0E518C395BE
:100AE3008224F310AF0885831985821880088583D3
:100AF30019858218D2AFC8F0A3E9F0A3EAF0A3EBFB
:100B0300F0A37908E709F0A3D8FAECF0A3EDF0A37A
:100B1300EEF0A3EFF0A3D0E0F0A3D0E0F0A3D0E099
:100B2300F0A3E520F0A3E5F0F0A32285198385184F
:100B330082E0C0E0A3E0F9A3E0FAA3E0FBA3780816
:100B4300E0F608A3DFFAE0FCA3E0FDA3E0FEA3E0E8
:100B5300FFA3E0C0E0A3E0C0E0A3E0F5D0A3E0F58D
:100B630020A3E0A3F5F010AF0885831985821880D0
:100B730008858319858218D2AFD082D083D0E0F85C
:100B8300D0E0321212C6B90003020BC8E49003018D
:100B930078B4790E8002F0A3D8FCD9FA9010B4AAE5
:100BA30082AB8390008678B979018015E493A3AC76
:100BB30082AD838A828B83F0A3AA82AB838C828DDE
:100BC30083D8E9D9E77582B77583FC7401120FDC0A
:100BD3007582C07583267400120FDC0E0075F01049
:100BE3008E1A8F1B85821F85831E85188285198324
:100BF300E0CEA3E0CF851F82851E83EBC9EAC8ED53
:100C0300CBECCAC3E833C8E933C9EA33CAEB33CB05
:100C1300C3EA9EF51DEB9FF51CB35004AB1CAA1D44
:100C2300EC33CCED33CDD5F0DAAE1AAF1B22121272
:100C330065601C12129260171212DB70071212D138
:100C43007001D322C0D01212D17006D0D0B322C308
:100C53002233D0D0501430E0F6C3E7960809E79664
:100C63000809E7960809E796B32220E0D5E6970836
:100C730009E6970809E6970809E697B322D083D0D7
:100C830082ECC0E0EDC0E0E493A3FCE493A3FDEDAC
:100C93004C600D120DA4EC24FFFCED34FFFD80EF3E
:100CA300E493A3FCE493A3FDED4C600D120E9EECC4
:100CB30024FFFCED34FFFD80EFD0E0FDD0E0FCE449
:100CC30093A3C0E0E493C0E022121265601B1212EA
:100CD3009260161212DB70071212D1600CB322C09D
:100CE300D01212D17005D0D022C32233D0D05013EA
:100CF30030E0EBC3E7960809E7960809E796080989
:100D0300E7962220E0E4E6970809E6970809E697C4
:100D13000809E69722851983851882E0A3FEE0A3DC
:100D2300F5207808E0A3F608DFFAE0A3FFE0A3C00C
:100D3300E0E0A3C0E0E0A3C0E0E0A3C0E0E0A3C024
:100D4300E010AF088582188583198008858218858D
:100D53008319D2AFD083D082020FE2D083D082E94D
:100D6300C0E0E493A3C386F0C5F095F0F908E493DB
:100D7300A386F0C5F095F0700BE493A3C3994005E7
:100D8300E9048002A3E475F002A42582F582E5F06C
:100D93003583F583D0E0F9E493A3C0E0E493C0E0A6
:100DA30022C0E0C3E49396087401939618400FE4BD
:100DB3009366700808740193661870007019A3A3F2
:100DC300C3E49396087401939618A3A3400DD0E04F
:100DD300D0E0D0E0020CBCA3A3A3A3A3A3D0E02242
:100DE300C0E074F2120ACFE589A2E150031220DEBB
:100DF300758900C2C57F01020B2EC0E074F2120A8E
:100E0300CFE58BA2E050031220DE758B00C2E88091
:100E1300E47404800474028000CCC0E0EDC0E0E51B
:100E230018C39CCCAD1950011D10AF068C188D1939
:100E330080068C188D19D2AF120F5ED0E0FDD0E082
:100E4300FC2274028000CCC0E0EDC0E0E518C39C36
:100E5300CCAD1950011D10AF068C188D1980068C6E
:100E6300188D19D2AF120F3CD0E0FDD0E0FC221256
:100E73001265602512129260201212DB70030212B7
:100E8300D1080808E76670101819E766700A181980
:100E9300E76670041819E76622F422C0E0C0F08800
:100EA300F0E4936670080874019366187000A8F064
:100EB300A3A3700BD0F0D0E0D0E0D0E0020CBCA331
:100EC300A3D0F0D0E022D083D082CCC0E0E493A3BF
:100ED3006006120FBD1470FAE493A360061210C4E7
:100EE3001470FAD0E0FCE493A3C0E0E493C0E022E2
:100EF300C008C3E096F50808A3E096420808A3E0FB
:100F030096420808A3E0964208A2D265D033E508CA
:100F13007001D3D00822C0E074F2120ACFA2AFE46A
:100F230033FED2AFC2C0E5D1A2E4500312217AEE60
:100F3300A2E092AF7F01020B2ECAC0E0E493A3C5E7
:100F430082CCC582C583CDC583F0A3C582CCC582BF
:100F5300C583CDC583DAE5D0E0CA22CAC0E0E0A3E9
:100F6300C582CCC582C583CDC583F0A3C582CCC55C
:100F730082C583CDC583DAE6D0E0CA22C008C3E0C8
:100F830096F50808A3E096420808A3E096420808ED
:100F9300A3E09645087001D3D00822700908080819
:100FA300226016181818C6C333C608C633C608C647
:100FB30033C608C633C6D5E0EA22C0E0E493A3D320
:100FC3009C5010E493A3C39C400AD0E0D0E0D0E04F
:100FD300020EE6A3A3A3D0E022C09FF59FE473D043
:100FE3009F22D083D082C09FE493C0E0740193C05A
:100FF300E0740293F59F222518F58210AF08F518C7
:10100300400215198008F51840021519D2AF851949
:1010130083227404800A74038006740280027401BC
:10102300C0E0F404120FFAD0E01212A122C0D025BE
:101033001810AF08F518500205198008F51850026A
:101043000519D2AFD0D022BB0102E722C082C083F0
:1010530089828A83BB0003E08002E493D083D08239
:10106300226016080808C6C313C618C613C618C6D6
:1010730013C618C613C6D5E0EA22C0E0C0D0E8C044
:10108300E0E5A8D2AFC2C7A2E792AFD0E0F8D0D0D4
:10109300D0E032C3E0C696F608A3E0C696F608A3EE
:1010A300E0C696F608A3E0C696F622251810AF0808
:1010B300F518400215198008F51840021519D2AF2A
:1010C30022C0E0E493A36C7009D0E0D0E0D0E0024A
:1010D3000EE6A3A3D0E022C3E09608A3E09608A3FC
:1010E300E09608A3E096A2D265D03322E0667010A2
:1010F30008A3E066700A08A3E066700408A3E0662C
:1011030022E76670100809E766700A0809E7667047
:10111300040809E76622181818E6084608700AE664
:1011230008C3337005E633F4220822191919E709B5
:101133004709700AE709C3337005E733F42209222C
:10114300C3E096F008A3E096F008A3E096F008A3A6
:10115300E096F022181818E4C396F608E496F60809
:10116300E496F608E496F622E026F608A3E036F6BF
:1011730008A3E036F608A3E036F622E026F008A33B
:10118300E036F008A3E036F008A3E036F022E627C5
:10119300F60809E637F60809E637F60809E637F6EA
:1011A30022C0E0E8C0E0E58124FCF8E6A2E7D0E055
:1011B300F8D0E022E657F60809E657F60809E6579D
:1011C300F60809E657F622E056F008A3E056F008C1
:1011D300A3E056F008A3E056F022700422600D1835
:1011E300C6C333C608C633C6D5E0F41822E647F6AD
:1011F3000809E647F60809E647F60809E647F6222E
:10120300E056F608A3E056F608A3E056F608A3E076
:1012130056F622C6F4C608C6F4C608C6F4C608C6FF
:10122300F4C622C3E09608A3E09608A3E09608A3B9
:10123300E09622C3E7960809E7960809E7960809A6
:10124300E7962275D0007581407518017519030062
:10125300020B86E6F008A3E6F008A3E6F008A3E68F
:10126300F022E6084608C3134608336002E633F467
:1012730022600C08C6C313C618C613C6D5E0F422F1
:10128300E0F608A3E0F608A3E0F608A3E0F622E7F9
:10129300094709C3134709336002E733F422CAC07D
:1012A300E0E6F0A308DAFAD0E0FA22EAF0A3EBF0E2
:1012B300A3ECF0A3EDF022E0FAA3E0FBA3E0FCA390
:1012C300E0FD22E5C754F84401F5C7790122E7C3DD
:1012D3003319471947194722E6C3331846184618E6
:1012E30046222518F582E43519F58322C2AF75D657
:1012F3009F02000022120FE5F82E00120FE5B02F17
:1013030000120FE5783000120FE5383100120FE5B7
:101313007C3100120FE5A13100120FE5E431001218
:101323000FE5313200120FE5893300120FE50F3458
:1013330000120FE52D3400120FE5573400120FE5AC
:10134300713400120FE5803400120FE58B34001264
:101353000FE54B3500120FE5A43500120FE5663695
:1013630000120FE56E3600120FE5323700120FE55B
:101373009E3700120FE5C93800120FE5DA38001264
:101383000FE5503900120FE5E23900120FE53A3A42
:1013930000120FE5FA3A00120FE5213B00120FE5A8
:1013A300333B00120FE5863B00120FE5C33B0012EF
:1013B3000FE5D03B00120FE5533D00120FE5A83EA9
:1013C30000120FE5DA3E00120FE56D3F00120FE544
:1013D300A63F00120FE5F23F00120FE50E41001287
:1013E3000FE5574300120FE5624300120FE56D430B
:1013F30000120FE5774300120FE5824300120FE559
:101403009C4300120FE5A64300120FE5B043001200
:101413000FE5BB4300120FE5E34300120FE53E4423
:1014230000120FE5624400120FE5864400120FE537
:10143300E44400120FE5284500120FE5444500126D
:101443000FE5BB4500120FE5F34500120FE53F46DC
:1014530000120FE59C4600120FE5564700120FE5F8
:101463003A4900120FE5934900120FE5C34A0012EF
:101473000FE5E94A00120FE5724C00120FE5EE4F3B
:1014830000120FE5C05100120FE5895300120FE55A
:10149300365400120FE5A15500120FE54056001215
:1014A3000FE5855600120FE5EF5600120FE5FE56C5
:1014B30000120FE5855900120FE5375B00120FE5A7
:1014C300A45B00120FE5835C00120FE59C5D001224
:1014D3000FE5195F00120FE5385F00120FE58D5F0E
:1014E30000120FE5926000120FE5BA6000120FE5DB
:1014F300126100120FE5F16100120FE5356200126F
:101503000FE5806200120FE5EB6200120FE52C6419
:1015130000120FE5906400120FE5DE6500120FE57F
:101523003E6800120FE56F6800120FE5276A00128C
:101533000FE57C6A00120FE5806B00120FE51D6C4E
:1015430000120FE5766C00120FE5296D00120FE50E
:10155300CB6D00120FE56B6E00120FE5106F0012DA
:101563000FE55F8801120FE59E8801120FE5E58AFA
:1015730001120FE52F8B01120FE54A8C01120FE5C3
:10158300BA8C01120FE5EF8C01120FE5638E011285
:101593000FE5E69001120FE50F9201120FE5A592F8
:1015A30001120FE5AD9B01120FE5429C01120FE5FD
:1015B300299F01120FE51CA001120FE57DA0011266
:1015C3000FE599A101120FE57EA301120FE58FA587
:1015D30001120FE5F9A501120FE5CBA601120FE5E4
:1015E30082A701120FE58CA701120FE5BAA701121A
:1015F3000FE577A801120FE54EA901120FE515AA11
:1016030001120FE5C7AA01120FE5F0AA01120FE5B7
:1016130012AB01120FE568AD01120FE540AE0112E6
:101623000FE584AE01120FE5ECAE01120FE5A4AF96
:1016330001120FE5D6AF01120FE51AB001120FE543
:1016430050B001120FE59CB001120FE5F1B0011289
:101653000FE5F6B001120FE549B101120FE56EB1C6
:1016630001120FE57DB201120FE5E1B201120FE5A0
:1016730051B301120FE5DDB301120FE5AAB6011252
:101683000FE58EB701120FE511B901120FE547BB44
:1016930001120FE5F5BB01120FE5A5BC01120FE521
:1016A300E6BE01120FE589BF01120FE5D0BF01129B
:1016B3000FE57CC101120FE590C101120FE59AC13C
:1016C30001120FE5C2C101120FE5CEC101120FE5F0
:1016D300EDC101120FE5D2C301120FE509C40112D6
:1016E3000FE513C401120FE549C401120FE598C5B4
:1016F30001120FE5DCC501120FE584C601120FE5E7
:1017030067C701120FE512C801120FE55EC9011286
:101713000FE55CCA01120FE502CB01120FE592CB74
:1017230001120FE5A9CB01120FE5E0CB01120FE582
:10173300EACB01120FE5F5CB01120FE513CC011231
:101743000FE557CC01120FE5B4CC01120FE5D9CC4C
:1017530001120FE5F3CC01120FE57FCD01120FE566
:101763009CCE01120FE509CF01120FE5F0CF011254
:101773000FE517D001120FE58BD001120FE506D14B
:1017830001120FE50AD201120FE500D301120FE592
:10179300AFD301120FE5C2D401120FE55ED50112DA
:1017A3000FE5EBD501120FE5C9D601120FE501D7FD
:1017B30001120FE559D701120FE522D801120FE5E7
:1017C30043D801120FE5CAD801120FE5EED8011272
:1017D3000FE510D901120FE559D901120FE56FDB9F
:1017E30001120FE556DC01120FE507DD01120FE5CB
:1017F3003DDF01120FE58DDF01120FE5CDDF011291
:101803000FE50FE001120FE56BE001120FE599E020
:1018130001120FE5BDE001120FE510E101120FE522
:101823003EE101120FE577E101120FE5CCE1011270
:101833000FE532E201120FE586E301120FE5A9E598
:1018430001120FE516E601120FE53FE601120FE55F
:10185300CAE601120FE531E701120FE57CE7011239
:101863000FE5A0E701120FE5C4E701120FE51FE83A
:1018730001120FE53AE801120FE5F3E801120FE553
:10188300698C04120FE5A88C04120FE5788002120C
:101893000FE5BE8002120FE59E8102120FE5A082C2
:1018A30002120FE5A38302120FE52F8502120FE543
:1018B3008D8502120FE54A8602120FE56887021230
:1018C3000FE5D98702120FE5158802120FE5638829
:1018D30002120FE56D8802120FE5B18802120FE5BF
:1018E3000D8902120FE5A88902120FE5258A02125B
:1018F3000FE5F48A02120FE58D8B02120FE5AD8B13
:1019030002120FE5E38B02120FE5148C02120FE5AE
:10191300D58C02120FE5E58C02120FE5398D021208
:101923000FE5548D02120FE5668D02120FE56F8DE0
:1019330002120FE5C98D02120FE5258E02120FE583
:10194300718E02120FE58C8E02120FE5BD8E02120C
:101953000FE5DA8E02120FE5E68E02120FE55A90BA
:1019630002120FE5739002120FE5DA9002120FE5EF
:10197300ED9002120FE5FB9002120FE5AF910212F8
:101983000FE5939202120FE5999302120FE5239448
:1019930002120FE52D9402120FE59A9402120FE53D
:1019A300B19402120FE5E39402120FE51C950212A3
:1019B3000FE5469502120FE5A79502120FE5C795AD
:1019C30002120FE5E59502120FE52B9602120FE5C1
:1019D300519702120FE59E9702120FE5CD9702125F
:1019E3000FE5439802120FE56B9802120FE5A498D6
:1019F30002120FE5B29802120FE50A9902120FE5DF
:101A0300599902120FE5989902120FE5C89902122B
:101A13000FE5F49902120FE5FF9902120FE51D9AE3
:101A230002120FE5DF9A02120FE5E99A02120FE59F
:101A3300249B02120FE53A9B02120FE58F9B0212C1
:101A43000FE5A39B02120FE5B19C02120FE5C49CA4
:101A530002120FE5D99C02120FE57B9D02120FE5DE
:101A6300FE9D02120FE5BC9E02120FE5C79E0212F5
:101A73000FE5F39F02120FE50FA002120FE561A01D
:101A830002120FE5A0A002120FE5B5A002120FE5A6
:101A930017A102120FE5A6A102120FE5F1A102128E
:101AA3000FE542A402120FE5C0A402120FE535A50B
:101AB30002120FE557A702120FE56FA702120FE5F7
:101AC30072A702120FE57EA702120FE592A7021278
:101AD3000FE59AA702120FE5CDA702120FE57DA825
:101AE30002120FE5F3A802120FE566A902120FE531
:101AF3001AAA02120FE5CFAA02120FE5EEAA0212EA
:101B03000FE58EAB02120FE59AAB02120FE5C5ABE0
:101B130002120FE5C8AB02120FE532AC02120FE559
:101B23005AAD02120FE532AE02120FE5BDAE02123C
:101B33000FE5D6AF02120FE593B002120FE5CCB05A
:101B430002120FE5FDB002120FE5BBB102120FE561
:101B5300EBB102120FE5C6B202120FE55FB3021238
:101B63000FE5EAB302120FE59BB402120FE51EB5AF
:101B730002120FE550B502120FE591B502120FE5FF
:101B830065F502120FE5CAF502120FE507F6021218
:101B93000FE556F602120FE56CF802120FE54FFA45
:101BA30002120FE5B9FD02120FE5F4FD02120FE573
:101BB30016FE02120FE579FE02120FE5ADFE0212C8
:101BC3000FE5D0FE02120FE5FDFE02120FE559FFED
:101BD30002120FE56B9E03120FE5E99E03120FE558
:101BE3001F9F03120FE58B9F03120FE5FEA0031245
:101BF3000FE51AA103120FE55FA103120FE52AE413
:101C030002120FE546A203120FE573A303120FE5B9
:101C130085A403120FE5E2A403120FE54EA50312F8
:101C23000FE5AFA503120FE5F0A503120FE59DA67F
:101C330003120FE5AFA703120FE5DAA703120FE5AF
:101C430025A803120FE56CA803120FE5FEA80312E3
:101C53000FE5B9A903120FE530AA03120FE53AAA5B
:101C630003120FE586AA03120FE5F4AA03120FE588
:101C730015AB03120FE5C5AB03120FE5482E001297
:101C83000FE562AE03120FE5B5AE03120FE5DEAE4C
:101C930003120FE545AF03120FE5D6AF03120FE5AD
:101CA30018B003120FE562B003120FE5C1B00312BF
:101CB3000FE5EDB003120FE57EB103120FE5BDB1E1
:101CC30003120FE5FCB103120FE531B203120FE566
:101CD30043B203120FE555B203120FE574B20312B8
:101CE3000FE57DB203120FE533B303120FE573B3B0
:101CF30003120FE5FFFE03120FE5E5FA03120FE5EA
:101D03001BFB03120FE564FB03120FE5B4FC031284
:101D13000FE52DE901120FE56CEA01120FE5A8EAC0
:101D230001120FE567EC01120FE590EC01120FE5CC
:101D330023EF01120FE567EF01120FE5F0F0011237
:101D43000FE588F101120FE5F0F101120FE591F2B1
:101D530001120FE5D3F201120FE513F301120FE5A0
:101D63009EF401120FE50EF601120FE533F801128E
:101D73000FE561F801120FE588F801120FE591F8FC
:101D830001120FE518F901120FE536FC01120FE5F8
:101D9300A18D04120FE5B78D04120FE5A5FF021202
:101DA3000FE57FED03120FE592ED03120FE52FEE22
:101DB30003120FE56AEE03120FE585EE03120FE53A
:101DC300AAEE03120FE5EFEE03120FE520EF031265
:101DD3000FE551EF03120FE5D7F003120FE5F3847C
:101DE30004120FE5298504120FE5458504120FE55A
:101DF300878504120FE5978504120FE52C860412DC
:101E03000FE5368604120FE556C403120FE50BC522
:101E130003120FE5EBC503120FE516C803120FE516
:101E2300F8C803120FE510C903120FE5EAC903123C
:101E33000FE5008003120FE5558003120FE53E8185
:101E430003120FE5D78103120FE5218203120FE579
:101E5300838203120FE5978203120FE5798403123D
:101E63000FE5F48403120FE51E8503120FE5F786D1
:101E730003120FE5128703120FE5618703120FE5C3
:101E8300778703120FE5848703120FE5B8870312E0
:101E93000FE5D18703120FE5718803120FE5CB8895
:101EA30003120FE5198903120FE52C8A03120FE5BC
:101EB3009D8C03120FE5D28C03120FE5608D031284
:101EC3000FE5C18D03120FE5C68D03120FE5028ED8
:101ED30003120FE5648E03120FE5348F03120FE52F
:101EE300598F03120FE5638F03120FE5668F0312F9
:101EF3000FE5D58F03120FE5F08F03120FE5039063
:101F030003120FE52F9003120FE56A9003120FE5FA
:101F13006D9003120FE5A99003120FE56FFF0112F5
:101F23000FE587FF01120FE5D8BC03120FE527BDAC
:101F330003120FE5C9BE03120FE587C003120FE5B5
:101F4300CFC003120FE5F1C103120FE522C3031241
:101F53000FE544C303120FE5A0C303120FE522C428
:101F630003120FE551E402120FE57CE402120FE5C0
:101F730069E502120FE5EEE502120FE557E60212DC
:101F83000FE5A3E602120FE522E702120FE5B4E71D
:101F930002120FE540E802120FE582E802120FE594
:101FA300EEEC02120FE56EEE02120FE53EEF0212A7
:101FB3000FE565EF02120FE5C6F102120FE552F2CB
:101FC30002120FE56CF302120FE54BF402120FE558
:101FD300CDF402120FE5E29003120FE59C91031278
:101FE3000FE50E9203120FE5AA9203120FE51A935F
:101FF30003120FE5D39503120FE5AA9603120FE51B
:10200300179703120FE5949803120FE55E990312D5
:102013000FE5A59A03120FE5B89B03120FE5519C38
:1020230003120FE5179D03120FE5F1F003120FE5FD
:1020330045F103120FE59DF103120FE5E8F10312D9
:102043000FE54AF203120FE5E3F203120FE54BF338
:1020530003120FE557F303120FE5008004120FE597
:10206300318004120FE5EB8004120FE55181041255
:102073000FE542FD01120FE5CEFE01120FE52C8D97
:1020830004120FE53D8D04120FE5DA8104120FE50A
:10209300E88104120FE5DF8D04120FE5D38B0412E0
:1020A3000FE5E38B04120FE5FE8B04120FE55F8C43
:1020B30004120FE5918904120FE5168A04120FE545
:1020C3007A8A04120FE57F8804120FE5A1880412AF
:1020D3000FE50B8904120FE5168904120FE55A89DF
:1020E30004120FE5BBCF03120FE5C9CF03120FE5AF
:1020F3000AD003120FE524D003120FE5A1D0031277
:102103000FE59BD103120FE5C0D103120FE5DDD11B
:1021130003120FE5FAD103120FE51FD203120FE5E5
:1021230047D203120FE58FD203120FE50AD303122E
:102133000FE5BAD303120FE575E603120FE583E645
:1021430003120FE5FDE603120FE5E1E703120FE5C6
:102153009AE903120FE57F8D04120FE5DACA031221
:102163000FE546CB03120FE505CC03120FE50FCDA8
:1021730003120FE568CE03120FE5C3CE03120FE57A
:1021830018CF03120FE521CF03120FE533CF03124C
:102193000FE59DCF03120FE5B1CF03120FE536D93B
:1021A30003120FE58BD903120FE587DB03120FE54B
:1021B300B9DB03120FE5DBDB03120FE5F4DB0312DC
:1021C3000FE50DDC03120FE517DD03120FE5B2DD9A
:1021D30003120FE5928304120FE5B68304120FE591
:1021E300CF8304120FE5028404120FE53384041233
:1021F3000FE5618404120FE5C38404120FE5D28452
:1022030004120FE5DC8404120FE5E98404120FE5E0
:1022130092F303120FE5B8F303120FE5F5F303127C
:102223000FE504F403120FE523F403120FE58BF417
:1022330003120FE594F403120FE5F3F403120FE511
:1022430017F503120FE5D6F503120FE5E3F50312B5
:102253000FE5F4F503120FE5BDFF01120FE5DAFFF9
:1022630001120FE529DE03120FE587DF03120FE5E5
:1022730094DF03120FE5A7DF03120FE5C6DF031296
:102283000FE5DCDF03120FE5F0DF03120FE565E076
:1022930003120FE5CAE003120FE57AE103120FE51B
:1022A3004FE203120FE55FE203120FE56EE2031242
:1022B3000FE53A8B04120FE55E8B04120FE5868B54
:1022C30004120FE5AE8B04120FE522F603120FE59D
:1022D30049F603120FE56AF603120FE5CFF6031270
:1022E3000FE588F803120FE5A1F803120FE5ADF827
:1022F30003120FE5C1F803120FE5DFF803120FE530
:10230300E9F803120FE5F3F803120FE506F90312D8
:102313000FE559F903120FE592F903120FE5C1F91D
:1023230003120FE50FFA03120FE55EFA03120FE52E
:1023330079FA03120FE583FA03120FE594FA0312F5
:102343000FE5DAFA03120FE5AB7F00120FE59CB33A
:1023530003120FE5C6B303120FE5E2B303120FE551
:10236300F5B303120FE50BB403120FE568B40312C0
:102373000FE59BB403120FE5D7B803120FE5FDB9C0
:1023830003120FE530BA03120FE57CBA03120FE50F
:10239300A8BB03120FE5D0BB03120FE5E5BB031285
:1023A3000FE5F5BB03120FE539BC03120FE59ABC29
:1023B30003120FE5AABC03120FE5398604120FE5D9
:1023C300548604120FE57D8604120FE597860412E6
:1023D3000FE5BC8604120FE5DB8604120FE5F386D6
:1023E30004120FE5218704120FE53B8704120FE562
:1023F300B28C04120FE5FFE903120FE506EA03129C
:102403000FE512EB03120FE542EB03120FE568EB46
:1024130003120FE58BEB03120FE5ADEB03120FE590
:10242300E7EB03120FE54DEC03120FE586EC031205
:102433000FE5D2EC03120FE5FFEC03120FE51FEDDE
:1024430003120FE517FD03120FE52FFD03120FE52E
:102453001DFE03120FE5FCFE03120FE56C87041249
:102463000FE5DE8704120FE51C8804120FE55D8873
:1024730004120FE5A7E203120FE5C6E203120FE50C
:1024830015E303120FE531E303120FE562E30312D1
:102493000FE572E303120FE57FE303120FE58CE30D
:1024A30003120FE578E403120FE5B6E403120FE518
:1024B300C0E403120FE5D0E503120FE5DBE50312D9
:1024C3000FE5EDE503120FE5F6E503120FE500E670
:1024D30003120FE579D403120FE5BED803120FE5FB
:1024E300CCD803120FE5D2FF03120FE5938A04122F
:1024F3000FE5BD8A04120FE5F68C04120FE5578D24
:1025030004120FE5C18D04120FE55C6F00120FE595
:102513007A7400120FE50CE402120FE5D8E20212FE
:102523000FE535E202120FE5E8E002120FE593DE54
:1025330002120FE529DE02120FE5E1DD02120FE5BB
:1025430053DD02120FE546DD02120FE540DA0212F7
:102553000FE5F72D00120FE5D02D00120FE5A2D7DE
:1025630002120FE56BD602120FE58C2D00120FE558
:10257300512D00120FE5BFD502120FE505D402124B
:102583000FE5B5D102120FE53CD102120FE5E3D0FE
:1025930002120FE573D002120FE54AD002120FE5C3
:1025A3002ACE02120FE5F6CD02120FE5C3CD0212B9
:1025B3000FE5A7CD02120FE5C0CC02120FE578CCD0
:1025C30002120FE5C3CA02120FE543CA02120FE556
:1025D30040CA02120FE541C902120FE50FC90212E8
:1025E3000FE54CC802120FE577C602120FE508C6C5
:1025F30002120FE52B2D00120FE5122D00120FE52D
:10260300BE2C00120FE51A2C00120FE5902B0012BE
:102613000FE5DAC502120FE5D7C502120FE5C4C5EF
:1026230002120FE52F2B00120FE56FC502120FE503
:102633005EC502120FE550C402120FE51AC402125E
:102643000FE5DD2A00120FE559AE03120FE5C8C3EB
:1026530002120FE569C302120FE538C302120FE538
:1026630000C002120FE5C0BF02120FE5B4BF021291
:102673000FE514BF02120FE554BE02120FE5D6BBDD
:1026830002120FE567B902120FE525B902120FE531
:10269300F9B702120FE5AEB702120FE5EDB602125B
:1026A3000FE530B602120FE5C6B502120FE500B60C
:1026B30002120FE5CB2A00120FE5EDA10300000083
:1026C30080FBE473000136360101000102010001C1
:1026D300030100010401060605020000070100349E
:1026E3000801000F090401010D0100FF0E0800009D
:1026F30017020000190100FF1A0100011B0100FE6F
:102703001C0100081D0200001F010001200100013F
:10271300210200002301000F240200002601000112
:1027230027010008280200FF2A0100072B010240AD
:102733002C0100002D0100012E0100012F0100FFDB
:1027430030010B1C310800003A0100083B01000F67
:102753002F010000030271023001600211027002B6
:102763000102020202028002100261023A004100E9
:102773006302730272026202430200021302380010
:102783000002000204021202000200020002000220
:1027930004020402370037003C02440200023900FD
:1027A30000020002650200023502810200020502F6
:1027B30082028302000203007100300160001100F5
:1027C30070003102200350048000100061000000FB
:1027D30014006300730072006200430000001300E2
:1027E30006000000000004001200000000000000CA
:1027F300000004000400370037003C0244000000DE
:1028030000000000000065000000350081000000AA
:102813000500000083000000030471040204600447
:10282300110470040204020401040204100461048C
:102833000004140463047304720462044304000474
:102843001304060400040004040412040004000436
:102853000004000451046400000400040004440460
:10286300000400040004000465040004350481042A
:1028730064000504000483040004010371030103DD
:1028830001030103010301032203020301031003F4
:1028930000030003000300030003000300034203DB
:1028A30000032403060300030003040312032503A8
:1028B300230325032303040304030003000300038A
:1028C30044030003000323030003650321003503CE
:1028D30081030003050300030003000301017101E9
:1028E3000101010111010101310101010101800116
:1028F300100161013B001400630173017201620165
:1029030043010001130106013D01350004011201D9
:10291300000100010001000104010401330133013E
:102923003C01440132013600000100016501000150
:102933003500810100010501820183010001360098
:102943000100060000000F0000000000000000006E
:102953000000000003FFFF00000403FFFF0000FF6F
:10296300FF0FF4010005C4040320000100030B0062
:102973000000000000000003010F0000EE1F130021
:10298300B21F0100EE1F02007C1F0300821F040020
:10299300881F05008E1F06009A1FFFFF000001AA73
:1029A3001506D41508CE150BEC1510261502B01517
:1029B30005C21507B6150C8C150D9E15FF000003F7
:1029C300EAF5E5D5D5C5B5A595958585757565658F
:1029D3005555454535352525151505CA19FA19D017
:1029E30019D619F419E819E219001A061A0C1A185B
:1029F3001ADC19C419BE1900160F00000B150B02BF
:102A03000002220F32000006BA1ACC1AD21A941905
:102A1300D81A8E199A19CE18C81804190A19FE184B
:102A2300B6181A1B381B3E1B201B2C1B261B3030D1
:102A330016181920231A1C1E300C0E020B040B0A45
:102A43000708000F00383C3E363B3B352B432C3008
:102A53003017181921301B1D1F30000119161816C5
:102A6300161523030000034948424D181725050294
:102A73000E1BDE1AE41AF01AEA1AEE19121A321BA6
:102A83001E1A241A020402010101010902DA18E0E4
:102A930018D4181019000000000000E618F81800F8
:102AA300BE040A150004007F00E8030C00280000A0
:102AB300000000090308100C0A03080900040001C0
:102AC300FF1E1E0C05040F08C082C0838A828B83FD
:102AD300E0D2E7F0121EE6023B7FC082C08379009A
:102AE300122F97125EE8C082C083900334124C6E9B
:102AF300D083D082C3E09CA3E09D500C1265BCFA46
:102B0300A3E0122B0E600109023B7FFBEA75F00B79
:102B1300A4FAA8F075F00BEBA428FB900336E02A87
:102B2300F8A3E03B8882F583E0540F2274F7120A7E
:102B3300638908122F9712303DACF075F00BE9A4AE
:102B43002CF9900336E028FEA3E039FF74016508F1
:102B530060067402650870208A828B831230291202
:102B63003F5F74026508701B122EE81230707013F9
:102B73008E828F83E4F0800BEA2403FCEB12300B8C
:102B8300123017EEFAEFFB1226B4023EBC74F412B5
:102B93000A63126EE379008E828F83E06076890A7E
:102BA300890B8065E50A75F00BA4FAA8F075F00BA4
:102BB300E50B122B1B7046E50A75F00BA4F8AAF07F
:102BC30075F00BE50B12304F8E828F83E085088200
:102BD300850983123131850882850983A3123F5FFA
:102BE300EE2403FCEF123014123D3D125962AA0881
:102BF300AB091226B47901900334125377E50A2402
:102C030001F50AE50B3400F50B122EF0E50A9AE5FF
:102C13000B9B409002410974F5120A63EAFEEBFF35
:102C2300740B1212E5123D42750A01EC4D602BEC58
:102C3300126EFFED125EE8123F577901122624E56A
:102C4300084509606F850882850983A3126EED79B3
:102C530002AA08AB09122624805AE5084509602B0D
:102C6300125EEC1245B6123D3E12305A700CEEFA6B
:102C7300EFFB12260CE9F50A80CBEE2403FA122FA0
:102C83009270317903EEFAEFFB80CA8E828F83A3B1
:102C9300E064FE7003A3E0F4700BEE24030A0A0A57
:102CA300122F92700CEEFAEFFB12260CE9F50A8054
:102CB30003750A00A90A7F03020D1874F7120A6349
:102CC300900334123ECCEA4B602FEA75F00BA4FA62
:102CD300A8F075F00BEBA428FBEAFEEBFF121D0630
:102CE300900336123ECC9003361251BC6012EEFCB8
:102CF300EFFD7900121C6A8007900336E4F0A3F01D
:102D0300023EBC900334124926C3EE98EF9922C0C9
:102D130082C083EC4D600512246E80097C087D001F
:102D23007900121C6A023B7F74F6120A637900EA87
:102D33004B60187800880812622FEB1265B86004A4
:102D43007901780808E8C3940840EA023F6874F7F9
:102D5300120A6374F31210AEECFEEDFF8518828540
:102D63001983E4F0041212E5EAF0A3EB1256E874B7
:102D7300031212E5AC82AD83EEFAEFFB1225FAEEF5
:102D8300FAEFFB1225F4023EB774F7120A6374F3E9
:102D93001210AEECFEEDFF851882851983E4F0EA8C
:102DA300FCEBFD74031212E512312A74011212E5D1
:102DB300123F538E828F83123F5F74FE68700374D9
:102DC300FF696004790180027900023EB774F7124B
:102DD3000A63EAFEEBFF122E2E7014122E398E8236
:102DE3008F83E0F4F88A828B83E058F01226B4A92B
:102DF30008023EBC74F7120A63EAFEEBFF75080093
:102E03008E828F83E06022122E2E701D122E398A3D
:102E1300828B83E08F838E82F8E058700CE0F88A0F
:102E2300828B83E048F01226B480C4122642E9F56F
:102E3300087401650822126EF8123041122F83FACA
:102E4300A3E039FB2274F4120A638A088B097C001D
:102E53007D00122EE8123017122FA8126EEA7900A5
:102E6300850882850983A3E064FE7003A3E0F46010
:102E7300717E007F008062EEFAEF122B0E6057EE38
:102E8300FAEFFBEA75F00BA4FAA8F075F00BEBA4CC
:102E930028FB900336E02AF50AA3E03BF50B8508EF
:102EA30082850983A3125636850A82850B83A3E0A4
:102EB3006A7003A3E06B701EE50A2403FAE50B12A4
:102EC3002F93700AE50A2403FCE50B123014122F2A
:102ED3009C7901125EFE123887122EF0EE9AEF9B58
:102EE3004095024109EA24030A0A0AEB22900334BB
:102EF300125AD5C32274F3120A638A088B098A8291
:102F03008B83A3126EED122F97126EEA750C0012CB
:102F13002EE8122F9370547E007F008049122F7584
:102F2300FAA3E0398A82F583E0540F6036122F75D5
:102F3300F50AA3E039F50BE50A2403FCE50B12308F
:102F43001E3400FB122468E964017017850A828528
:102F53000B83A3125B96A3123F5F122F9C750C0188
:102F6300125EFE123887122D0640B2A90C7F0502AD
:102F73000D18EEF8EFF9E875F00BA4F8122F832281
:102F8300AAF075F00BE9A42AF9900336E02822EFA2
:102F930012306A22126EFEEB22122FA8125EF9EE95
:102FA300F0A3EFF022E508126EFFE5092274F51293
:102FB3000A63EAFEEBFF8E828F83A3126EED7C0021
:102FC3007D00EE24030A0A0AEF123017EEFAEFFB34
:102FD300122642E9F50A7401650A7029126EF81285
:102FE300303DAAF075F00BE912304F850882F58366
:102FF30012302912305A700DE5082403FCE509123A
:10300300300B123017022CB73400FDEE2403FAEF15
:103013002212301E3400FB1225FA223400FDE5088B
:103023002403FAE50922A312302E2212303222E0C1
:10303300F8A3E0F98E828F83A32212304122340059
:10304300F58312492AE875F00BA4F822122F89F5AB
:1030530008A3E039F50922E8F0A3E9F0E508240321
:10306300FAE50912306A221230706401223400FB3F
:103073001225F4E92274F3120A6374E61210AE12F5
:103083006EE3750C01750800750900750A00750B70
:1030930000851882851983E4F0EE2403FCEF3400E5
:1030A300FD74031212E512312AE964017023740BD3
:1030B3001212E5123F5774011212E512563A7003C9
:1030C300A3E0696051851882851983858208858309
:1030D30009740D1212E5E4123131740E1212E51265
:1030E3003F5F740D1212E5AA82AB83121C7CE96464
:1030F30001700B740D1212E585820A85830B780A21
:1031030012101DAC08AD09EEFAEFFB12260674028D
:10311300121030E9F50CEEFAEFFB122552A90C74EC
:103123001A121030022F701233FD1212F822123EBF
:10313300C712492622C082C0837800790080031217
:103143003228122EF0E89AE99B5029E8FAE9FBEAC3
:1031530075F00BA4FAACF075F00BEBA42CFB900309
:1031630036E02AFCA3E03B8C82F583E0540F70CF5A
:10317300790080027901023B7FC082C083902AA636
:1031830012497CEC75F012A4FCA8F075F012EDA4C2
:1031930028FD79FF7A5C7B0B121C6A023B7F74F774
:1031A300120A63E9FEEAFF7A007B00780079008067
:1031B30028E8FCE9FDEC75F012A4FC85F00875F035
:1031C30012EDA4250812363DC39E400AE0FCEFC36E
:1031D3009C400312375C12322812363140D3023E30
:1031E300BCC082C083780079008003123228123277
:1031F3001C501F123641F470F2E875F012A4F8AABD
:10320300F075F012E9A42AF9745C28FA740B39FBFF
:1032130080047A007B00023B7F902AA61236F2C319
:10322300E89AE99B22E8240108E93400F92274F0C2
:10323300120A6374F31210AE8A0A8B0B8C0C8D0D79
:103243008908EC450D6016AA0CAB0D1213468A0EC5
:103253008B0FAE0EAF0FEE4F60030232EF12131C53
:103263008A0E8B0FA80EA90FE8FEE9FFE849607CE0
:10327300902AB41233516022740365086006740403
:10328300650870167A047903121316902AB4123360
:103293006840077A007B0002334E902AB212335102
:1032A300601B74016508600674026508700F7A027A
:1032B3007901121316902AB212336850D6851882F8
:1032C3008519837401F01212E5125962AC0CAD0D2D
:1032D30074031212E51233F6740B1212E5123D4A0F
:1032E30012433FE412594A12180E8004EE4F604A0B
:1032F300780074FF2508C39404500278048E828FEB
:10330300831259628E828F83A3A3A3A3E508F0E8F7
:103313008E828F83A3A3A3A3A312596A12080B124D
:1033230037098E828F83A3A3A3A3A3A3A3F012378A
:10333300001212BA125EE21212AE12335640059018
:1033430010B8E4F01216E8EEFAEFFB024930125A15
:103353008449227A047900121316902AA612659ED4
:10336300EA98EB992212338175832A7582A6E49336
:10337300C398F8A3E49399F9C3EA98EB9922E493E9
:10338300F8740193F92274F2120A6374F31210AE03
:103393008A088B09ECFEEDFF750A00EEFAEFFB12CB
:1033A30013468A0C8B0DA80CA90DE849603E888250
:1033B3008983E065087004A3E06509602F8882892A
:1033C30083A3A3A3A3E0C394055021125D908518A2
:1033D300828519837401F01212E5125D94EEFCEFFD
:1033E300FD74031212E51233F6750A01A90A740D6E
:1033F30002542E1233FD12130422AA82AB83122528
:10340300FA851882851983AA82AB832274F6120A7D
:103413006312344B600FA3A3A3A3E014C39404501B
:1034230004790180027900023F6874F6120A63127C
:10343300344B600FA3A3A3A3E014C39402500479F5
:103443000180027900023F681213408A828B83E570
:103453008245832274F6120A6312344B600BA3A3D2
:10346300A3A3E07004790180027900023F68C0825F
:10347300C083EAFCEBFD7A007B00023B7CC082C088
:10348300837C007D00023B7C74F4120A6374F312A4
:1034930010AEEAFEEBFF8C0A8D0BC3EC94F8ED94AF
:1034A300FF4007EE4F7003023544750800750900AD
:1034B300802E8518828519837401F01238AF121299
:1034C300E51238BD601374031212E5AC82AD83EECE
:1034D300FAEFFB122468E97049E50824011236DD8E
:1034E300902AA6E4125A8CE50898E509995052E50A
:1034F3000875F012A4F8AAF075F012E509A42AF9E8
:103503001265D160D4EE4F70A974FF650A7004741C
:10351300FF650B60C412389F650A7004A3E0650B56
:1035230070B7E50875F012A4F508A8F075F012E578
:1035330009A428F509745C2508FA740B3509FB8086
:10354300047A007B0002410474F4120A6374F312D8
:1035530010AE7508001213468A0A8B0BAE0AAF0B26
:10356300EE4F602A8518828519837401123EC1F8D3
:10357300A3E0F9740B1212E5123FE21225587C12F4
:103583007D0079FFEEFAEFFB121C6A750801123316
:103593005650099010B87401F01216E8A9080241B8
:1035A3000474F7120A63E9FE74FE6A700374FF6B16
:1035B3007800790070058052123228123631504A51
:1035C300E8FCE9FDEC75F012A4FCAFF075F012ED28
:1035D300A42F12363DF460E0E8FCE9FDEC75F0122F
:1035E300A4FC75F012EDA42FFD745C2CF582740B12
:1035F3003DF583E06A7003A3E06B70BC800912366B
:103603004114C39404401712322812321C5018EE8E
:1036130070EC12364164016005E0640370E912380E
:1036230090FAA3E0FB80047AFE7BFF023EBC902A63
:10363300A6124980C3E89CE99D2212379122E8FA39
:10364300E9FBEA75F012A4FAACF075F012EBA42CC6
:10365300FB74602AF582740B3BF583E02212135846
:10366300023B7FC082C083790180F274F0120A6347
:103673008A0A8B0B7A0479011213168A0C8B0DEAD2
:10368300450D603EEAC333FAEB33FB121D068A088D
:103693008B09AE08AF09EE4F60237AFE7BFF12134E
:1036A3005E74FE6A700374FF6B601B850882850974
:1036B30083123ECCE50824021236DD80E1750C004E
:1036C30080047E007F00850A82850B83E50CF0EE83
:1036D300FAEFFB024935E5082407F508E50934004C
:1036E300F50922902AA6124980C3EA9CEB9D22E4A5
:1036F30093FA740193FB22121C5E740322125EF38D
:10370300E4F090883D22E88E828F83A3A3A3A3A332
:10371300A3A3A312372B740112372BA3F0EE2410AB
:10372300125EF6E4F0A3F02212434BA3A3A322C03C
:1037330082C0837A007B0080041912375C1236E65C
:10374300501012377BC3940550F0E970EC123765C3
:1037530080047A007B00023B7FEA24010AEB3400F9
:10376300FB22EA75F012A4FA75F012EBA428FB749D
:103773005C2AFA740B3BFB22EAFCEBFDEC75F012BE
:10378300A4FCA8F075F012EDA42812379122FD7461
:10379300602CF582740B3DF583E02274F7120A6303
:1037A30074F31210AE7E007F00023843E50875F013
:1037B30017A4F8A9F0126832FAA3E0FBEEF8EFF9C8
:1037C300E875F012A4F8ACF075F012E9A42C1238E5
:1037D3009E6A7003A3E06B603FE50875F017A4F8D9
:1037E300AAF0EA126831F8A3E0F974011212E5E0D5
:1037F300687003A3E0696020E50875F017A4F8EA90
:10380300F974D828FC740C39FD74031212E5AA82EA
:10381300AB83122468E96014E50875F017A4F8A9CE
:10382300F074D628FA740C39FB12181A0508902A7A
:10383300B9E493F8E508C39850030237AF12388709
:10384300902AA6126B785039EEF8EFF9123890F4FB
:103853007003A3E0F460E68518828519837401F090
:10386300EEF8EFF9E875F012A4F875F012E9A42A5E
:10387300F91238AF1212E51238BD60C17508008025
:10388300AD023EB7EE24010EEF3400FF22E875F0DF
:1038930012A4F8AAF075F012E9A42AF91238A322A7
:1038A300745C28F582740B39F583E022745E28F585
:1038B30082740B39124924740B22E8F0A3E9123FF6
:1038C300EA1212FEE922C082C08390034174BCF065
:1038D300A37415F0023B7F74F7120A63EAFEEBFF51
:1038E300900377E06408601BE0640460168E828FA7
:1038F30083E0540364017048123D3D124435E06493
:1039030006703D8E828F83A3A3E064FE7003A3E061
:10391300F4602D8E828F83A3A3123F53900368E03C
:10392300687003A3E069700BEE2415F582EF12654E
:10393300B86008121676E9F508800812167C80F63E
:103943007508C2EEFAEFFB121D0C022DF274F4128D
:103953000A638A088B098A828B83E0F8A3E0FAE87A
:103963002AFAE43400FB121D068A0A8B0BAE0AAF57
:103973000BEE4F6063850882850983E0FC7D007947
:1039830000121C6A8E828F83A3A3126EED1216B8E7
:103993008E828F83A3A3A3A3123ECC8508828509BD
:1039A30083E0F8EE28F8EF3400123F5B8508828548
:1039B3000983A3E0C0E0EE240D125EE5D0E0F0122F
:1039C30016CAEE240E125EE5E9125597E0C0E0EE4A
:1039D3002411125EE5D0E0F0EEFAEFFB0241097428
:1039E300F4120A6374EB1210AE8A088B098C0A8DE9
:1039F3000BE9FE900377E064046005E0640870045B
:103A030079C2802EA37808121256EE90037E123BE1
:103A1300BD12125674051212E5E9F074041212E590
:103A23007401F074071212E5E4F090037774021244
:103A33003B1A741502410674F6120A6374EB1210F2
:103A4300AEEAFEEBFF1251B96003023ADE7A077B5E
:103A530000121D06900339123ECC1251B960788EC4
:103A6300828F831212BA90033A1244381212AE12A2
:103A73006DB1C0E0123AEAD0E0F0EE2405FAEF347B
:103A830000FB8A088B098A82F583E0C0E0123AE5DD
:103A9300D0E0124100E0C0E0123AE5A3D0E0123FCB
:103AA300401212BA8518828519831212AE88828950
:103AB30083E0C0E074051212E5D0E0F0850882854A
:103AC3000983E0C0E074041212E5D0E0F074071239
:103AD30012E5123B198006791080027901741502F0
:103AE3003F65123AEAA322900339E0FAA3E0F58393
:103AF3008A82A3A3A3A322C082C0831251B9600DFB
:103B0300900339125AC3900339E4F0A3F01215E677
:103B13001217BA023B7FE4123FEA12249E22C082AC
:103B2300C083900338E07003121FAC1213A0804CC3
:103B3300C082C083900338E09010B77004E4F08033
:103B43002D7401F0900338E0F460237C41E0C394CA
:103B5300415002E0FCECF8E0C398F0EC75F0E8A407
:103B6300CCA8F075F003A428FD7A801249887AB7AF
:103B73007B107941122486800312134CD083D082A8
:103B8300020FE274F4120A6374EB1210AE8A088B0C
:103B9300098C0A8D0B9003777401123BBD121256E8
:103BA30074051212E5E9F074041212E57403F0745B
:103BB300071212E5123B19023A35123F4B780822DD
:103BC30074F7120A637C011213B2023EBC74F21240
:103BD3000A6374FC1210AEE9851882851983F0EA32
:103BE300FEEBFF8C0A900375124C6E1215DA8A08ED
:103BF3008B09EA4509700579CA023D388A828B83AD
:103C0300A3A3A3A3A3A3A3E064FE7003A3E0F470A0
:103C13000579C3023D389003751256361218208574
:103C23000882850983A3A3A3A3A3A3A3A3A3A3E0B8
:103C330004900388123E9B74021212E57402F0147E
:103C43001212E5AA82AB831217248A0C8B0DAE0CD9
:103C5300AF0DEE4F7003023D2F123D3D1245AA7486
:103C630006F0A3A882A983900362125B00124903A2
:103C7300F0EE2413125EE574011259427440F0A36E
:103C8300E4125590A3A3123D4A123F5FEE24111292
:103C93005EE5E50AF0EEFAEFFB12137CE9FE600342
:103CA300023D319003777409F01236D9AA08FB79E3
:103CB3004B122486850882850983123E8D123F5F4D
:103CC30090036AE0F8851882851983E068600CE048
:103CD30090036A123FE679E11224869010F8123FAE
:103CE300539010FAE0687003A3E069601A90033BF5
:103CF300123F5F9010FA1256361216E29010FA1223
:103D03004C6E7A011249887A007B049003C2E0F971
:103D1300121DC69010FA123D42740278081211DD8A
:103D2300AC08AD09FA7B0412498A80027E10900523
:103D330087E4F0EEF9740402542EEE125EF422E0EE
:103D4300F508A3E0F50922123D4E22123032A322D8
:103D530074F5120A6374E21210AE85188285198312
:103D6300ECF0A3EDF0EAFEEBFF890874291212E5EB
:103D7300E0F509742C1212E5E0F50A900377E0648C
:103D8300046005E06408700579C2023E85742A1256
:103D930012E5E064FE7003A3E0F4700579C3023E0C
:103DA300859003777403123FE67950122486742AB0
:103DB3001212E5AA82AB83794B1224868518828579
:103DC3001983123E94123F5FE50890036AF0742A48
:103DD3001212E5123E8D123F5FE509900362123E17
:103DE3009B74CE55094480C0E074121212E5D0E0F2
:103DF300F07401250A900388F0740F1212E574021F
:103E0300F0742A1212E5123F5374071212E5E8F018
:103E1300A3E9123ED274101212E5123F5F74051229
:103E230012E5E508F0741B1212E5E4F090037D74CB
:103E33000FF07A7D7B03795412248690037C740FF0
:103E4300F07A7C7B03794712248690037CE0C39449
:103E53000F502374051212E5E0C0E074021212E55C
:103E6300D0E0F074041212E57401F0041212E5AA12
:103E730082AB831224AA74051212E5AA82AB8312C1
:103E8300248C741E121030022CB912492690036B35
:103E93002212492690037522F0EEFCEFFD7A897B0E
:103EA3000312246E2274F7120A63EB90037FF0125D
:103EB30015C88005740D1210307F01020D18123ED3
:103EC300C7A3E022123F40A322EAF0A3EBF02212A1
:103ED3003F46F8A3E0F92274F7120A6374F812104C
:103EE300AEEAFEEBFF7900900377E0640870448547
:103EF300188285198374FDF0A374FFF01216B2744F
:103F0300021212E5123ECC74051212E5E4123EC70A
:103F1300E0C0E074041212E5D0E0123F3BC0E0744D
:103F2300061212E5D0E0F074071212E5E4123FE640
:103F33001217067408023EB9123F40E022F08E8247
:103F43008F8322123F4BE022F0851882851983224A
:103F530012492622E0F8A3E0F9125EF3E8F0A3E9A0
:103F6300F0221210307F02020D18C082C08390032A
:103F730049746CF0A37414F09003EF7460F0A374AD
:103F830017F090034D74A2F0A37414F090034F74D0
:103F93006CF0A37414F090035174A8F0A37414F09C
:103FA300023B7F74F4120A6374F91210AE8A088B11
:103FB300098C0A8D0B85188285198378081212568D
:103FC30074041212E5E9F074051212E5E4F07406C4
:103FD3001212E5E4123FE612138E7407024106E85B
:103FE300F0A3E9123FEA22123F4BAA82AB83227469
:103FF300F4120A638A088B098A828B83125F01EEAB
:104003004F70030240FE9003121251BC60158A8266
:104013008B83A3A3E0F9EEFAEFFB9003131244386A
:104023001226C58E828F83A3A3A3A3A3A3A3A3A3B3
:10403300E0640270748E828F83A3A3A3A3A3A3E07F
:10404300540270030240D0850882850983A3A3E04C
:1040530064E960798E828F83A3A3A3A3A3A3A3A3FD
:10406300A3A3E0701490110DE0048E828F83A3A3A9
:10407300A3A3A3A3A3A3A3A3F08E828F83A3A3A32A
:10408300A3A3A3A3A3A3A3E014124100A3A3A37414
:1040930004F090110E12593CE8F0A3E9126A158B53
:1040A3000BEA450B70031263F38E828F83A3A3A3E2
:1040B300A3A3A3A3A3A3E0640260128E828F83A3AE
:1040C300A3A3A3A3A3A3A3A3E06406702E8E828F4E
:1040D30083A3A3A3A3A3A3E0A2E0501F8508828523
:1040E3000983A3A3E0F9EEFAEFFB1225AC8E828FCE
:1040F30083A3A3A3A3A3A3E054FEF0800912434721
:1041030022740D1210307F04020D1874EC120A632E
:1041130074DD1210AEEAFEEBFF8C088D09743712C2
:1041230012E5780C121283750A0074051212E5ACBD
:1041330082AD8312252E74121212E5E070087415F5
:104143001212E5E0602074051212E5E0A2E6501EAB
:104153008E828F83A3A3A3A3A3A3A3A3A3125636E1
:1041630012173CE96008790312245602432D7405A3
:104173001212E5E0540C64047005750B018003759D
:104183000B00E0A2E55035750A01E50BA2E0402CD7
:104193001216B88A108B11A810A911123D3DE068C0
:1041A3007003A3E069601574051212E5126EF41230
:1041B30056321225B8E96004790480AC74051212F2
:1041C300E5E0A2E6502274061212E5E054037018EB
:1041D30074051212E5E0540C640C600CE0540C649A
:1041E300086005751001800375100074051212E54F
:1041F300E05403F8740268700C126EF41256321213
:10420300251C02432D740168703AE510A2E05003A7
:1042130012433574051212E5A882A983740312129E
:10422300E5E8F0A3E912491A851882851983124338
:104233003FE0C0E074021212E5D0E0123FE612261E
:104243009C02432DE8600302432D90035FE0640169
:1042530070108E828F83A3A3A3A3A3A3E070030292
:1042630041BB74221212E5740212491A741A121213
:10427300E5123F5FE510A2E0500874051212E51243
:104283004335E50BA2E0506AEE240FF582EF126589
:10429300B8C0E074171212E5D0E0F0900314125185
:1042A300BC700302432D1216B88A128B13A812A9ED
:1042B30013741A1212E5E0687003A3E069706B7857
:1042C3000C121015780A121021780812101DA9106B
:1042D300740C1212E5AC82AD8374211212E5AA822A
:1042E300AB839003141244351226C57407121030A1
:1042F3008038780C121015780A12102178081210E1
:104303001D900375120E18EE2412F582EF1262E669
:1043130074231212E5AC82AD83740E1212E5AA82E5
:10432300AB831225A07409121030742312103002CB
:1043330069E0126EF4125AD112252822E8F0A3E99B
:104343001243472212434B22F08E828F83A3A3A3EF
:10435300A3A3A32274F7120A63121E9E023EBC7427
:10436300F7120A63121EB0023EBCC082C083121E43
:10437300AA023B7F74F7120A63121EB6023EBC7494
:10438300F7120A6374091212E5E0F50878081210AF
:1043930021121EC27401023EB9C082C083121ECE16
:1043A300023B7FC082C083121ED4023B7F74F7128C
:1043B3000A63121EDA023EBC74F7120A63EAFEEBCA
:1043C300FF890874016508701479001214E4902AB7
:1043D300C4E493FC7900EEFAEFFB12145A023EBCDC
:1043E30074F4120A6374F91210AEE9FE8A088B0999
:1043F3008C0A8D0B74131212E51256369005D312E4
:1044030051BC6027EE851882851983F0740112125E
:10441300E57808121256EAF8EBF974051212E51260
:104423003FE29005D31244351226C5023FDDFB90CF
:10443300034BE0F8A3E0F58388822274F7120A6342
:104443009010BAE0F97E00800B1265A4540D64014C
:104453007001190E1246385003E970ED023EBC7428
:10446300F7120A639010BBE0F97E00800B1265A47B
:10447300548D64817001190E1246385003E970EDB2
:10448300023EBC74F2120A63890BE975F006A42498
:104493000CF508E5F01236E18A0CE508250CFAE57F
:1044A300093400FB121D068A0C8B0DAE0CAF0DEE0A
:1044B3004F6027AC08AD097900121C6A123D3DE537
:1044C3000BF0EE2508F8EF3509F98E828F83A3A34D
:1044D300A3A3A3A3A3A3A3123F5FEEFAEFFB02548C
:1044E3003174F6120A63EAFEEBFF1214369010B928
:1044F300E0F8E9C398400990034512563612143C7C
:10450300EE2402F8EF125C46900347125B0090031F
:1045130047E004F0EEFAEFFB1214428508828509A6
:1045230083E00260FCC082C0837900900345800170
:10453300091256368A828B83E582458370F2023BE9
:104543007F74F7120A63EAFEEBFFEE4F60569003A7
:10455300451251BC604E888289837A007B00EE65E8
:10456300827003EF6583600FAA82AB831245AAE5CD
:10457300824583602F80E79003451245B668700239
:10458300EF698E828F837008123F53900345800337
:104593001269F2123F5FEEFAEFFB12266CEEFAEFAE
:1045A300FB121D0C023EBC1245AE2212492A888220
:1045B300898322124926EE22C082C083900345805C
:1045C30004888289831251BC600B88828983124CD0
:1045D3006EEC4D70EC8A828B83E4F0A3F0E84960C3
:1045E30006888289838003900345123ECC023B7F79
:1045F30074F7120A6390034580048A828B83124600
:10460300334B60257E0080010E12463850ECEE7568
:10461300F006A4FCADF0EA2CFCEB3DFDEC2410F518
:1046230082ED12468870E180047A007B00023EBC72
:10463300125AD5EA22124691EEC3982274F7120A4F
:10464300637D0080010D12468DEDC3985034ED75E6
:10465300F006A4FEA8F0E8FFEA2EFEEB3FFFEE24EF
:1046630010F582EF12468870DCED75F006A4FEE8C3
:10467300FFEA2EFAEB3FFBEA2411F582EB1265B851
:104683004CF0023EBC1265C4692212469122126E9E
:10469300FEEB3400F583E0F82274F6120A63121578
:1046A3005C7A007B008025EAF8EBF9E875F006A454
:1046B300F8ACF075F006E9A42C125AAA126DBFA348
:1046C300E4125BA0F0A3126DC5126F3C902AAE12E8
:1046D300336040D37A007B00801C8A088B09740303
:1046E30078081211DD12555EA374FEF0A30412596B
:1046F30080A3E4126F3C902AB812473B40DC7A0057
:104703007B00801D8A088B09740378081211DD74FD
:10471300FE126230740F126A7774FEF0A304126FF4
:104723003C902ABE12473B40DB902AC2E49390039D
:1047330053F0124745023F68E493F8C3EA98EB94B9
:1047430000227CE87D037A107B009003C2E0F9121B
:104753001DC02274F0120A6374F51210AE8A088B1E
:1047630009890A8C0BE9A2E050147508FC7509FF4E
:10477300A2E15005D2E4024818D2E30248181254C9
:104783001D7003A3E069700579000248E5AC0A795E
:1047930002AA08AB09121538E960EDE50AF50C78B1
:1047A3000C12102179027CFE7DFFAA08AB0912517D
:1047B30098121030E960030248E3E50AC2E5F50AFE
:1047C3009003B5E07051E50AA2E6404B7403121260
:1047D300E5AC82AD83AA08AB09122570E9703212E9
:1047E3004AB98A0C8B0DA80CA90DE8FEE9FFE8492C
:1047F3006025EE24020A0AEF123070601AEE2402DA
:10480300FCEF3400FD74031212E5AA82AB83122479
:104813006EE50AD2E5F50A900348E0F50C900368CB
:10482300E0F50EA3E0F50F780E12101D7D017C005C
:10483300900348E0F9AA0EAB0F1214F074021210A1
:1048430030E9F8900348E004F0E860030248E3E548
:104853000AA2E55004740E80027406C0E0740112CB
:1048630012E5D0E0125F128A0E8B0FAE0EAF0FEE81
:104873004F606912490312491A888289837401F0CF
:104883007478550AA3126F04E50C126F04A3E508AC
:10489300F0E5091248F2E4F0E50AA2E5500F7403CB
:1048A3001212E5AC82AD83E824061248E98E828FAA
:1048B30083A3A374FDF0A374FFF0E50B6015902AA6
:1048C300C5E493F8E50BC3985009EE2413125EE593
:1048D300E50BF0EEFAEFFB12137C800679108002F1
:1048E30079C7740B8049FAE93400FB12246E2288DD
:1048F300828983A3A3A3A31248FE22125C79A32275
:10490300EE2417125EF67401F01216B2EE241A1298
:104913005EF6EAF0A3EB22F0126EF834001249249B
:1049230022F58312492A22E0F8A3E0F922740D123A
:1049330010307F08020D1874F6120A637A007B1098
:1049430012640060089003D47401F0802990067209
:10495300E0640190110B7006E0FC79018004E0FC37
:1049630079037A007B0012145A902AAC12497C7A9C
:10497300007B1012498A023F6812498022E493FCAB
:10498300740193FD227B009003C2E0F9121DBA2249
:1049930074EC120A638A088B098C0C8D0D890E74D2
:1049A300141212E512537774161212E5E0F510A3F0
:1049B300E0F51112173CE960077AFF7BFF024AB664
:1049C30090110AE064026003024AA97900AA08ABC5
:1049D3000912153EA90E1215328A128B13AE12AFAD
:1049E30013EE4F7003024A918E828F83A3A3A3A376
:1049F300A3E064018E828F83A3A370691256368E5F
:104A0300828F83A3A3A3A3A3A3E054186043902A94
:104A1300C3E4938E828F83A3A3A3A3F0EA650C70F0
:104A230003EB650D6014EA650A7003EB650B600A1E
:104A3300EA65107003EB6511701F781012101DAC3E
:104A43000AAD0BAA0CAB0D12183874021210308089
:104A5300089003671263EAA3F074FE6A700374FF9D
:104A63006B601D804EA3A3A3E0640360298E828F35
:104A730083A3A3A3A3A3E0640470057AFE0249BE43
:104A83008E828F83A3A3A3A3A3E064027008900381
:104A9300B4E064027010124AB98B0BEA450B60064E
:104AA300AA08AB09800DAA08AB0990034912443543
:104AB3001226C50269E090037512519E1217FC225B
:104AC30074F7120A63EAFEEBFF12132EE9700AEE83
:104AD300FAEFFB12133AE96006EEFAEFFB80047A71
:104AE300FE7BFF023EBC74F0120A638A0A8B0B8CB6
:104AF3000E8D0F890975080012173CE979006003D0
:104B0300024C60AA0AAB0B12153EA9091215328A90
:104B13000C8B0DAE0CAF0DEE4F60198E828F83A3FD
:104B2300A3A3A3A3E0640270559003B4E0640270EE
:104B330003024C5EAA0AAB0B90034F1244351226B4
:104B4300C51213408A0C8B0DA80CA90DE8497003FC
:104B5300024C5E88828983A3A3A3A3A3E0A2E040BF
:104B630003024C5E750C01A2E150687901AC0AADF9
:104B73000BAA0EAB0F12148AE97064024C5E8E828C
:104B83008F83A3A3A3A3A3E064037005750C028022
:104B9300528E828F83A3A3A3A3A3E06401600302C5
:104BA3004C5E900375124C6E8E828F83124FC38AB4
:104BB3000C8B0DA80CA90DE84960D1902ABCE49395
:104BC300FA88828983E0C39A50C2A3E06003024C4F
:104BD3005E80B988828983A3A3A3A3A3D2E1F0EE65
:104BE3004F603A8E828F83A3A3A3A3A3A3E0541899
:104BF300602B7508018E828F83A3A3120E18750C88
:104C0300FE750DFF780C12101D7900AC0AAD0BAACE
:104C13000EAB0F1215507404121030803E900368CF
:104C2300E0650E7004A3E0650F7014902AC4E4934A
:104C3300FCA909AA0AAB0B12145A750801801CA916
:104C43000CAC0AAD0BAA0EAB0F12148AE9700C75EB
:104C53000801A909AA0AAB0B1214E4A908024935F1
:104C6300E50C2415F582E50D125EF91259562274EE
:104C7300EA120A6374F01210AE8A0C8B0D8C088D45
:104C83000974261212E5E0F514A3E0F51575120672
:104C93009003F51251BC6023900375124C6EAA0861
:104CA300AB091218268A108B11EA4511600D8A820E
:104CB3008B83A3E070057900024FABE50C241DF54F
:104CC3000EE50D3400F50F850E821251A8F51388F9
:104CD300828983A3A3A3E0FA88828983A3A3A3A3DE
:104CE300E0F9EA2400FEE439FFAA08AB091214EA4A
:104CF300850E82850F83124FE6E029F50BE50AA2A4
:104D0300E5500375120E7487550A70177418550A07
:104D13006418600FE50C2417F582E50D1265B8657C
:104D23001260077901122456808C530A78C3EE94DB
:104D3300F8EF94FF501D7900EEFAEFFB124FB560C8
:104D43001288828983A3A3A3A3A3A3E054186003B7
:104D5300024CB9780812101D7D00124FD912103081
:104D6300E9F87403687003024CB9E86003024E2447
:104D73007418550A7003024ED9E50AD2E0F50AA267
:104D8300E45004D2E1F50AA90A12562F124FB56076
:104D93005388828983A3A3A3A3A3A3E054186044E5
:104DA30088828983A3A3A3A3A3E064017036E510DB
:104DB30045116030900375124C6E88828983124FBF
:104DC300C38A0E8B0FA80EA90FE849601788828942
:104DD30083A3E0600F851082851183A312610750BE
:104DE30003024CB9E50AF50E780E121021124FCCCE
:104DF300121030E9702B7C007D00851482851583A9
:104E030074FFF0A3F0850C82850D83A3A3A3A3A352
:104E1300A3A3A3E06003124C63A90B12562F121E27
:104E2300C8851482851583E0F47003A3E0F4603928
:104E33009003B4E064027003024CB9125368E0FAC1
:104E4300A3E01244311226C5EA65087003EB650935
:104E53006003024CB9EEFAEF1244311226C58514F1
:104E630082851583EAF0A3EBF0780812101D7D010B
:104E7300124FD9121030A90AEEFAEFFB12153E8A2F
:104E8300088B09A808A909900368E0687003A3E0E8
:104E9300696003024F9CEEFAEFFB1213408A088B02
:104EA30009A808A909E849606E88828983A3A3A396
:104EB300A3E06401600D88828983A3A3A3A3E064B4
:104EC300027054851882851983AC82AD83EEFAEFA4
:104ED300FB1225708055900361E0600FE50AF50E23
:104EE300780E121021124FCC121030E50AF50E780D
:104EF3000E12102179027CFE7DFFEEFAEFFB1251B8
:104F030098121030E96003024E24851482851583BC
:104F130074FFF0A3024E6B1216B2EAFCEBFD851888
:104F230082851983AA82AB8312246E850C82850D38
:104F330083A3A3A3A3A3A3A3A3E06401700F124CB1
:104F43006374081212E5AA82AB8312246E125172A3
:104F5300125D7E4430F50878081210217401121294
:104F6300E5858208858309780812101D740B1212D7
:104F7300E5858208858309780812101DE513F50875
:104F830078081210217900EEFCEFFD12562F12144F
:104F9300847406121030024CB9125172125EE81278
:104FA3004FE6E50BF01216CA74101210307F0E0292
:104FB3000D181215328A0E8B0FA80EA90FE849227D
:104FC300A3A3125AD5121826227901AC08AD0912EF
:104FD3005ACA12519822AC0BA913125ACA1214F0CE
:104FE300740222125D86A3A3A3A32274F0120A63A0
:104FF30074F01210AE8A0C8B0DECFAEDFB750F08F2
:105003009003F51251BC60141261008A828B83E510
:105013008245836007A3E0700302516D125172341D
:10502300001251A8F50B8882898312517BE0FBECB7
:105033002400FEE43BFF88828983A3A312517BA350
:10504300A3E0FBECF508E43BF50988828983A3A37D
:10505300A3A3A3A3A3E0F50EE50AA2E45003750FEF
:1050630010A2E550067408250FF50F748F550A70CA
:105073000FE50C2417F582E50D1265B8650F60087E
:10508300790112245602516D530A707800E50AA281
:10509300E450221251721265B82408FCA3E03400D4
:1050A300FD74081212E5AA82AB8312246E7808E518
:1050B3000AC2E4F50AE50AA2E55028125172126504
:1050C300B828F8A3E03400F9E82408FCE93400FD2B
:1050D300851882851983AA82AB8312246EE50AC2DE
:1050E300E5F50AAC0EA90BEEFAEFFB1214F6E9F89C
:1050F3007403686075900368E06E7003A3E06F60EB
:105103005EE87054E50AF50F780F121021125189E9
:10511300121030E97054780A12102174011212E54A
:1051230085820C85830D780C12101D740B1212E509
:1051330085820C85830D780C12101DE50BF50A781A
:105143000A121021A90EAC08AD09EEFAEFFB1214F6
:105153008474061210308012740468700D80B7785E
:105163000A1210211251891210307410024932E5CB
:105173000C241DF582E50D22A3A3A3E0FC888289FC
:1051830083A3A3A3A322790112536F125EF91251D1
:105193009E125198221214AE740122E0FCA3E0FD8A
:1051A300AA08AB0922F5831245AEA3E0F50A88826B
:1051B3008983A3A3E022900339125B312274E8129E
:1051C3000A6374F51210AEEAFEEBFF8C088D0989B1
:1051D3001474231212E5E0F50F74241212E5E0F5BE
:1051E30012A3E0F51374261212E5E0F516A3E0F519
:1051F3001774281212E5E0F50EA90F1214FC8A1099
:105203008B1174011212E57408F0E50EA2E4500349
:105213007410F0E50EA2E55004E02408F08518822E
:10522300851983AA82AB831217248A0C8B0DEA4556
:105233000D700302534FEA2417F582EB12536112E8
:1052430016B2E50C241AF582E50D125EE8123ECC87
:1052530074031212E5AC82AD83AA10AB1112257050
:10526300E9601D12535974031212E5A882A983E55C
:105273000C2418F582E50D125EE8E8F0A3E980241A
:10528300E50EA2E4501FE5106E7003E5116F701573
:10529300125359E50C2418F582E50D125EE8E51268
:1052A300F0A3E513F0125368125377850A82F5834E
:1052B3007402F0A3E50E12537FE50FF0EE850A8228
:1052C300850B83A3A3A3F0EF850A82850B83A3A396
:1052D300A3A312537FA3A3A3E508F0E509850A82DC
:1052E300850B83A3A3A3A3A3A3F0AA10AB1112144A
:1052F300EAE92514850A82850B83A3A3A3A3A3A3A9
:10530300A3F0750800E50EA2E45011AC12AD13E54D
:105313000A2408FAE50B1248EB750808E50EA2E526
:105323005014AC16AD17E50A2508F8E50B3400F95F
:10533300E824081248E9850C82850D83A3A3E510B0
:10534300F0A3E511F0AA0CAB0D12137C740B121031
:10535300307F10020D18E50C2416F582E50D125E60
:10536300F97401F02212536F125EF922E50C126EEA
:10537300FFE50D22E0F50AA3E0F50B22F0850A8292
:10538300850B83A3A32274F2120A638A088B09ECA8
:10539300FEEDFF890A790012541D7003A3E06970C2
:1053A3000479018073750B01900368E0650870044C
:1053B300A3E06509601F750B00780B121021A90A81
:1053C300EEFCEFFDAA08AB09121778740112103036
:1053D300E9F50B80417900EEFAEFFB121532EA4B47
:1053E300602B8A828B83A3A3A3A3A3A3E054186097
:1053F3001C7508FE7509FF780812101D8A828B83BD
:10540300A3A3120E18126D1412103080097901EE45
:10541300FAEFFB121412A90B801412153E8A0C8B9F
:105423000DA80CA90D900368E068221210307F06C6
:10543300020D1874F4120A6375084675090E7A1082
:10544300126A1C8B0BEA450B7003124745900353FA
:10545300E014F0700C902AC2E493900353F01215F9
:105463004A7E007F00806C850882850983A3A3A3FD
:10547300A3E06059F46056E5082404F582E50912B7
:1054830063E47049850882850983A3A3A3A3A3E0EA
:10549300640370197902850882850983124C6E852D
:1054A3000882850983A3A312563612148A850882BB
:1054B300850983A3A3A3A3A3E064016010850882E5
:1054C30085098374FEF0A304125590E4F012388723
:1054D3001236D9902AB0126B78408C7E007F008000
:1054E300391216588E088F09740378081211DD7467
:1054F300BE2508FC740F3509FD7A967B14121646F7
:10550300EA4B70DD8E088F09740378081211DD12DF
:10551300555E126DBFE4F0123887902AB8E493F811
:10552300C3EE98EF9400501B8E088F09740378081C
:105533001211DD125566E82407F582E91263E4705F
:10554300D680A17E007F00800A125571600214F09C
:10555300123887126B7540F1024109125566888231
:1055630089832274BE2508F8740F3509F922EEF8F1
:10557300EFF9E875F006A4F8AAF075F006E9A42A95
:10558300F9745E28F582740F39F583E0221255977A
:10559300A3A3A322F0850882850983A3A32274F71A
:1055A300120A6374E11210AEECFEEDFF750800EE13
:1055B3004F60728A828B83E0241C1264151251BCE3
:1055C30060638A828B83125636851882851983AC71
:1055D30082AD83EA241BF582EB1262E6EA241CF512
:1055E30082EB12563212169A740B1212E512563AC5
:1055F3007003A3E069702E74021212E5E064017077
:1056030024741D1212E5124435E064017017741DF1
:105613001212E5124437A3A3E0F88E828F83E06869
:105623007003750801A908741F023EB912536F3441
:1056330000F583125AD52212302EE0682274F41238
:105643000A63E97024790090034D1244351226C58C
:105653008A0A8B0BAE0AAF0B74FE6E700374FF6F76
:10566300701A902ABFE4936013790190034D12449A
:10567300351226C58A0A8B0BAE0AAF0B1216E80247
:1056830039DB74F6120A6374F31210AE1226488AD9
:10569300088B09AE08AF09900368E06E7003A3E0BE
:1056A3006F60E91216BEEA6E7002EB6F60DEEEFA0F
:1056B300EFFB12173CE970D4EE4F60D0851882855A
:1056C3001983E4F0041212E5EEF0A3EF1256E8E9B1
:1056D30070BA74FE6E700374FF6F60B0EEFAEFFB86
:1056E300740D023F65123FEA121C7C22C082C08304
:1056F3001216E8023B7F7F0A020D1874F2120A6346
:10570300EAFEEBFF8C0A8D0B8908740E1212E5E09A
:10571300F50974FC6E700374FF6F70057900025411
:1057230031790012153E8A0C8B0DAE0CAF0D900330
:1057330068E06E7003A3E06F7006E509A2E650DC33
:10574300A909126C02706179007AFE7BFF126C0268
:105753007056741855097003025835780079008023
:1057630003123228902AB012321F4003025835E840
:10577300FAE9FBEA75F007A4FAACF075F007EBA4BD
:105783002CFB744C2AF582740E3BF583E05418709D
:10579300D0E875F007A4F8AAF075F007E9A42AF990
:1057A300744628F8740E39F988828983A3A3A3A3C6
:1057B300A3A3E05418600974185509700302571F16
:1057C30088828983EEF0A3EFF074FE650A70047497
:1057D300FF650B600312595C88828983A3A3A3A38B
:1057E300A3A3E509F0A2E0500D88828983A3A3A3B4
:1057F300A3A3A3D2E2F07401650888828983A3A3DB
:10580300A3A3A370387401125980E0541860289040
:105813002AC3E49388828983A3A3A3A312594A12B8
:1058230018268B0DEA450D600302571F7800790097
:1058330080397902025721900367E080D7E0640141
:10584300700302571F88828983A3A3A3A3A3A3E0A2
:1058530054186007902AC3E4938004900366E0120F
:1058630048F2E508F002571F123228902AB9E49350
:10587300FAC3E89AE99400400302571F7A007B00B9
:10588300804BEAFCEBFDEC75F007A4FCAEF075F081
:1058930007EDA42EFD74482CF582740E3DF583129A
:1058A3005F01E8FCE9FDEC75F017A4FC85F00975D0
:1058B300F017EDA42509FD74D62CF582740C3DF583
:1058C30083E06E7003A3E06F609E12375C902AB092
:1058D3001236E940AD12497CEC6A7002ED6B7088B8
:1058E300E875F017A4F8AAF075F017E9A42AF9747B
:1058F300D628FE740C39FF7C177D007900EEFAEF91
:10590300FB121C6A8E828F8312596290037512599F
:105913003CA3A3A3A3A3A3E8F0A3E91259427401F0
:10592300F0EE240E125EE5740112596A12080BEEB2
:10593300240D125EE5E8025867123D4EA3A322F040
:10594300EE240F125EF622F0125953AA0AAB0B2271
:10595300900375E0FCA3E0FD2288828983A3A3E57D
:105963000AF0A3E50BF022F012596F22902ABCE44F
:10597300932401F8E43400F97A027B00221248FEF2
:10598300A32274ED120A638A088B09890E125AB393
:1059930040057905025A81121F10AA08AB09125B50
:1059A30085902AAE125A84650A7003E9650B700765
:1059B3007AFE7BFF125B85902AAEE4125A8CE50ACD
:1059C30098E50B994003025A7F125A906012E50A38
:1059D30075F006A4F875F006E50B125ADB121D0CE0
:1059E300E50E6018E50A75F006A4F8AAF075F0064E
:1059F300E50B125B07701A7901025A81E50A75F00B
:105A030006A4F8AAF075F006E50B125AE8E4F0A331
:105A1300F0E50A75F006A4F8AAF075F006E50B1296
:105A23005AA8A3125D9488828983A3AA82AB8312A6
:105A33005AF68A828B83E0603F125A90603A8E1046
:105A43008F117512007810121019E50EC333FCE4A0
:105A530033FDE50A75F006A4F50AA8F075F006E52E
:105A63000BA428F50B7462250AF582740F350B120B
:105A730056341236FA121030790080027907026C1C
:105A830018123381E822902AA612659F22E50A752F
:105A9300F006A4F8AAF075F006E50B125AE3F8A392
:105AA300E0F9E84922A42A125C3C88828983A32274
:105AB300ECFEEDFF902ABAE493F8E9C39822F5834C
:105AC300125AD5121D0C22E50C126EFFE50D34009F
:105AD300F583E0FAA3E0FB22125AE3FAA3E0FB22E8
:105AE300125AE8E022A42AF9746228F582740F3965
:105AF300F58322E50EF090110C125B0022E0888200
:105B03008983F022125C60F50CE93400F50DE50E93
:105B1300C333FAE433FB121D06850C82850D83EA39
:105B2300F0A3EBF0850C82850D83125B31221249C1
