:020000040800F2
:10000000A01B0020A1010008A9010008A702000808
:10001000AD010008AF010008B101000800000000B8
:10002000000000000000000000000000B301000814
:10003000B501000800000000F30100086920000875
:10004000BB010008BB010008BB010008BB010008A0
:10005000BB010008BB010008BB010008BB01000890
:10006000BB010008BB010008BB010008BB01000880
:10007000BB010008BB010008BB010008BB01000870
:10008000BB010008BB010008BB010008BB01000860
:10009000BB010008BB010008BB010008BB01000850
:1000A000BB010008BB010008BB010008BB01000840
:1000B000BB010008BB010008BB010008BB01000830
:1000C000BB010008BB010008BB010008BB01000820
:1000D000BB01000841220008BB010008AD22000856
:1000E000BB010008BB010008BB010008BB01000800
:1000F000BB010008BB010008BB010008BB010008F0
:10010000BB010008BB010008BB010008BB010008DF
:10011000BB010008BB010008BB010008E12000088A
:10012000BB010008BB010008BB010008BB010008BF
:10013000BB010008BB010008BB010008BB010008AF
:10014000BB010008BB010008BB010008BB0100089F
:10015000BB010008BB010008BB010008BB0100088F
:10016000BB010008BB010008BB010008BB0100087F
:10017000BB010008BB010008BB010008BB0100086F
:10018000BB010008BB010008DFF810D000F088F9BF
:1001900000480047C7050008AFF30080A01B0020FF
:1001A0000648804706480047FEE7FEE7FEE7FEE711
:1001B000FEE7FEE7FEE7FEE7FEE7FEE77920000840
:1001C00089010008EFF3108072B6704780F3108841
:1001D00070473A4A1368012B04D04FF001031360B3
:1001E000374A1060374A116037484FF0805101603C
:1001F0007047EFF3108272B63048016851B34FF088
:10020000000101602E48016891B1EFF309811EF0F1
:10021000100F08BF21ED108B21E9F00F4FF0000403
:100220001EF0100F08BF012441F8044D0068016062
:1002300024490968096808C9B1E8F00F002B18BF04
:10024000B1EC108B81F309884EF0100E002B18BF13
:100250002EF0100E82F310884EF0040E70471949EC
:100260000860EFF3148222F0040282F31488144928
:100270004FF00000086011494FF00100086013487A
:100280004FF47F01D0F8002041EA020101600E48DE
:100290004FF0805101600E480068006880F30888C4
:1002A00061B662B67047EFF3098000B503F0CCF990
:1002B0005DF804EB4EF0040E70470000DC000020F7
:1002C000D4000020D800002004ED00E020ED00E084
:1002D00008ED00E040EA01039B0703D009E008C9EC
:1002E000121F08C0042AFAD203E011F8013B00F8FB
:1002F000013B521EF9D27047D2B201E000F8012B47
:10030000491EFBD270470022F6E710B513460A4695
:1003100004461946FFF7F0FF204610BD421E12F8B2
:10032000013F002BFBD111F8013B02F8013B002BF0
:10033000F9D1704730B505462A460B4612F8010B35
:1003400013F8014B08B1A042F8D01CB1002802D02C
:100350006D1CF1E7284630BDCAB2401E10F8011FDF
:100360008A4202D00029F9D100207047421C10F8BF
:10037000011B0029FBD1801A704710B5044600E02C
:10038000401C0378002BFBD100E0401C521E04D31C
:1003900011F8013B0370002BF7D1002101702046BA
:1003A00010BD034611F8012B00F8012B002AF9D1EA
:1003B0001846704770B5064602F0E4F80468054632
:1003C0000A220021304600F033F82C6070BD2DE980
:1003D000F05F0546002092469B46884606468146C9
:1003E00040241BE0284641464746224600F079F863
:1003F00053465A46C01A914110D311461846224618
:1004000000F060F82D1A67EB01084F4622460120E4
:10041000002100F057F817EB00094E41201EA4F10F
:100420000104DFDC484631462A464346BDE8F09FDA
:100430002DE9F04791460F4680460446002614F801
:10044000015B2DB100F05EF80068405DC007F6D199
:100450002B2D02D02D2D18D0641E4A463946204639
:1004600000F054F827B13968A14201D1C7F80080E3
:1004700071054FF002040BD54042002803DD02F065
:1004800081F80460A007BDE8F08746F48066E4E7E1
:100490000028F8DA02F076F804606FF00040F2E726
:1004A000064C074D06E0E06840F0010394E80700C1
:1004B00098471034AC42F6D3FFF76AFE284D000887
:1004C000484D0008202A04DB203A00FA02F10020FF
:1004D00070479140C2F1200320FA03F31943904082
:1004E0007047202A04DB203A21FA02F000217047ED
:1004F00021FA02F3D040C2F120029140084319468C
:100500007047000000487047144D00082DE9F05F67
:1005100082460078002715468B460AF10104B94649
:10052000302801D09DB113E014F8010B0127782881
:1005300003D0582801D045B10AE00DB1102D07D1E4
:100540000027102514F8010B02E0082500E00A2519
:100550000026B0460EE005FB080005FB06F101276A
:1005600001EB10461FFA80F8B6F5803F00D3B9467C
:1005700014F8010B294600F018F80028EBDABBF15B
:10058000000F05D00FB1641E00E05446CBF80040C8
:10059000B9F1000F06D001F0F5FF02210160C81E7D
:1005A000BDE8F09F48EA0640FAE73A2800D2303822
:1005B00020F02002412A01D3A2F13700884201D362
:1005C0004FF0FF30704710B5FFF7FCFD04F0D0F995
:1005D000002010BD1CB50121082001F03DFB4FF4A7
:1005E0008070009001208DF8040000208DF8060036
:1005F00001208DF8070000208DF8050069460248AB
:1006000000F0A8F91CBD0000000C024010B58021CC
:100610000348FFF778FE00200249088010BD000063
:10062000C41200204A00002070B50546002400BF17
:1006300000F076F980B90DA10E48FFF77BFE044665
:1006400054B13A212046FFF787FE044614B1641CDA
:10065000204670BD0020FCE7052002F017FB281E95
:10066000A5F101018DB2E3D100BFF2E74950442C5E
:1006700000000000C412002010B5002210212F48F5
:1006800000F0D7F9FA2002F001FB012210212B48DB
:1006900000F0CFF9FA2002F0F9FAFFF7B7FF28A12E
:1006A000294801F00EFF02E0FA2002F0EFFA27A13C
:1006B00027A000F0D1F80028F6D127A1224801F0A8
:1006C00000FF02E0FA2002F0E1FA20A125A000F0EC
:1006D000C3F80028F6D127A11B4801F0F2FE02E082
:1006E000FA2002F0D3FA19A126A000F0B5F80028EC
:1006F000F6D128A1144801F0E4FE02E0FA2002F04D
:10070000C5FA27A128A000F0A7F80028F6D130A14B
:100710000D4801F0D6FE02E0FA2002F0B7FA30A14F
:1007200031A000F099F80028F6D13AA1064801F06E
:10073000C8FEFA2002F0AAFA10BD00000000024034
:10074000312E2041540D0A00001001404F4B000093
:1007500041540D0A00000000322E2043574D4F44F3
:10076000450D0A0041542B43574D4F44453D310D33
:100770000A000000332E2041542B43574448435075
:100780000D0A000041542B4357444843503D312C3F
:10079000310D0A00342E2043574A41500D0A000003
:1007A000474F54204950000041542B43574A415071
:1007B0003D225869616F6D695F30304136222C22CD
:1007C000313233343536373839220D0A0000000013
:1007D000352E2043495053544152540D0A00000015
:1007E000434F4E4E4543540041542B4349505354BC
:1007F0004152543D22544350222C223138332E3260
:1008000033302E34302E3339222C363030320D0A2C
:1008100000000000362E204553503832363620492D
:100820006E6974204F4B0D0A000000001CB51020AB
:10083000009001208DF8040002208DF805000020B2
:100840008DF8060001208DF807006946014800F088
:1008500081F81CBD000002402DE9F04104460D4620
:10086000C8262046FFF782FD87B23A462146114846
:1008700001F04BFE16E000F053F880B929460E480F
:10088000FFF758FD40B10C490CA002F0F3FFFFF751
:10089000BDFE0020BDE8F0810CA002F0EBFF0A20B5
:1008A00002F0F4F9301EA6F10101CEB2E3D101202D
:1008B000F0E7000000480040C41200206573703863
:1008C000323636B7B5BBD83A257300004154CAA7B3
:1008D000B0DC0D0A0000000030B589B004460D46BA
:1008E000FFF794FE2A4608A101A801F037FE0AA1ED
:1008F00001A8FFF7B1FF20B92A462146074801F0B9
:1009000004FE09B030BD000041542B43495053450B
:100910004E443D25640D0A003E00000000480040A2
:100920000A48008808B9012070470848008808492B
:100930000988884203D1002004490880F4E703486D
:100940000088034908800120EEE700004A000020EB
:100950004C000020F0B50A4600210023002400BF0F
:100960003DE0012505FA01F3156805EA03049C4200
:1009700034D105684F000326BE40B54305601579A4
:100980004E00B5400668354305601579012D02D04B
:100990001579022D16D185684F000326BE40B54358
:1009A000856055794E00B540866835438560456859
:1009B00001268E40B5434560456896798E40B6B2B3
:1009C00035434560C5684F000326BE40B543C5604A
:1009D000D5794E00B540C6683543C560491C10291D
:1009E000BFD3F0BDF0B5002300244D07ED0E02FA91
:1009F00005F3CE1000F1200555F826504E07F70EEE
:100A00000F26BE40B543CF1000F1200646F8275010
:100A1000CE1000F1200555F8265045EA0304CE100B
:100A200000F1200545F82640F0BD41837047018361
:100A300070470AB1018300E0418370471CB5012172
:100A4000112001F009F91820009000208DF8040011
:100A500003208DF8050001208DF80700694606483F
:100A6000FFF778FF0120009002208DF8070069460B
:100A70000248FFF76FFF1CBD00100240000002405B
:100A80001CB50121202001F0E7F84FF40070009020
:100A900001208DF8040000208DF8060001208DF85B
:100AA000070000208DF8050069460948FFF752FF4E
:100AB0004FF48060009069460548FFF74BFF4FF404
:100AC0000070034918310880400008801CBD0000F8
:100AD0000014024010B50446207B012802D1206892
:100AE00002F018F9002020606060A060207310BD43
:100AF0000246002301230DE002F07F000870D209B6
:100B00002AB1087840F080000870491C01E01846BE
:100B100070475B1C042BEFDD4FF0FF30F8E770B53A
:100B200004460E460025206898B9012020733046FF
:100B300002F044FA20602068E0B100206060A66006
:100B400003E00020216848556D1CA068A842F8D831
:100B500010E00220207303E00020216848556D1C3E
:100B6000A068A842F8D800206060A068B04201D216
:100B70000020206070BD00002DE9FF5F07460D4694
:100B800090463846FFF7F2FB86B22846FFF7EEFBA9
:100B90001FFA80FA4FF00009B01D02F00FFA044668
:100BA0001CB9012004B0BDE8F09FB11D2046FFF73D
:100BB000AAFB12A0016821608088A08032463946D5
:100BC0002046FFF7DAFB2846FFF7D0FB83460120DB
:100BD000002100915B462A46CDE902080191214699
:100BE0000A2000F05FF910B94FF0000901E04FF062
:100BF0000109204602F08EF84846D3E72463727359
:100C0000702F00002DE9FF4F83B082468B4691463E
:100C1000159C0025002002900F2701904846FFF701
:100C2000A5FB0FFA80F8B9F1000F03D1012007B03E
:100C3000BDE8F08F08F10200384487B2109808B17F
:100C400045F00205129878B145F004051298FFF7B7
:100C50008DFBC0B202901398FFF788FB0146029803
:100C6000001D0844384487B2119820B1012804D0EF
:100C7000022808D104E000BF07E045F00C0504E0BD
:100C800045F0140501E00220D1E700BF149808B137
:100C900045F02405BAF1000F02D0BBF1000F01D1DD
:100CA0000320C4E745F0C0055046FFF75FFB06464A
:100CB0005846FFF75BFB3044001D384487B2394685
:100CC0002046FFF72CFF206808B90420AFE739461B
:100CD0002068FFF718FB10216268501C60602068D4
:100CE0008154D4E90023D118781FFFF701FF00B227
:100CF00001900198002804DA2046FFF7EBFE05205A
:100D000095E7616801980844606000216268501CA2
:100D100060602068815404216268501C6060206813
:100D200081544D216268501C6060206881545121BB
:100D30006268501C60602068815454216268501CB5
:100D40006060206881546268501C60602068815433
:100D500004216268501C6060206881546168481CEE
:100D60006060206845540698010A6268501C606003
:100D7000206881540698C1B26268501C6060206887
:100D80008154C8F307216268501C60602068815458
:100D90006268501C6060206800F80280D4E900128C
:100DA000881842464946FFF7E8FA606840446060A8
:100DB00005F00400B8B30026139808B938A01390C2
:100DC0001298FFF7D3FA86B2310A6268501C60604D
:100DD000206881546268501C606020688654D4E9A1
:100DE0000012881832461299FFF7C7FA606830443B
:100DF00060601398FFF7BAFA86B2310A6268501C35
:100E00006060206881546268501C6060206886546D
:100E1000D4E90012881832461399FFF7AEFA6068D9
:100E20003044606000BF05F08000C8B15046FFF755
:100E30009DFA86B2310A6268501C60602068815455
:100E40006268501C606020688654D4E900128818DB
:100E500032465146FFF791FA60683044606000BF47
:100E600005F04000C8B15846FFF780FA86B2310A53
:100E70006268501C6060206881546268501C606029
:100E800020688654D4E90012881832465946FFF784
:100E900074FA60683044606000BF0020C7E600005C
:100EA000000000002DE9FF4F83B08346904699462D
:100EB000139C002600250020029001900027BBF122
:100EC000000F03D1012007B0BDE8F08F00250AE034
:100ED0000498405D232803D00498405D2B2801D15D
:100EE0000220F0E76D1C0498405D0028F0D147F027
:100EF0003007119808B147F0010705EB0900861C7F
:100F0000109820B1012804D002280AD105E000BFC2
:100F100009E047F00207B61C05E047F00407B61CDD
:100F200001E00320CFE700BF98F80000022822D19B
:100F30004FF0000A00BF50460AF1010A18F80000FD
:100F40007D28F8D1AAF1030A0AF10700029002985D
:100F5000A9EB000AF01CA0EB0A012046FFF7DFFD19
:100F6000206808B90420AEE7F21CA2EB0A01206851
:100F7000FFF7C9F90BE0F11C2046FFF7D0FD206810
:100F800008B904209FE7F11C2068FFF7BCF96168ED
:100F9000481C606020684754D4E90002811830463C
:100FA000FFF7A6FD01900198002804DA2046FFF71C
:100FB00091FD052087E76168019808446060C5F3EA
:100FC00007216268501C6060206881546268501C70
:100FD000606020688554D4E9001288182A46049974
:100FE000FFF7CBF9606828446060109860B14FEA61
:100FF0001B216268501C6060206881546268501C2C
:101000006060206800F802B0B8F1000F19D098F8BD
:10101000000002280BD1D4E9001288184146029A38
:10102000FFF758F9616802980844606009E0D4E964
:10103000001288184A464146FFF74CF96068484458
:10104000606000203FE700002DE9FF4107460D46A4
:1010500090461E460A9C01200021CDE90001EB1CB0
:101060000A460FA1CDE902040A20FFF71BFF88B949
:101070006168481C606020684654C5F307216268B7
:10108000501C6060206881546268501C6060206859
:10109000855403E0012004B0BDE8F0810020FAE7A8
:1010A00024647000F0B504460D4626460123002056
:1010B0001060002114E0775C07F07F07106807FBE1
:1010C00003001060705C00F0800008B9481CF0BD9F
:1010D000DB01B3F5001F02D36FF00100F7E7491CF5
:1010E000A942E8DB4FF0FF30F1E72DE9F8438046F5
:1010F0000C4615461E462F2108F10600FFF72CF975
:1011000007460020009017B90120BDE8F8837F1C36
:101110006A46042108F10100FFF7C4FF252001F011
:101120004DFF2060206808B90220EEE725212068E5
:10113000FFF7E9F8242239462068FFF7CBF8243777
:1011400000982C3830803188481C01F037FF286027
:10115000286820B9206801F0DDFD0320D5E732883A
:10116000511C2868FFF7CFF8328839462868FFF706
:10117000B1F80020C9E701464878022801D00120D3
:101180007047887810B18878012801D1C878F7E7CE
:10119000FF20F5E701464878022801D0012070477A
:1011A000887820B9C8780A2801D10020F7E7012003
:1011B000F5E70000F8B50446FF2720780511012D5A
:1011C00001DB0E2D01DD3846F8BD032D24D10020B2
:1011D00000906A460421601CFFF764FF2044461C0F
:1011E0000098022803D3207800F0010008B1FF2006
:1011F000EAE77078317840EA0120801C0099884243
:1012000001D9FF20E0E706A1B01CFFF793F808B171
:101210000F2700E0032700E02F463846D4E7000000
:1012200024637265710000001CB514A103C9CDE9E7
:101230000001182000F042FE05226946302000F02F
:101240008FF905226946102000F0A2F8002406E07C
:101250001DF80400A52800D003E0601CC4B2052CD2
:10126000F6DB00BF9DF8041006A001F067F9052C1D
:1012700001D001201CBD0020FCE70000A5A5A5A50C
:10128000A5000000436865636B206275663A2025FF
:101290006C580D0A000000001CB50121422000F02E
:1012A000DBFC4FF48040009001208DF8040000200A
:1012B0008DF8060003208DF8050001208DF8070049
:1012C00069461948FFF746FBC020009001208DF8C1
:1012D000040000208DF8060003208DF80500012091
:1012E0008DF8070069461148FFF734FB4FF4807012
:1012F000009000208DF8040001208DF80700694659
:101300000A48FFF727FB4FF480410748FFF78FFBA0
:1013100000F056FD00F08EF800200549086001201D
:101320000449C1F89C021CBD0004024000180240A0
:10133000980243420000434210B500201149086062
:10134000052211492A2000F00BF90121212000F08B
:1013500025F90121222000F021F92821252000F083
:101360001DF92021312000F019F90F21262000F06D
:1013700015F90F21202000F011F901200349C1F8CF
:10138000980210BD980243428B4C00080000434273
:101390002DE9F04107460D46164600200A4908602F
:1013A000384600F06FFD8046002405E0FF2000F085
:1013B00069FD2855601CC4B2B442F7DB0120024924
:1013C00008604046BDE8F0819C02434270B5044687
:1013D000002007490860204600F054FDFF2000F07F
:1013E00051FD054601200349C1F89C02284670BD05
:1013F0009C0243420000434270B50446182000F0AE
:101400005DFD0720FFF7E2FF05462946272000F093
:10141000C5F805F0400050B1202221466120FFF7B9
:10142000B7FFFF21E22000F0B9F8002070BD0120D5
:10143000FCE7000000B585B00021144800F052FD23
:101440000020ADF800004FF48270ADF802000020DB
:10145000ADF80400ADF80600ADF808004FF40070D8
:10146000ADF80A003820ADF80C000020ADF80E00F1
:101470000720ADF810006946044800F04DFD012139
:10148000024800F02FFD05B000BD00000030014013
:1014900010B500201449086005221449302000F0DE
:1014A0005FF8052212492A2000F05AF80121212074
:1014B00000F074F80121222000F070F81A21242095
:1014C00000F06CF82821252000F068F80F21262074
:1014D00000F064F80E21202000F060F8012005499A
:1014E000C1F8980210BD000098024342864C0008E3
:1014F0008B4C00080000434270B50546182000F0F0
:10150000DDFC00201449086020222946A02000F0BC
:1015100027F801201149C1F8980200BF0E48783819
:1015200000680028FAD10720FFF750FF0446214643
:10153000272000F033F804F0100028B1FF21E1204B
:1015400000F02CF8102070BD04F0200008B120201D
:10155000F9E7FF20F7E7000098024342000043420A
:101560002DE9F04107460C46154600200A4908605F
:10157000384600F087FC8046002605E014F8010B91
:1015800000F080FC701CC6B2AE42F7DB01200249BD
:1015900008604046BDE8F0819C02434270B50546B4
:1015A0000C46002007490860284600F06BFC064600
:1015B000204600F067FC01200349C1F89C02304638
:1015C00070BD00009C0243420000434270B5002100
:1015D00000230F22C4781CB3174C246804F4E06481
:1015E000C4F5E064C4F30721C1F10404E3B20A4185
:1015F00044789C40E1B28478144021430C07210ECA
:101600000E4C05786155047804F01F050124AC40A8
:1016100005786D11AD0005F1E025C5F8004109E040
:10162000047804F01F050124AC40054D06787611BE
:1016300045F8264070BD00000CED00E000E400E03D
:1016400080E100E002490143024A11607047000056
:101650000000FA050CED00E030B58BB000200790DB
:10166000089009900A90012530A033A334A236A136
:101670000090414800F025FF07A800210291039146
:10168000CDE9041000912B0228A201912AA12CA0DF
:10169000FFF7B8FA002842D1089A91B20798FFF7ED
:1016A0001BF9FA20FEF7C0FF0446002C33D0204679
:1016B000FFF780FD02282ED12046FFF75CFD0628AB
:1016C00023D2DFE800F003090E13181D2BA12A48CE
:1016D00000F0F7FE00251DE02DA1274800F0F1FEE7
:1016E00018E032A1244800F0ECFE13E038A12248B3
:1016F00000F0E7FE0EE03EA11F4800F0E2FE09E028
:1017000044A11D4800F0DDFE04E04DA11A4800F0A0
:10171000D8FE00BF00BF07A8FFF7DCF903E04FA128
:10172000154800F0CEFE28460BB030BD39343935AF
:1017300031363739340000007A6967626565000028
:1017400034343234383700004F6E654E65745F4470
:1017500065764C696E6B0D0A50524F49443A20250C
:10176000732C09415549463A2025732C09444556A6
:1017700049443A25730D0A00001001405469707302
:101780003A09C1ACBDD3B3C9B9A60D0A0000000027
:101790005741524E3A09C1ACBDD3CAA7B0DCA3BA77
:1017A000D0ADD2E9B4EDCEF30D0A00005741524E50
:1017B0003A09C1ACBDD3CAA7B0DCA3BAB7C7B7A8B2
:1017C000B5C4636C69656E7469640D0A000000003D
:1017D0005741524E3A09C1ACBDD3CAA7B0DCA3BA37
:1017E000B7FECEF1C6F7CAA7B0DC0D0A00000000B4
:1017F0005741524E3A09C1ACBDD3CAA7B0DCA3BA17
:10180000D3C3BBA7C3FBBBF2C3DCC2EBB4EDCEF3C7
:101810000D0A00005741524E3A09C1ACBDD3CAA7C8
:10182000B0DCA3BAB7C7B7A8C1B4BDD328B1C8C884
:10183000E7746F6B656EB7C7B7A8290D0A00000083
:101840004552523A09C1ACBDD3CAA7B0DCA3BACE47
:10185000B4D6AAB4EDCEF30D0A0000005741524EA3
:101860003A094D5154545F5061636B6574436F6E18
:101870006E656374204661696C65640D0A00000042
:1018800010B588B0044620216846FEF73CFD3FA114
:101890002046FEF786FD20216846FEF734FD3C48D1
:1018A0003CA10268684600F059FE69462046FEF7F2
:1018B00035FD20216846FEF726FD354839A14268EE
:1018C000684600F04BFE69462046FEF727FD2021C2
:1018D0006846FEF718FD2E4836A18268684600F07B
:1018E0003DFE69462046FEF719FD20216846FEF7B9
:1018F0000AFD274832A1C268684600F02FFE6946FB
:101900002046FEF70BFD20216846FEF7FCFC204830
:101910002DA10269684600F021FE69462046FEF7C7
:10192000FDFC20216846FEF7EEFC194828A142691B
:10193000684600F013FE69462046FEF7EFFC2021C2
:101940006846FEF7E0FC124825A18269684600F06F
:1019500005FE69462046FEF7E1FC20216846FEF7B9
:10196000D2FC0B4822A1C269684600F0F7FD694627
:101970002046FEF7D3FC214621A000F0DFFD2046E3
:10198000FEF7F4FCC0B208B010BD00002C3B000014
:10199000F000002054656D70657261747572652C7D
:1019A00025643B0048756D69747572652C25643B30
:1019B000000000004C696768742C25643B0000003F
:1019C0004761732C25643B004169722C25643B0000
:1019D0004865617274526174652C25643B00000097
:1019E000537973746F6C69632C25643B00000000AD
:1019F00044696173746F6C69632C25643B0000005B
:101A00000D0A4F6E654E6574B1A8CEC4A3BA257396
:101A10000D0A00002DE9F0418CB0804600200890AE
:101A200009900A900B9007900690059000260027D9
:101A3000002400254046FFF7BDFB0646042E25D0B6
:101A40000F2E2CD105AB07AA06A94046FFF74DFB88
:101A50000746D7B9BDF81400009033A13B48DDE933
:101A6000062300F02EFD08AADDE90601FFF784F841
:101A700058B937A1354800F024FD099A91B2089869
:101A8000FEF72AFF08A8FFF725F80BE04046FFF70E
:101A900081FB18B934A12D4800F013FD02E04FF08E
:101AA000FF3700BF00BFFEF7B1FD781C10B90CB0C6
:101AB000BDE8F0817D210798FEF74EFC04460CB38B
:101AC000781CF8B1641C05E014F8012B28466D1C45
:101AD00002A90A542078302802DB20783928F3DD67
:101AE000002002A9485502A8FEF764FC054626A17D
:101AF0000798FEF71FFC28B1012D04D14FF47A702E
:101B000001F0C4F803E015B9FA2001F0BFF80F2E78
:101B100001D0032E05D1069801F0FCF8079801F0DA
:101B2000F9F800BFC3E70000636D6469643A2025DB
:101B3000732C207265713A2025732C207265715FB9
:101B40006C656E3A2025640D0A000000001001400B
:101B5000546970733A0953656E6420436D6452652D
:101B600073700D0A00000000546970733A094D51FA
:101B70005454205075626C6973682053656E6420FC
:101B80004F4B0D0A00000000424545500000000088
:101B900030B5A5B0002021902290239024900024FD
:101BA000002519A1204800F08CFC802101A8FEF737
:101BB000AAFB01A8FFF764FE0446002C21D021A84F
:101BC000052300222146009018A0FFF73DFAA0B996
:101BD00008E001A8415D229A501C2290219881546E
:101BE000681C05B2A542F4DB229A91B22198FEF757
:101BF00073FE21A8FEF76EFF03E00FA10A4800F074
:101C000060FC25B030BD0000546970733A094F6E16
:101C1000654E65745F53656E64446174612D4D510A
:101C200054540D0A000000000010014039343935C9
:101C300031363739340000005741524E3A09454495
:101C4000505F4E6577427566666572204661696CC5
:101C500065640D0A0000000029B1064A12680243BB
:101C6000044B1A6004E0034A12688243014B1A6075
:101C7000704700003038024029B1064A126802431A
:101C8000044B1A6004E0034A12688243014B1A6055
:101C9000704700004038024029B1064A12680243EA
:101CA000044B1A6004E0034A12688243014B1A6035
:101CB000704700004438024029B1064A12680243C6
:101CC000044B1A6004E0034A12688243014B1A6015
:101CD0007047000024380240F0B5002100220024A3
:101CE000022500260223324F3F6807F00C0121B184
:101CF000042905D0082937D105E02E4F076036E0CA
:101D00002D4F076033E02A4F3F1F3F68C7F38056CF
:101D1000274F3F1F3F6807F03F036EB1264FB7FBC9
:101D2000F3F7DFF88CC0ACF1040CDCF800C0CCF3A6
:101D3000881C07FB0CF40CE01E4FB7FBF3F7DFF831
:101D400070C0ACF1040CDCF800C0CCF3881C07FBBD
:101D50000CF4174F3F1F3F68C7F301477F1C7D00FE
:101D6000B4FBF5F7076002E0124F076000BF00BF49
:101D70000F4F3F6807F0F0010909104F7A5C0768C0
:101D8000D74047600A4F3F6807F4E051890A0B4F7C
:101D90007A5C4768D7408760054F3F6807F4604129
:101DA000490B064F7A5C4768D740C760F0BD00001A
:101DB000083802400024F40000127A0014000020C9
:101DC00000B587B001210846FFF746FF012108034F
:101DD000FFF762FF3820059002208DF818000020E0
:101DE0008DF81A0003208DF8190001208DF81B00D2
:101DF00005A92248FEF7AEFD052203211F48FEF784
:101E0000F1FD052204211D48FEF7ECFD05221146D7
:101E10001A48FEF7E7FD01210803FFF74DFF0021F7
:101E20004FF48050FFF748FF0020ADF800004FF45A
:101E30008270ADF802000020ADF804000220ADF879
:101E400006000120ADF808004002ADF80A00382075
:101E5000ADF80C000020ADF80E000720ADF8100022
:101E60006946074800F058F80121054800F03AF8A3
:101E7000FF2000F007F807B000BD0000000402409A
:101E80000030014010B5044600BF02210A4800F0AE
:101E900035F80028F9D02146074800F03BF800BF8C
:101EA0000121054800F02AF80028F9D0024800F086
:101EB0002EF8C0B210BD00000030014010B504463D
:101EC000074800884FF6C771084005490880084652
:101ED0000088204308800121014800F003F810BD6C
:101EE0000030014021B1028842F04002028004E04B
:101EF00002884FF6BF731A400280704702460020E6
:101F000013890B400BB1012000E00020704701460F
:101F1000888970478181704710B50022028802F4D9
:101F200041520B884C8823438C882343CC8823431D
:101F30000C8923434C8923438C892343CC89234335
:101F40001A430280838B4FF2FF74234083830B8AF2
:101F5000038210BD0CB50020019000903448006849
:101F600040F480303249086000BF3148006800F416
:101F7000003000900198401C0190009818B9019819
:101F8000B0F5A04FF1D12A48006800F4003010B13C
:101F90000120009001E0002000900098012846D127
:101FA00023484030006840F08050214940310860AB
:101FB0002048006840F440401E4908601C48083032
:101FC00000681B49083108600846006840F400407A
:101FD00008600846006840F4A05008601648091FD1
:101FE0000860081F006840F08070091F086000BF8B
:101FF0000F48006800F000700028F9D040F205702A
:102000000E4908600A480830006820F003000849BB
:10201000083108600846006840F00200086000BF10
:1020200003480830006800F00C000828F8D10CBD07
:10203000003802400070004008544007003C024055
:10204000042808D14FF0E021096941F004014FF064
:10205000E022116107E04FF0E021096921F004015D
:102060004FF0E0221161704710B501F09BFB02F0C8
:10207000B5F901F0A7FB10BD10B51548006840F494
:102080007000134908601348006840F001001149CE
:10209000086000200F49083108600E4800680E49AA
:1020A00008400C4908600D48091D0860081F0068B9
:1020B00020F48020091F0860002006490C310860C8
:1020C000FFF748FF4FF0006001498039086010BDFC
:1020D00088ED00E000380240FFFFF6FE10300024DB
:1020E00010B50121094800F04EF868B10848008891
:1020F00040F40040064908800121044800F034F80B
:102100000021024800F033F810BD00000014004028
:10211000460000207FB505460C4601212020FFF730
:10212000ABFD0195ADF800400020ADF80800ADF81A
:10213000020069460B4800F041F8012211460948A7
:1021400000F032F837208DF80C0000208DF80D00DB
:1021500001208DF80E008DF80F0003A8FFF736FA66
:102160007FBD000000140040CA430282704721B1C5
:10217000028842F00102028004E002884FF6FE73FA
:102180001A400280704730B5024600200023002428
:10219000158A05EA0103958905EA010413B10CB11A
:1021A000012000E0002030BD1AB183890B438381F8
:1021B00002E083898B4383817047000000220288FC
:1021C000184B98420ED0184B98420BD0B0F1804F6C
:1021D00008D0164B984205D0154B984202D0154BAB
:1021E000984204D14FF68F731A404B881A43124B12
:1021F000984207D0114B984204D04FF6FF431A4043
:102200000B891A4302804B68C3620B880385054B18
:10221000984202D0044B984201D18B7A0386012365
:102220008382704700000140000401400004004028
:1022300000080040000C0040001000400014004066
:1022400010B540F22551154800F078F818B313483E
:1022500000F02EF9C4B212481249097844541149C9
:102260000978405C0A2811D100210D480D4A1278E6
:1022700081540C480078401E094A11540020094935
:1022800008700948006801F06FFD10BD054800782E
:10229000401C0449087000BFF7E70000001001402F
:1022A00034110020480000203800002010B540F212
:1022B00025510E4800F042F8B0B10D480088802842
:1022C00002D300200A4908800848001D0088C1B2D6
:1022D000074802880088401C054B18800548815437
:1022E0002021024800F008F810BD0000004800401E
:1022F0004A000020C412002001F40072B2F5007FF1
:1023000000D100BFCA430280704721B1828942F4E4
:102310000052828104E082894DF6FF731A40828167
:10232000704702460020B1F5007F00D100BF13883E
:102330000B400BB1012000E00020704770B5024651
:10234000002400230025002040F66A16B14200D187
:1023500000BFC1F3421501F01F03012606FA03F383
:10236000012D02D19689334006E0022D02D1168A52
:10237000334001E0968A33400C12012606FA04F439
:102380001688344013B10CB1012000E0002070BD6C
:10239000F0B50346002400260025002040F66A1709
:1023A000B94200D100BF1846C1F3421401F01F0624
:1023B000012707FA06F5012C01D10C3004E0022CAC
:1023C00001D1103000E014301AB107682F430760C4
:1023D00002E00768AF430760F0BD00002DE9FF474A
:1023E00005460E460024A14600BFA046B08900B1B4
:1023F00000BF2C8A24F44054F08804432C82AC891A
:1024000041F20C608443B0883189084371890843E4
:102410000443AC81AC8A24F44074B0890443AC8298
:102420006846FFF759FC2048854202D01F48854284
:1024300002D1DDF80C9001E0DDF80890A88900F4E5
:10244000004040B109EBC90000EB091031684900B8
:10245000B0FBF1F707E009EBC90000EB09103168A8
:102460008900B0FBF1F76420B7FBF0F0040120090C
:10247000642101FB1078A88900F4004040B13220AB
:1024800000EBC800B0FBF1F000F00700044308E0E7
:10249000322000EB08106421B0FBF1F000F00F00D7
:1024A00004432C81BDE8FF87001001400014014067
:1024B00001468888C0F308007047C1F30802828093
:1024C000704770B506460C46002500BF615D30467A
:1024D00000F00CF86D1C605D0028F7D100BF4021B2
:1024E0003046FFF71EFF0028F9D070BD70B50446D6
:1024F0000D4629462046FFF7E0FF00BF8021204619
:10250000FFF70FFF0028F9D070BD2DE9F041074615
:102510000C46154600260DE014F8011B3846FFF75F
:10252000CCFF00BF40213846FFF7FBFE0028F9D062
:10253000701C86B2AE42EFDBBDE8F0810FB4054BF4
:1025400010B503A9044A029800F060F810BC5DF8C9
:1025500014FB0000F92C0008400000200FB4084BC9
:1025600010B504A902AA039800F050F8044602A985
:10257000002000F025FA204610BC5DF814FB000096
:10258000C129000800487047EC000020014609B945
:1025900000207047C8B220B1C8B20E4A105C401C7F
:1025A000F7E701F47F4028B10A48C1F30722805CB5
:1025B0000930EEE701F47F0028B10648C1F3074275
:1025C000805C1130E5E7034800EB116000781930BA
:1025D000DFE70000644B000802E008C8121F08C1D2
:1025E000002AFAD170477047002001E001C1121F94
:1025F000002AFBD17047000003490868884201D0D7
:10260000012070470020FCE7C00000202DE9FF4FAB
:102610008DB09B460F460446002606E025280BD0C9
:102620005A460F999047641C761C20780028F5D1F3
:1026300011B03046BDE8F08F0025A8460122984928
:1026400000E0054314F8013F203B02FA03F0084282
:10265000F7D120782E2817D114F8010F45F0040582
:102660002A280ED06FF02F022078A0F1300109291E
:102670000AD808EB880102EB410100EB0108641C59
:10268000F2E757F8048B641C20786C280DD004DC2A
:102690004C2812D06A2811D104E074280DD07A2871
:1026A0000CD10AE045F4001507E0617845F4801587
:1026B000814202D1641C05F58015641C20786928CC
:1026C00044D008DC0028B3D0582867D063280FD046
:1026D000642808D13AE0702865D0732812D0752894
:1026E0005AD078285AD05A460F999047761CD5E090
:1026F00017F8040B8DF8000000208DF80100E94662
:10270000012003E057F8049B4FF0FF3069074FF0BA
:10271000000501D40AE06D1C45450DDA8542FADB5F
:1027200019F805100029F6D106E06D1C8542FCDB86
:1027300019F805100029F8D12E4404E019F8010B0E
:102740005A460F9990476D1EF8D2A7E00A20002143
:10275000CDE90801C5F3025002280CD001CFC11702
:10276000021E71F100020CDA0023D0EB030063EBD0
:1027700001012D2208E0FF1D27F00707F7E80201FD
:10278000EEE72A0504D52B228DF8282001223CE013
:10279000EA073AD02022F7E70A2000E010200021C3
:1027A000CDE9080107E01020002145F00405CDE93E
:1027B00008014FF00808C5F30250022810D001CFDD
:1027C00000214FF0000A2A0720D52278702A0DD068
:1027D000DDE908C38CF0100C5CEA030C0CD015E0AA
:1027E000FF1D27F00707F7E80201EAE740228DF80E
:1027F00028204FF0010A0CE050EA010306D03023F4
:102800008DF828308DF82920022292462278582A05
:1028100004D024A20DF120090B9209E026A2F9E7C9
:10282000DDE90823FDF7D3FD0B9B9B5C09F8013D17
:1028300050EA0102F4D1ADEB09002030089068079E
:1028400001D44FF001080899884503DD0898A8EBEA
:10285000000000E000208046002506E00AA85A4655
:10286000405D0F9990476D1C761C5545F6DB04E0E2
:1028700030205A460F999047761CB8F10001A8F114
:102880000108F5DC05E019F8010B5A460F9990474D
:10289000761C0899481E08900029F4DC641CC4E6E4
:1028A0000928010030313233343536373839616226
:1028B00063646566000000003031323334353637EA
:1028C0003839414243444546000000002DE9FC5F91
:1028D00004468B4615461E46DDE90C9ADDE90E7866
:1028E00004F114004060006000BF1C346560A66005
:1028F000C4F80C90C4F810A02321D4E9030201F01D
:10290000CFF8D4E9033C63441A1F0F4BD4E901010B
:1029100000F020FF2060A77667760020E061C4F811
:102920002080C4F82480606120766065A0651C3C2E
:1029300000902346054A2146019004F1440001F02D
:10294000CFFD0020BDE8FC9F014100084D43000879
:102950002DE9F04704460E4617469846DDF82090CC
:1029600084F80990607A20F001006072E6612762C5
:102970000020A062C4F82480002506E004F11401C0
:1029800001EBC50000F094FF6D1C012DF6DBBDE8E6
:10299000F08710B50246002001460EE002F1140354
:1029A00003EBC100D0E900436360D0E90034236049
:1029B0004060006000BF481C01460129EEDB10BDED
:1029C0000A68531C0B6010707047000050E02948E3
:1029D00000681C2805DD4FF480712748FEF727F8B2
:1029E00042E024484068552805DD4FF480712248B4
:1029F000FEF71DF838E01F48C068B0F5117F05DD0F
:102A00004FF480711C48FEF712F82DE01948006958
:102A1000B0F5FA7F05DD4FF480711748FEF707F82F
:102A200022E014484069642805DD4FF480711248A3
:102A3000FDF7FDFF18E00F48C069462805DA4FF49E
:102A400080710D48FDF7F3FF0EE00A488069962873
:102A500005DD4FF480710848FDF7E9FF04E04FF40D
:102A600080710548FDF7E1FF4FF4FA7000F00EF9B0
:102A7000ADE70000F0000020000C02408AB0002604
:102A80001822684901A8FDF725FCCAE000250021AD
:102A90006548006801F085F90646002E7CD163493F
:102AA00063A000F0E7FE01A9604800F05BF9002890
:102AB00036D05E4840798DF81C005C4880798DF8EE
:102AC0001D0007A8FDF776FC5D490860002007900F
:102AD00008905648807A8DF81C005448C07A8DF8CA
:102AE0001D0007A8FDF766FC5549486000200790C7
:102AF000089000BF112405E04C48005D07A9485527
:102B00006D1C641C4948FDF731FCA042F4D8002537
:102B100007A8FDF74FFC4A49C860002007900890BD
:102B20000DF10A01414800F01DF9002830D03F485E
:102B3000FDF71CFCC41E05E03C48005D07A9485594
:102B40006D1C641C3948FDF711FC401CA042F3D8F1
:102B5000002507A8FDF72EFC3949086100200790E1
:102B60000890052405E03148005D07A948556D1C13
:102B7000641C2E48FDF7FAFB0A38A042F3D8002562
:102B800007A8FDF717FC2E498860002007900890E1
:102B9000C8212648FDF7B7FB04A92A4800F0E2F84F
:102BA00088B1042405E02748005D09A948556D1C3B
:102BB000641C212CF7D3002509A8FDF7FBFB204955
:102BC0004861002009900DF116011E4800F0CAF876
:102BD00018B3042405E01B48005D09A948556D1C85
:102BE000641C072CF7DB002509A8FDF7E3FB14495B
:102BF000886100200990082405E01248005D09A9B9
:102C000048556D1C641C0A2CF7DB002509A8FDF74C
:102C1000D1FB0B49C861002009904FF4FA6000F025
:102C200035F833E74C4B0008380000203411002001
:102C3000CAD5B5BDCAFDBEDD3A25730A0000000045
:102C4000F00000201001002010B56FF00400FFF725
:102C5000F7F90A4800680A49B0FBF1F00949087021
:102C60000846007800EB4001C1EBC0104FF6FF7141
:102C700001EAC0000449088010BD000000000020E7
:102C800000127A003C0000203E00002007E046F2DF
:102C9000A81100BF0A1EA1F1010399B2FAD1021EC8
:102CA000A0F1010398B2F2D1704700000146114A29
:102CB00012784A434FF0E0235A6100229A611A4683
:102CC000126942F001021A6100BF4FF0E022106960
:102CD00000F001021AB100F48032002AF5D04FF062
:102CE000E022126922F001024FF0E0231A61002273
:102CF0009A6170473C00002000BF054A128802F02C
:102D00004002002AF9D0C2B2014B9A8070470000FD
:102D10000010014010B5002821D0114B0022001FE7
:102D2000196803E0814203D80A4649680029F9D1AD
:102D300052B11368841A9C4204D100681844106090
:102D4000104602E0506000E0186039B102680B1ACA
:102D5000934203D10B681A4402604968416010BD78
:102D6000E40000202DE9F04707460C4607B11CB9E6
:102D70004FF0FF30BDE8F0873846FDF7F7FA81469F
:102D80002046FDF7F3FA0546A94503DBB9F1000F2C
:102D900000D015B94FF0FF30ECE726464FF00008A1
:102DA00009E0307817F80810884201D00020E1E7E8
:102DB000761C08F1010830780028F2D10120D9E70B
:102DC0001CB544A000F056FDFDF756FC45A000F0F0
:102DD00051FD03E04FF4FA70FFF758FFFEF73CFC9B
:102DE0000028F7D10022114643A000F095FF454985
:102DF00008600846006810B143A000F03BFD1420B5
:102E000002214B020022CDE90010444944A001F008
:102E100048F9454908600846006838B143A000F009
:102E200029FD4148006801F059FA02E04FF0FF30F7
:102E30001CBD142002210B020022CDE900104049E4
:102E400040A001F02EF9404908600846006838B1FA
:102E50003EA000F00FFD3C48006801F03FFA02E0A0
:102E60004FF0FF30E4E7142002210B020022CDE9ED
:102E700000103B493BA001F014F93D4908600846A9
:102E8000006838B13BA000F0F5FC3948006801F05B
:102E900025FA02E04FF0FF30CAE714200221802318
:102EA0000022CDE90010384938A001F0FAF839497C
:102EB00008600846006838B137A000F0DBFC3548F0
:102EC000006801F00BFA02E04FF0FF30B0E700209D
:102ED000AEE700004F6E654E6574D4C6C6BDCCA883
:102EE000A3A10A00486172647761726520696E6906
:102EF00074204F4B0A0A0000746573745F73656D2C
:102F00000000000038000020D0C5BAC5C1BFB4B46D
:102F1000BDA8B3C9B9A6A3A10A0A00007D2A00086A
:102F20007573617274000000280000205A6967629E
:102F3000656520CFDFB3CC20B3C9B9A60A00000075
:102F4000E93000086B6579002C0000204F6E654E5B
:102F5000657420CFDFB3CC20B3C9B9A60A00000046
:102F6000293000086E524632344C303100000000E7
:102F7000300000206E524632344C303120CFDFB367
:102F8000CC20B3C9B9A60A00CD290008416C6172F2
:102F90006D00000034000020416C61726D20CFDFB5
:102FA000B3CC20B3C9B9A60A0000000010B504468E
:102FB00000F0FAF9FFF704FF10BD0000F0B50B3088
:102FC000154D20F007010024144A0FE003688B42DE
:102FD0000BD38B4205D95E1A43184768C3E90067D3
:102FE00000E04368136002C004E0021D106800287E
:102FF000ECD12046002802D1286808B10020F0BD9D
:10300000064A07481060074A121A22F00702C0E970
:10301000002401202860D7E7E8000020E400002019
:10302000A4150020A0170020002550E00024F4B9CA
:10303000FEF782F91AE02648FEF7DEF920B90020F3
:10304000234981F8200002E06420FFF72FFE681C6E
:1030500085B242F21070854208D100251D480068F3
:1030600008B9012000E000201A490860E3E7FEF7F4
:103070000FFA20242AE01648FEF73EFA202817D13E
:103080002646002508E0701CC6B27E2E00DD2026F4
:103090000F484655681C85B2202DF4DB601CC4B275
:1030A0007E2C00DD20240020094981F8200002E068
:1030B00009A0FFF743FA0748006808B9012000E0BB
:1030C000002004490860032001F013F8D3E7ADE7BE
:1030D00010010020A482424253656E64204661695B
:1030E0006C6564200A00000024E04FF4007012496F
:1030F00008804000088011A11648FFF7E2F9FEF7AA
:1031000047FDFDF783FA4FF400700B49891E0880D4
:10311000400008800020FDF787FA0F490860084644
:10312000006818B108460068FEF774FC41F2883068
:10313000FFF7ACFDD9E700001A1402400D0A204F3A
:103140006E654E65745F53656E6444617461200DF5
:103150000A000000001001402400002030B51A4C85
:10316000436824681919884215D04B889BB9174BBE
:103170001B6899420FD0164B1B688B4201D1144B30
:1031800018604B684360104B1B68C31A0E4D4C68A7
:103190002D682C44A3600C4C836824681A19824261
:1031A00011D053887BB90A4B1B68834201D1084B6D
:1031B0001A6043685360044B1B68D31A024D44687D
:1031C0002D682C44A36030BD580000205C00002016
:1031D000600000202DE9F04F85B00D469C46DDE9EA
:1031E0000F740E9B04F04008B8F1000F02D0DFF816
:1031F000688101E0DFF86481CDF8008004F01008F8
:10320000B8F1000F01D024F0010404F00108B8F176
:10321000000F02D04FF0300801E04FF02008C24606
:10322000002604F00208B8F1000F11D0002A02DADB
:103230002D2652420CE004F00408B8F1000F01D032
:103240002B2605E004F00808B8F1000F00D0202676
:10325000002142B94FF0300B8846491C0DF104099A
:1032600009F808B01DE01AE0E146B9F10A0F08D1EB
:103270004FF00A0BB2FBFBFE0BFB1E28B2FBFBF26E
:1032800002E002F00F08120900BFDDF8009019F803
:1032900008B08846491C0DF1040909F808B0002A55
:1032A000E2D1B94200DD0F46DB1B04F01108B8F192
:1032B000000F10D116B1002B00DD5B1E06E0A84206
:1032C00003D84FF0200880F80080401CB3F10008BC
:1032D000A3F10103F3DC26B1A84201D806705B1EFE
:1032E000401C04F01008B8F1000F0AD104E0A84215
:1032F00001D880F800A0401CB3F10008A3F101033D
:10330000F5DC06E0A84203D84FF0300880F80080D2
:10331000401CB8467F1E8845F4DC08E0A84205D86A
:103320000DF1040818F8018080F80080401CB1F10C
:103330000008A1F10101F1DC06E0A84203D84FF03A
:10334000200880F80080401CB3F10008A3F10103BD
:10335000F3DC05B0BDE8F08F754C0008644C000844
:103360001CB5142002214B020022CDE900100449B3
:1033700004A000F096FE0446204600F0AFFF1CBDFE
:10338000AD2F00086D61696E0000000010B5044C9F
:1033900002E020688047241D02488442F9D310BD12
:1033A0001C4D0008204D000810B5044C02E02068B8
:1033B0008047241D02488442F9D310BD204D0008E7
:1033C000244D000810B5FCF7FDFE044604480088B3
:1033D000401C00B2024908802046FCF7F7FE10BDF1
:1033E000B000002010B5FCF7EDFE04460B48008845
:1033F000401E00B2094908800846B0F900000028C4
:1034000007DC002008802046FCF7E0FE00F0EAFB25
:1034100002E02046FCF7DAFE10BD0000B0000020FC
:1034200070B5054605B970BD1D480068854203D3D7
:103430001C480068854200D3F5E7A5F10C044FF065
:10344000FF31194800F0ADFC608818B12088B0F554
:10345000F55F08D015A000F00DFA23886288214698
:1034600019A000F007FA002060804FF4F55020808A
:1034700021480068844201D21F48046008496068FE
:103480000968611A401A1D490968081A1B49086031
:103490002046FFF763FE044800F066FC00BFC2E769
:1034A000580000205C0000203C150020746F20664E
:1034B00072656520612062616420646174612062CC
:1034C0006C6F636B3A0A00006D656D3A20307825A9
:1034D0003038782C207573656420666C61673A20FB
:1034E00025642C206D6167696320636F64653A20F1
:1034F0003078253034780A00600000206800002011
:103500000048704734010020004870473411002003
:1035100070B5304800684FF47A72B0FBF2F1481E83
:10352000B0F1807F00D31BE0481E4FF0E0225061D5
:1035300050170F22002807DA13071D0E264B00F044
:103540000F04241F1D5503E013071C0E234B1C54AE
:1035500000BF00204FF0E02290610720106100BF03
:10356000FDF78EFAFDF76AFAFDF760F9FFF76CFBDD
:103570004FF4E13001F090FA4FF4E13001F020FA1D
:103580004FF4A060FEF75EF8FDF786FEFDF722F827
:103590004FF47A70FFF77AFB0BE011A0FEF7CEFF35
:1035A000C820FFF773FB1348006880F400701149CE
:1035B0000860FDF739FE0028EFD1FFF7E7FEFFF7BF
:1035C000A3FF0446FFF79CFF0546214600F0A0FC40
:1035D00070BD00000000002018ED00E000E400E0F5
:1035E0004E524632344C3031204572726F720D0AA1
:1035F000000000001414024010B50446FFF7E2FE7C
:1036000019E020780A280AD10D210E48FEF755FF4F
:1036100000BF80210B48FEF784FE0028F9D014F883
:10362000011B0848FEF749FF00BF80210548FEF74F
:1036300078FE0028F9D020780028E2D1FFF7D2FEEA
:1036400010BD00000010014070B504461948006824
:1036500038B12046174909688847054605B970BD45
:1036600000BF15A0E16900F005F917A0A16900F0FD
:1036700001F919A0616900F0FDF81BA0216900F0B3
:10368000F9F81DA0E16800F0F5F81FA0A16800F0AE
:10369000F1F821A0616800F0EDF823A0216800F0A6
:1036A000E9F800F0F3FD0546294623A000F0E2F812
:1036B00000BFFEE7E00000207073723A20307825EA
:1036C0003038780A000000002070633A20307825F6
:1036D0003038780A00000000206C723A20307825DB
:1036E0003038780A000000007231323A20307825F4
:1036F0003038780A000000007230333A20307825E4
:103700003038780A000000007230323A20307825D4
:103710003038780A000000007230313A20307825C5
:103720003038780A000000007230303A20307825B6
:103730003038780A000000006861726420666175A4
:103740006C74206F6E207468726561643A20257312
:103750000A000000F0B504460D461646301D20F064
:10376000070044380146002203E00D4F41F8227063
:10377000521C112AF9D34D624FF0000CC1F828C039
:10378000C1F82CC0C1F830C0C1F834C08B63CC6321
:103790004FF0807CC1F840C000270F60F0BD0000F2
:1037A000EFBEADDE10B5FCF70DFD04460448007811
:1037B000401C034908702046FCF708FD10BD0000BE
:1037C0005400002010B5FCF7FDFC044604480078C6
:1037D000401E034908702046FCF7F8FC10BD0000AD
:1037E0005400002070B504462068A0F11405284656
:1037F00000F02EFD002070BD2DE9F04105460C467D
:103800009046204600F080FDB8F1000F03D0B8F1DB
:10381000010F23D105E004F11401284600F060F8FF
:103820001CE02E680FE0A6F1140794F8350097F815
:103830003510884206DA04F1140107F1140000F093
:103840004FF802E03668AE42EDD100BFAE4204D17F
:1038500004F11401284600F043F800BF00BF002027
:10386000BDE8F08110B5044604F1140000F01AF828
:10387000002010BD0FB438B505A800907F2108487E
:10388000009B049A00F0D8FE04467F2C00D97F24C8
:103890000348FFF7B1FE0020009038BC5DF814FB30
:1038A000BC140020406000607047406000607047BA
:1038B0004060006070470268516002680A60016001
:1038C000486070470268516002680A6001604860A1
:1038D00070470268516002680A6001604860704782
:1038E0004268116042684A60416008607047014662
:1038F0000868884201D1012070470020FCE701469A
:103900000868884201D1012070470020FCE7D0E917
:1039100000215160D0E900121160406000607047E2
:10392000D0E900215160D0E90012116040600060D0
:10393000704700002DE9F041054615B90020BDE8AB
:10394000F081E81C20F003054E480068854201D94B
:103950000020F4E70C2D00D20C254FF0FF314A482F
:1039600000F01FFA4948006849490968461A7EE094
:103970004748006884196088002874D106F10C005B
:103980006168081AA8426ED306F10C006168091A32
:1039900005F11800814230D306F10C0000EB050858
:1039A0003B48006800EB08074FF4F55038800020D2
:1039B000788060687860BE60C4F804800120608010
:1039C0003048796800680C30814205D03049786809
:1039D00009680844C0F808802E48016805F10C0009
:1039E00008442C4908602C4800680968884219D2AC
:1039F000284800682849086014E0012060802449B4
:103A000060680968611A401A224909680844214916
:103A10000860214800680968884203D21D48006890
:103A20001D4908604FF4F550208018480068844212
:103A300012D107E015480068406815490968084434
:103A40001249086011480068408828B10F48006892
:103A5000124909688842EDD10B4800F085F904F15C
:103A60000C006CE7FFE70A480068304446680548E8
:103A70000068401BB0423FF67BAF034800F074F98A
:103A800000205CE7640000203C150020600000205E
:103A900058000020680000206C0000205C0000201E
:103AA000F0B50C460546E6B2042A15D300F003072C
:103AB00097B9014646EA062343EA034304E008C1F6
:103AC00008C108C108C1103A102AF8D201E008C1A3
:103AD000121F042AFBD20D4601E005F8016B171EE8
:103AE000A2F10102F9D1F0BD2DE9F04105460F46E2
:103AF000284600F03BF80646F068FFF71BFF044637
:103B000014B90020BDE8F0812572002060720822FF
:103B10003946204600F0E1F9FCF754FB804604F1F9
:103B20000C01301DFFF7C7FE4046FCF74FFB204657
:103B3000E8E770B50446FCF745FB054604F10C00C8
:103B4000FFF7E5FE2846FCF741FB2046FFF768FC3F
:103B500070BD70B50446FCF735FB054604F10C005A
:103B6000FFF7D5FE2846FCF731FB70BD0246002169
:103B70000AE0074800EB01100078904203D10448A6
:103B800000EB01107047491C0429F2DB0020F9E723
:103B9000700000202DE9F04104460D4616462846E7
:103BA000FFF7E4FF074645F0800020720822314607
:103BB000204600F092F9FCF705FB804604F10C0169
:103BC000381DFFF778FE4046FCF700FBBDE8F081AA
:103BD0000146087A00F0800008B1012070470020FB
:103BE000FCE700002DE9F041FCF7ECFA07461B4822
:103BF000008868BB1A480068FEF7C8FC461E1948D2
:103C000050F83600A0F114041748006884421BD015
:103C100016490E701448056804601548007848B9C4
:103C200004F11C0105F11C00FCF7D3FA3846FCF73F
:103C3000CDFA0CE004F11C0105F11C00FCF7C9FAF7
:103C40003846FCF7C3FA02E03846FCF7BFFA02E058
:103C50003846FCF7BBFABDE8F0810000B000002058
:103C6000BC0000205C150020B4000020B80000203B
:103C70005400002070B50446FCF7A4FA054614F879
:103C8000340F20F00F0040F0010020706278343CC7
:103C90000A4B03EBC20004F1140142681160426850
:103CA0004A604160086000BF0549A06B096808438D
:103CB000034908602846FCF789FA70BD5C150020AE
:103CC000BC00002070B50446FCF77CFA054604F100
:103CD0001400D0E900215160D0E900121160406069
:103CE000006000BF94F83510094A02EBC10001687A
:103CF000814201D1012100E0002129B10548A16BD9
:103D000000688843034908602846FCF75FFA70BDE5
:103D10005C150020BC0000202DE9F04105460E4650
:103D2000174629460120FFF7DFFE044614B9204656
:103D3000BDE8F0812046FFF795FDA6836772204617
:103D4000F6E72DE9F04104460D4616461F462A4681
:103D500001212046FFF71EFF2046FFF783FDA683C3
:103D600067720020BDE8F08170B504460025FCF7BD
:103D700029FA064604F11400FFF7B9FD28B904F149
:103D80001400FFF72FFD012502E0A08B401CA0834B
:103D90003046FCF71BFA012D01D1FFF723FF00206D
:103DA00070BD73B50546FCF70DFA0646A88B0028D2
:103DB00006DDA88B401EA8833046FCF707FA28E0F2
:103DC000019828B93046FCF701FA6FF001007CBD7C
:103DD00000F05CFA0446002020636A7A214605F16F
:103DE0001400FFF709FD0198002809DD01AA002150
:103DF00004F1440000F048FB04F1440000F088FBAB
:103E00003046FCF7E3F9FFF7EDFE206B08B1206BBD
:103E1000DDE70020DBE7000008B509A0FFF72AFD79
:103E20000AA0FFF727FD12A00323002219460090E5
:103E300012A0FFF71FFD19A0FFF71CFD08BD000031
:103E40000A205C207C202F0A000000002D20525404
:103E5000202D2020202020546872656164204F703E
:103E600065726174696E672053797374656D0A00B9
:103E70004A756C203130203230323200202F207CC5
:103E8000205C202020202025642E25642E256420FF
:103E90006275696C642025730A000000203230309E
:103EA00036202D203230313820436F7079726967A7
:103EB00068742062792072742D7468726561642060
:103EC0007465616D0A00000001460A4600E0521C5C
:103ED00010780028FBD1501A704770B50346A2B184
:103EE00018460C4600BF14F8016B00F8016B3EB990
:103EF00002E0002500F8015B551E2A1EF9D102E000
:103F0000551E2A1EEFD100BF00BF184670BD00002D
:103F10002DE9F04105460E46E81C20F0030726F087
:103F20000308B8F1180F09D9A8F11800B84205D351
:103F3000A8EB070018381E49086006E032462946FB
:103F40001CA0FFF797FCBDE8F081294807600468D2
:103F50004FF4F5502080164800680C306060002057
:103F6000A0606080224960680968084421490860AF
:103F70004FF4F5500968088001201E4909684880FF
:103F80000B4800680C301B49096848600848006805
:103F90000C301849096888600023012216A11848CE
:103FA000FFF7CFFE124800681649086000BFCAE755
:103FB000640000206D656D20696E69742C20657247
:103FC000726F7220626567696E20616464726573E6
:103FD0007320307825782C20616E6420656E642013
:103FE0006164647265737320307825780A0000007C
:103FF000580000205C00002068656170000000002F
:104000003C1500206000002010B500200B490880FE
:10401000002405E00A4901EBC400FFF746FC641CDC
:10402000082CF7DB072007490870002006490860C4
:10403000064908600648FFF738FC10BDB0000020B4
:104040005C150020B8000020B4000020BC00002057
:10405000C000002070B508480068FEF797FA451EBA
:10406000064850F83500A0F114040548046004F136
:104070001C00FCF7F4F870BDBC0000205C150020AB
:10408000B400002010B5002405E0044901EBC40091
:10409000FFF70EFC641C002CF7D010BDC8000020F8
:1040A00070472DE9FF5F06460F4690461D46DDE945
:1040B0000EAB31460020FFF717FD8146B9F1000F26
:1040C00003D1002004B0BDE8F09F2846FFF732FC82
:1040D000044624B94846FFF72CFD0020F2E743468A
:1040E0003A46314648468DE8300CFEF7EFFB48462D
:1040F000E8E710B50446204600F0CEF810BD0000F9
:1041000070B512480468FCF75DF805462046FFF7D5
:10411000D9FD042084F8340004F1440000F0D0F903
:104120002046FFF755FD012805D1206F18B920461C
:10413000FFF70FFD04E004F114010548FFF7C2FB8F
:104140002846FCF743F8FFF74DFD70BDB400002092
:10415000C000002001E000F001F8FCE770B537E096
:10416000FCF730F80546FEF747FA18B31B4800681D
:10417000A0F1140404F11400D0E900215160D0E949
:10418000001211604060006000BFFFF71BF9206F54
:1041900010B12046216F88472046FFF719FD0128FE
:1041A00005D1FFF71FF92846FCF710F870BDFFF79F
:1041B00019F903E02846FCF709F8F7E72846FCF769
:1041C00005F8A06AFFF72CF92046FFF7B2FC00BF04
:1041D000FEF712FA0028C3D100BFE7E7C0000020B5
:1041E0001FB520200721C200074BCDE90032CDE9E1
:1041F00002100023054A06A1074800F00FF8064800
:1042000000F06CF81FBD0000BC13002055410008F1
:104210007469646C65000000441300202DE9FF5FA1
:1042200005460C4616461F46DDE910ABDDE90E8952
:10423000224600212846FFF7ADFC3B463246214688
:1042400028468DE8000FFEF741FB04B0BDE8F09F63
:1042500070B5044694F8340000F00F00022802D034
:104260004FF0FF3070BDFBF7ADFF054604F11400C1
:10427000FFF756FB04F1440000F0C6F92846FBF7AF
:10428000A5FF2046FFF7F6FC0020EBE70148006899
:1042900070470000B400002031B5FBF793FF0546DE
:1042A0000D480468204600F02FF86A46002104F10A
:1042B000440000F0E9F804F1440000F029F9284630
:1042C000FBF784FFFFF78EFC206B801C08B90020F1
:1042D0002063002038BD0000B400002010B5044663
:1042E0003434A078607061780120884060600220DA
:1042F00004F834092046FFF7ABFFFFF7C7FF08B10A
:10430000FFF770FC002010BD70B5044694F834002F
:1043100000F00F00012802D04FF0FF3070BDFBF716
:1043200051FF054694F8340020F00F0040F00200E1
:1043300084F834002046FFF7C5FC04F1440000F087
:1043400063F92846FBF742FF0020E7E770B5044613
:1043500025466FF00100286305F11400FFF7E0FA2D
:104360002846FFF787FCFFF73DFC70BD70B5FBF7F3
:1043700029FF05461448046894F8340000F00F0043
:1043800001281CD1D4E90510814218D004F1140091
:10439000FFF7C6FA94F835200C4B03EBC20004F18A
:1043A00014014268116042684A604160086000BFC1
:1043B0002846FBF70BFFFFF715FC002070BD2846D1
:1043C000FBF704FF0020F9E7B40000205C15002093
:1043D00001480068704700005000002010B50A48EE
:1043E0000068401C08490860FFF750FF0446206C35
:1043F000401E2064206C18B9E06B2064FFF7B6FF04
:1044000000F004F810BD00005000002070B5FFF768
:10441000DFFF0546FBF7D6FE064628E01948006890
:10442000A0F11404A06A281A6FF0004188421DD23E
:104430002046FEF7AEFAD4E907108847FFF7C8FF19
:104440000546607A00F0020058B1607A00F0010081
:1044500038B1607A20F001006072204600F058F810
:1044600005E0607A20F00100607200E004E0054899
:10447000FFF745FA0028D1D000BF3046FBF7A6FE73
:1044800070BD0000C8000020034649B1012904D0D6
:10449000022908D0032910D10AE0586A10600CE004
:1044A0001068586209E0587A20F00200587204E05F
:1044B000587A40F00200587200BF00BF00207047D9
:1044C00070B50446FBF77EFE05462046FEF761FA0E
:1044D0002846FBF77BFE2046FFF73BFB002070BD24
:1044E0002DE9F84307460C4615461E46DDE90889C6
:1044F000224609213846FFF74DFB434632462946FE
:104500003846CDF80090FEF723FABDE8F8830000A6
:104510002DE9F8430546FBF755FE80462846FEF791
:1045200038FA687A20F0010068724046FBF74EFEC8
:10453000FFF74EFF696A0844A862FBF743FE804616
:104540002F4F009700242AE019E05DF8242011681D
:10455000142202EBC402881A826AAB6AD21A00D112
:1045600008E0826AAB6AD21A6FF000439A4200D226
:104570000CE000BF5DF8240000684DF824005DF8F1
:10458000240007EBC40149688842DED100BF2CB18A
:104590005DF824000830611C4DF82100641C002CDB
:1045A000D2D018480068401C1649086008460668C2
:1045B00005F114010098FFF78CF9022412E006F0CF
:1045C000030060B9C4F1010305F1140202EBC30159
:1045D000C4F101025DF82200FFF77BF900E003E07F
:1045E000B608641C012CEAD900BF687A40F00100CB
:1045F00068724046FBF7EAFD0020BDE8F883000042
:10460000C8000020D000002070B50446607A00F099
:10461000010010B94FF0FF3070BDFBF7D3FD054628
:104620002046FEF7B6F92846FBF7D0FD607A20F069
:10463000010060720020EFE72DE9FF4F89B080464E
:1046400044460A984044461E464504D24FF0FF3681
:10465000A6EB08000A906FE10B980078252806D099
:10466000B44202D80B9800782070641C61E10025E8
:1046700026E00B98401C0B900B9800782D2802D157
:1046800045F010051CE00B9800782B2802D145F06E
:10469000040515E00B980078202802D145F00805A4
:1046A0000EE00B980078232802D145F0200507E0A2
:1046B0000B980078302802D145F0010500E000E0B9
:1046C000D7E700BF4FF0FF370B98007830380A2843
:1046D00004D20BA800F061F907460EE00B980078B1
:1046E0002A280AD10B98401C0B900C9880C80C907B
:1046F000002F02DA7F4245F010054FF0FF390B988A
:1047000000782E281CD10B98401C0B900B98007839
:1047100030380A2804D20BA800F03FF981460AE09D
:104720000B9800782A2806D10B98401C0B900C9807
:1047300050F8049B0C90B9F1000F01DA4FF000091A
:10474000002004900B980078682803D00B9800781C
:104750006C2805D10B98007804900B98401C0B90A6
:104760000A2005900B9800786F2875D00CDC632820
:1047700013D004DC252870D058286FD18DE0642830
:104780006DD06928F9D18FE070286AD0732825D0C0
:10479000752878D07828F0D182E005F0100040B973
:1047A00004E0B44201D820202070641C781E071E4B
:1047B000F7DC0C9810F8041B0C90C8B20790B442B8
:1047C00001D807982070641C04E0B44201D820206E
:1047D0002070641C781E071EF7DCAAE00C980068A5
:1047E00006900C98001D0C90069808B95AA00690E7
:1047F0000698FFF769FB8346B9F1000F02DDCB4550
:1048000000DDCB4605F0100048B904E0B44201D801
:1048100020202070641C38467F1E5845F6DC00209E
:1048200008900BE0B44202D8069800782070641C0F
:104830000698401C06900898401C08900898584517
:10484000F0DB04E0B44201D820202070641C38461C
:104850007F1E5845F6DC6CE01CE015E028E022E005
:10486000FFE7781C10B9082745F00105CDE900796C
:1048700002950C9804C8102331460C902046FEF790
:10488000A9FC044655E012E0B44201D8252020706E
:10489000641C4EE0082005901DE045F0400500BF77
:1048A0001020059017E000BF45F0020500BF12E0A0
:1048B000B44201D825202070641C0B98007830B1D8
:1048C000B44202D80B9800782070641C02E00B9868
:1048D000401E0B902DE000BF04986C2807D10C9867
:1048E00050F804AB0C9005F00200B8B116E0049843
:1048F00068280BD10C9830F8041B1FFA81FA0C9031
:1049000005F0020050B10FFA8AFA07E00C9850F84F
:1049100004AB0C9005F0020000B100BFCDE90079B6
:104920000295524631462046059BFEF753FC04464D
:1049300000BF0B98401C0B900B98007800287FF468
:104940008BAEB44201D8207001E000203070A4EB9F
:1049500008000DB0BDE8F08F284E554C4C290000E2
:1049600000207047002070470020704700207047EB
:1049700010B5FBF727FCFEF7CBFDFFF74DFAFFF76D
:1049800081FBFFF741FBFEF7EBFCFFF789FBFFF72D
:1049900027FCFFF75FFB002010BD0146002009E067
:1049A0000B685A1C0A601A7800EB800302EB430282
:1049B000A2F130000A681278303A0A2AF0D3704720
:1049C00010B588B0044601210220FDF745F9012108
:1049D0008804FDF751F907220A212B48FCF702F859
:1049E00007220B212848FBF7FDFF4FF4406006909B
:1049F00002208DF81C008DF81D0000208DF81E008F
:104A000001208DF81F0006A91F48FBF7A3FF0294A1
:104A10000020ADF80C00ADF80E00ADF81000ADF8B8
:104A200014000C20ADF8120002A91848FDF7D6FCBE
:104A300001211648FDF769FC40211448FDF75CFC94
:104A4000012240F225511148FDF7A2FC27208DF8E4
:104A5000040003208DF8050002208DF806000120D7
:104A60008DF8070001A8FCF7B1FD42F2CF0140F23A
:104A7000E730FDF74FFB002005490880002105487D
:104A8000FDF775FB08B010BD00040240004800406F
:104A9000460000200014004010B588B004460121F3
:104AA0000846FDF7D9F801211020FDF7F5F8072297
:104AB00009212448FBF796FF07220A212148FBF72A
:104AC00091FF4FF4C060069002208DF81C008DF815
:104AD0001D0000208DF81E0001208DF81F0006A982
:104AE0001848FBF737FF02940020ADF80C00ADF832
:104AF0000E00ADF81000ADF814000C20ADF8120057
:104B000002A91148FDF76AFC01210F48FDF7FDFBE2
:104B100040210D48FDF7F0FB012240F225510A48E3
:104B2000FDF736FC25208DF8040003208DF80500E4
:104B30008DF8060001208DF8070001A8FCF746FD5E
:104B400008B010BD000002400010014045310000D7
:104B5000000045320000000048727400000042501E
:104B600073000000000001000200010003000100CA
:104B70000200010004000100020001000300010026
:104B80000200010005000100020001000300010015
:104B90000200010004000100020001000300010006
:104BA00002000100060001000200010003000100F4
:104BB00002000100040001000200010003000100E6
:104BC00002000100050001000200010003000100D5
:104BD00002000100040001000200010003000100C6
:104BE00002000100070001000200010003000100B3
:104BF00002000100040001000200010003000100A6
:104C00000200010005000100020001000300010094
:104C10000200010004000100020001000300010085
:104C20000200010006000100020001000300010073
:104C30000200010004000100020001000300010065
:104C40000200010005000100020001000300010054
:104C50000200010004000100020001000300010045
:104C60000200010030313233343536373839616271
:104C70006364656600303132333435363738394154
:104C8000424344454600344310100134431010029F
:104C9000004040404040404040404141414141404F
:104CA0004040404040404040404040404040404004
:104CB0004005020202020202020202020202020293
:104CC0000220202020202020202020020202020298
:104CD00002029090909090901010101010101010F0
:104CE00010101010101010101010101002020202FC
:104CF0000202888888888888080808080808080840
:104D0000080808080808080808080808020202023B
:104D100040000000914C00086D49000865490008FA
:104D20006149000869490008484D0008000000205A
:104D3000F0000000D8250008384E0008F0000020E0
:104D4000B01A0000E8250008007A030A00000000FD
:104D5000000000000102030406070809000000002B
:104D60000102030401020304060708090000000011
:104D70000000000000000000000000000000000033
:104D80000000000000000000000000000000000023
:104D90000000000000000000000000000000000013
:104DA0000000000000000000000000000000000003
:104DB000000000000000000000000000740000205F
:104DC0007400002078000000010000008400002032
:104DD0008400002020000000040000009400002057
:104DE000940000203000000009000000A400002012
:104DF000A40000202C0000000000000000000000C3
:104E000000000000000000000000000000000000A2
:104E10000000000000000000000000000000000092
:104E20000000000000000000000000000000000082
:084E300000000000000000007A
:040000050800018965
:00000001FF
