:020000040800F2
:10000000900A0020090D0008C1020008C302000880
:10001000C7020008CB020008CF0200080000000061
:10002000000000000000000000000000D3020008F3
:10003000D502000800000000D7020008D90200081D
:1000400067060008230D0008230D0008230D000893
:10005000230D0008230D0008230D0008230D0008C0
:10006000230D0008230D0008230D0008230D0008B0
:10007000230D0008230D0008230D0008230D0008A0
:10008000230D0008230D0008230D0008230D000890
:10009000230D0008230D0008230D0008230D000880
:1000A000230D0008230D0008230D0008230D000870
:1000B000230D0008230D0008D5060008230D0008B5
:1000C000230D0008230D0008230D0008230D000850
:1000D000230D00084D050008230D0008230D00081E
:1000E000230D0008230D0008230D000800F002F87E
:1000F00000F042F80AA090E8000C82448344AAF180
:100100000107DA4501D100F037F8AFF2090EBAE87D
:100110000F0013F0010F18BFFB1A43F0010318473B
:100120005C2E00007C2E0000103A24BF78C878C1F5
:10013000FAD8520724BF30C830C144BF04680C60ED
:10014000704700000023002400250026103A28BF35
:1001500078C1FBD8520728BF30C148BF0B60704739
:10016000642902F0FD84782902F03685002070476A
:100170001FB51FBD10B510BD02F0A0FE1146FFF760
:10018000F7FF00F009F802F0BEFE03B4FFF7F2FF3C
:1001900003BC00F029F9000088B020223D496846E0
:1001A00002F0A2FD4FF4A06001F0B6FB00F0B2F83F
:1001B00041F61F41092000F061FA00214FF4E130BF
:1001C00000F021F900F08AF800F0D9FB03E04FF4C9
:1001D0007A7000F0DCF800F0EEFB0028F7D14FF465
:1001E0007A7000F0D4F800F023FC4FF4FA6000F0CD
:1001F000CEF84EE000240CE02748015D274801F0CE
:100200008DF800BF8021254801F0F6F80028F9D0CC
:10021000641C062CF0DBFA2000F0B9F820480088B6
:1002200000F40040002831D01E480078FD282AD173
:100230001C4840781C4948601A48807888601948F2
:10024000C07808603221684602F080FD1648836855
:1002500016A14268684602F06FFC00BF684600F0D5
:10026000FEFB2028FAD13221684602F06FFD0E48CD
:1002700011A10268684602F05FFC00BF684600F00A
:10028000EEFB2028FAD10020054908800A2000F062
:100290007EF8AFE7282F0008202F00080038014023
:1002A0000A000020100100203C0000204250733A58
:1002B00025642C25640000004872743A256400000F
:1002C000704700BFFEE700BFFEE700BFFEE700BFCC
:1002D000FEE77047704770477047000008B501217E
:1002E000102001F051FA4FF40050ADF8000010203A
:1002F0008DF8030003208DF802006946044800F0E1
:1003000083FD4FF40051024800F02DFE08BD0000AF
:100310000010014010B56FF0040001F04CFB2E48B6
:1003200000682E49B0FBF1F02D49087008460078AE
:1003300000EB4001C1EBC0104FF6FF7101EAC000B5
:100340002849088010BD0146254A12784A434FF0DB
:10035000E0235A6100229A611A46126942F00102B2
:100360001A6100BF4FF0E022106900F001021AB1DB
:1003700000F48032002AF5D04FF0E022126922F01A
:1003800001024FF0E0231A6100229A617047014692
:10039000144A12884A434FF0E0235A6100229A61BE
:1003A0001A46126942F001021A6100BF4FF0E022C2
:1003B000106900F001021AB100F48032002AF5D071
:1003C0004FF0E022126922F001024FF0E0231A619F
:1003D00000229A61704700001400002000127A0089
:1003E0000000002002000020014600BF704700BF4F
:1003F000714A128802F04002002AF9D0C2B26E4B54
:100400001B1D1A80704730B587B004460D46002D7D
:1004100047D1012144F2040001F0B6F94FF4007015
:10042000ADF8180003208DF81A0018208DF81B0075
:1004300006A9624800F0E8FC4FF48060ADF81800AF
:1004400004208DF81B0006A95C4800F0DDFC252087
:100450008DF8040003208DF805008DF806000120BA
:100460008DF8070001A801F05CFA02940020ADF8B5
:100470000C00ADF80E00ADF81000ADF814000C2023
:10048000ADF8120002A94C4800F04FFE012240F2E4
:100490002551494800F0E1FE0121474800F0D1FE16
:1004A00052E0012144F2080001F06EF901210846F2
:1004B00001F06AF94020ADF8180003208DF81A0009
:1004C00018208DF81B0006A93D4800F09DFC8020F7
:1004D000ADF8180004208DF81B0006A9384800F07C
:1004E00093FC25208DF8040003208DF805008DF87D
:1004F000060001208DF8070001A801F012FA012181
:10050000042000F052FD02940020ADF80C00ADF87C
:100510000E00ADF81000ADF814000C20ADF812007C
:1005200002A9254800F001FE012240F2255122488F
:1005300000F093FE012240F224411F4800F08DFE9E
:1005400001211D4800F07DFE07B030BD10B540F21E
:100550002551194800F066FFC0B1174800F0E2FECF
:10056000C1B2184802780078401C164B1870164823
:10057000815418460078B0F5487F02DB0020194608
:10058000087040F225510C4800F076FF40F22441FB
:10059000094800F047FF38B1074800880648001DA9
:1005A00000880020074908700848008840F400408F
:1005B0000649088010BD00000038014000080140D5
:1005C000000C014008000020100100200A0000205B
:1005D00070B505460C4645F2555001F039F92846EC
:1005E00001F039F9204601F039F901F03AF901F04A
:1005F0003DF970BD10B501F034F910BD08B500200B
:100600008DF8000002208DF8010003208DF8020013
:1006100001208DF80300684601F083F908BD70B52C
:1006200006460C4615460121C80201F0BAF81248E8
:100630000078304010490870284601F034F920460F
:1006400001F03AF90C48007801F051F901F05AF93B
:10065000FFF7D4FF01F041F970BD10B50446204604
:1006600001F045F910BD10B50348007801F039F9E3
:1006700001F048F910BD00000C0000207FB50546D0
:100680000C460121042001F08CF8ADF80850ADF8BB
:1006900004400020ADF80A00ADF8060001A9154895
:1006A00001F07CFA01221146124801F0EEFD1E20F5
:1006B0008DF8000002208DF801008DF80200012065
:1006C0008DF80300684601F02CF90121094801F07A
:1006D000C1FD7FBD10B50121064802F084F840B18C
:1006E0000121044802F090F803480068401C0249C8
:1006F000086010BD000800401000002070B50546DD
:10070000002405E0601CC4B2C82C01DD002070BDCF
:100710000221394802F0CBF90028F3D029463648A7
:1007200002F072F9002405E0601CC4B2C82C01DD9F
:100730000020ECE70121304802F0B9F90028F3D09D
:100740002D4802F063F9C0B2E1E700B587B001219E
:10075000042001F019F80121080301F015F8E02048
:10076000ADF8180018208DF81B0003208DF81A0032
:1007700006A9224800F048FBE021204800F0F1FBE8
:100780000020ADF804004FF48270ADF806000020A0
:10079000ADF808000220ADF80A000120ADF80C0009
:1007A0004002ADF80E003820ADF810000020ADF882
:1007B00012000720ADF8140001A90F4802F04EF80E
:1007C00001210D4802F0EFF8FF20FFF797FF07B077
:1007D00000BD10B50446084800884FF6C7710840B0
:1007E0000549088008460088204308800121024806
:1007F00002F0D9F810BD00000030014000080140AF
:1008000070B505460C460020BA4908602846FFF737
:1008100075FF06462046FFF771FF0120B649C1F873
:100820008401304670BD70B504460020B1490860AF
:100830002046FFF763FFFF20FFF760FF054601201A
:10084000AD49C1F88401284670BD2DE9F041074645
:100850000D4616460020A74908603846FFF74EFFB0
:100860008046002405E0FF20FFF748FF2855601C64
:10087000C4B2B442F7DB01209E4908604046BDE89F
:10088000F0812DE9F04107460C46154600209949B4
:1008900008603846FFF732FF8046002605E014F86E
:1008A000010BFFF72BFF701CC6B2AE42F7DB012035
:1008B000904908604046BDE8F08100B587B001214D
:1008C000082000F061FF0320ADF8180010208DF81B
:1008D0001B0003208DF81A0006A9884800F094FA3E
:1008E0000321864800F03FFB0121042000F04CFF6B
:1008F0001020ADF8180028208DF81B0003208DF87B
:100900001A0006A97E4800F07FFA10217C4800F00A
:100910002AFBFFF71AFF00217A4802F044F8002072
:10092000ADF804004FF48270ADF806000020ADF879
:100930000800ADF80A00ADF80C004FF40070ADF8F7
:100940000E001820ADF810000020ADF812000720AE
:10095000ADF8140001A96B4801F080FF012169483E
:1009600002F021F81020FFF734FF00206149091F31
:10097000086001206049C1F8840107B000BD10B5CE
:10098000FFF79BFF00205B49091F08600121212020
:10099000FFF736FF01212220FFF732FF2821252013
:1009A000FFF72EFF0F212620FFF72AFF01205249D3
:1009B000C1F8800110BD1CB553A103C9CDE90001E8
:1009C000052269463020FFF75CFF052269461020AA
:1009D000FFF73BFF00240BE01DF80400A52805D01D
:1009E0001DF804104AA002F09BF803E0601CC4B29A
:1009F000052CF1DB00BF052C01D001201CBD00201F
:100A0000FCE710B500203B49091F08600522434957
:100A10002A20FFF736FF20213120FFF7F1FE0F21BA
:100A20002020FFF7EDFE01203349C1F8800110BD01
:100A300010B500202F49091F0860052238493020D1
:100A4000FFF71FFF1A212420FFF7DAFE0E212020D6
:100A5000FFF7D6FE01202849C1F8800110BD70B50E
:100A6000054600202349091F086005222C492A2039
:100A7000FFF707FF20222946A020FFF702FF0120F1
:100A80001D49C1F8800100BF264800680028FBD13D
:100A90000720FFF7C8FE044621462720FFF7B0FED7
:100AA00004F0100028B1FF21E120FFF7A9FE10207B
:100AB00070BD04F0200008B12020F9E7FF20F7E71F
:100AC00070B504460720FFF7AEFE054629462720ED
:100AD000FFF796FE05F0400050B12022214661202C
:100AE000FFF7B3FEFF21E220FFF78AFE402070BD32
:100AF000FF20FCE78481214200802142000C01405C
:100B00000008014000300140A5A5A5A5A5000000F2
:100B10006275663A256C580D0A0000004D2F0008DA
:100B2000482F0008100121420CB5002001900090D0
:100B30006C48006840F480306A49086000BF69482A
:100B4000006800F4003000900198401C019000986B
:100B500018B90198B0F5A06FF1D16248006800F4AF
:100B6000003010B10120009001E0002000900098BA
:100B7000012843D15C48006840F010005A490860E1
:100B80000846006820F0030008600846006840F04E
:100B9000020008605348406852494860084640686F
:100BA00048600846406840F48060486008464068F5
:100BB00020F47C1048600846406840F4E810486023
:100BC0000846006840F08070086000BF4548006833
:100BD00000F000700028F9D04248406820F003007F
:100BE000404948600846406840F00200486000BF45
:100BF0003C48406800F00C000828F9D10CBD10B545
:100C0000FFF792FF10BD10B53648006840F00100B4
:100C10003449086008464068344908403149486012
:100C200008460068324908402E49086008460068B6
:100C300020F4802008600846406820F4FE004860E8
:100C40004FF41F008860FFF7DAFF4FF0006029497A
:100C5000086010BD10B5002100200022214B5B6808
:100C600003F00C0121B1042906D0082928D107E09E
:100C7000214B224C236027E01F4B204C236023E0B4
:100C8000184B5B6803F47010164B5B6803F48032FA
:100C9000022303EB904022B9194B4343174C2360C6
:100CA0000DE0104B5B6803F4003323B1144B434356
:100CB000124C236003E0104B4343104C236003E0CD
:100CC0000D4B0E4C236000BF00BF064B5B68C3F3A7
:100CD00003130C4CE15C094B1B68CB40074C2360B1
:100CE00010BD000000100240002002400000FFF88C
:100CF000FFFFF6FE08ED00E000127A00140000206D
:100D000000093D00180000200948804709480047B5
:100D1000FEE7FEE7FEE7FEE7FEE7FEE7FEE7FEE7AB
:100D2000FEE7FEE704480549054A064B7047000008
:100D3000070C0008ED00000890040020900A002035
:100D4000900600209006002010B50446CC4884424E
:100D500008D10121042000F031FD0021042000F021
:100D60002DFD46E0C748844208D10121082000F04B
:100D700025FD0021082000F021FD3AE0C248844210
:100D800008D10121102000F019FD0021102000F0F1
:100D900015FD2EE0BD48844208D10121202000F03D
:100DA0000DFD0021202000F009FD22E0B84884421A
:100DB00008D10121402000F001FD0021402000F079
:100DC000FDFC16E0B348844208D10121802000F0E8
:100DD000F5FC0021802000F0F1FC0AE0AE488442DE
:100DE00007D10121801500F0E9FC0021A01500F0D9
:100DF000E5FC10BD10B50121084600F0DFFC002124
:100E0000012000F0DBFC10BD2DE9F0410246002579
:100E10000026002000230024002791F803C00CF0D6
:100E20000F0591F803C00CF0100CBCF1000F03D0BB
:100E300091F802C04CEA050591F800C0BCF1000F22
:100E400031D0146800202BE04FF0010C0CFA00F3B5
:100E5000B1F800C00CEA03069E4220D183004FF097
:100E60000F0C0CFA03F7BC4305FA03FC4CEA04042C
:100E700091F803C0BCF1280F06D14FF0010C0CFA19
:100E800000FCC2F814C00AE091F803C0BCF1480F9E
:100E900005D14FF0010C0CFA00FCC2F810C0401C48
:100EA0000828D1D31460B1F800C0BCF1FF0F34DDC5
:100EB000546800202EE000F1080C4FF0010808FAF9
:100EC0000CF3B1F800C00CEA03069E4221D1830066
:100ED0004FF00F0C0CFA03F7BC4305FA03FC4CEA85
:100EE000040491F803C0BCF1280F05D100F1080CEF
:100EF00008FA0CF8C2F8148091F803C0BCF1480F4E
:100F000007D100F1080C4FF0010808FA0CF8C2F8FC
:100F10001080401C0828CED35460BDE8F0814FF605
:100F2000FF710180022181700421C1707047024667
:100F3000002093680B400BB1012000E000207047B7
:100F40000146886880B2704702460020D3680B4093
:100F50000BB1012000E0002070470146C86880B254
:100F6000704701617047416170470AB1016100E05B
:100F700041617047C16070474FF480320A4382611B
:100F80008161826182698269704702460020434B19
:100F900018684FF68073184040EA021008433F4B30
:100FA000186070473E49C8617047F0B50A46002393
:100FB00000240021002500F00046B6F1004F02D1C8
:100FC000364EF16901E0354E7168C0F3034583B2D6
:100FD00000F44016B6F5401F08D121F070612F4E85
:100FE000766826F070662D4F7E6012E000F4801661
:100FF000B6F5801F06D1032606FA05F4A14341F099
:10100000706106E0460D360103FA06F6B14341F081
:10101000706122B1460D360103FA06F6314300F045
:101020000046B6F1004F02D11C4EF16101E01B4EAB
:101030007160F0BD30B500228B071C0F0F2303FA3F
:1010400004F2164B08338C1053F824309343134C9E
:1010500008348D1044F8253023468C1053F8243082
:101060008C07240F00FA04F423430C4C08348D1031
:1010700044F8253030BD0A49DC3108607047000073
:1010800000080140000C0140001001400014014024
:1010900000180140001C01400020014000000140F8
:1010A0000000204210B50446FB48844209D10121CA
:1010B000880300F083FB00214FF4804000F07EFBAA
:1010C00032E0F648844209D10121480400F083FB54
:1010D00000214FF4003000F07EFB25E0F048844210
:1010E00009D10121880400F076FB00214FF4802013
:1010F00000F071FB18E0EB48844209D10121C804DB
:1011000000F069FB00214FF4002000F064FB0BE0CD
:10111000E548844208D10121080500F05CFB00216C
:101120004FF4801000F057FB10BD2DE9F04786B05A
:1011300005460E460024A24600BFA1460027B089FE
:1011400000B100BF2F462C8A4CF6FF700440F08897
:1011500004432C82AC894EF6F3100440B0883189E8
:101160000843718908430443AC81AC8A4FF6FF40C1
:101170000440B0890443AC8201A800F098FAC64844
:10118000874202D1DDF810A001E0DDF80CA0A889AB
:1011900000F4004040B10AEBCA0000EB0A103168CD
:1011A0004900B0FBF1F807E00AEBCA0000EB0A10B7
:1011B00031688900B0FBF1F86420B8FBF0F004015D
:1011C0002009642101FB1089A88900F4004040B186
:1011D000322000EBC900B0FBF1F000F0070004433F
:1011E00008E0322000EB09106421B0FBF1F000F0C0
:1011F0000F0004432C8106B0BDE8F0874FF4165170
:10120000016000218180C18001810C214181002188
:101210008181704710B502460020108A4FF2FF030B
:1012200018400B884C8823438C882343CC88234365
:101230001843108210BD0021018041808180C1804F
:10124000704721B1828942F40052828104E0828990
:101250004DF6FF731A4082817047F0B503460024B3
:1012600000260025002040F66A17B94200D100BFD1
:101270001846C1F3421401F01F06012707FA06F5CC
:10128000012C01D10C3004E0022C01D1103000E01F
:1012900014301AB107682F43076002E00768AF43B4
:1012A0000760F0BD1AB1838A0B43838202E0838A10
:1012B0008B4383827047028A4FF6F0731A40028292
:1012C000028A0A430282704782894FF2FF731A40F2
:1012D000828182890A438281704721B1828942F0EA
:1012E0000202828104E082894FF6FD731A408281F6
:1012F0007047028A4FF6DF731A400282028A0A435D
:101300000282704721B1028A42F48042028204E0E4
:10131000028A4BF6FF731A4002827047C1F308023B
:101320008280704701468888C0F308007047818931
:1013300041F0010181817047028BD2B20283028B9E
:1013400042EA012202837047028B02F47F42028349
:10135000028B0A430283704721B1828A42F0200245
:10136000828204E0828A4FF6DF731A4082827047DD
:1013700021B1828A42F01002828204E0828A4FF612
:10138000EF731A408282704721B1828A42F00802CC
:10139000828204E0828A4FF6F7731A408282704795
:1013A00021B1828942F40042828103E08289C2F342
:1013B0000E028281704721B1828A42F400628282E9
:1013C00004E0828A4FF2FF731A4082827047828A59
:1013D0004FF6FB731A408282828A0A4382827047E8
:1013E00021B1828A42F00202828204E0828A4FF6B0
:1013F000FD731A408282704702460020B1F5007FDB
:1014000000D100BF13880B400BB1012000E0002089
:10141000704701F40072B2F5007F00D100BFCA43EB
:101420000280704770B5024600240023002500208A
:1014300040F66A16B14200D100BFC1F3421501F077
:101440001F03012606FA03F3012D02D196893340CA
:1014500006E0022D02D1168A334001E0968A33401D
:101460000C12012606FA04F41688344013B10CB1AC
:10147000012000E0002070BD10B50022002340F6DE
:101480006A14A14200D100BF0A1201249440A3B201
:10149000DC43048010BD00000038014000440040DF
:1014A00000480040004C004000500040DF48006809
:1014B00040F00100DD49086008464068DC4908400A
:1014C000DA49486008460068DA490840D7490860A8
:1014D0000846006820F4802008600846406820F430
:1014E000FE0048604FF41F0088607047CF490968CC
:1014F00021F48031CD4A11601146096821F4802120
:101500001160B0F5803F03D0B0F5802F0ED106E01A
:10151000C649096841F48031C44A116007E0C349F3
:10152000096841F4A021C14A116000E000BF00BF7A
:10153000704710B501460022002300204A11012AFD
:1015400002D1BA4C236806E0022A02D1B74C236AC2
:1015500001E0B64C636A01F01F02012494401C4074
:101560000CB1012000E0002010BD38B50020009033
:101570000024002500BF3120FFF7DBFF054600985F
:10158000401C00900098B0F5A06F01D0002DF2D063
:101590003120FFF7CEFF08B1012400E000242046EF
:1015A00038BD01460020A14A106820F0F80040EA4A
:1015B000C10010607047A0490860704702460020D3
:1015C0009A4B586820F47C1042EA01031843974B69
:1015D0005860704798490866704701460020934A52
:1015E000506820F003000843506070478F484068FF
:1015F00000F00C007047014600208C4A506820F033
:10160000F00008435060704701460020874A506848
:1016100020F4E06008435060704701460020834A90
:10162000506820F4605040EAC1005060704729B112
:101630007E4A527A02437D4B5A7204E07B4A527AC8
:1016400082437A4B5A7270477B49D83108607047A1
:1016500001460020754A506820F44040084350601D
:1016600070470021714A20321170704A82F82010B0
:10167000012802D004280AD104E001216B4A20325B
:10168000117005E00521694A2032117000E000BFA9
:1016900000BF70476949086070476449096A01439F
:1016A000624A11627047654944390860704730B535
:1016B00000210022002400235C4D6D6805F00C0120
:1016C00021B1042905D0082923D105E05C4D05602E
:1016D00022E05B4D05601FE0544D6D6805F470120B
:1016E000524D6D6805F48034022505EB92421CB919
:1016F000544D554305600BE04C4D6D6805F40035C5
:101700001DB1504D5543056002E04D4D55430560F8
:1017100002E04B4D056000BF00BF444D6D6805F011
:10172000F0010909484D6B5C0568DD4045603F4D9F
:101730006D6805F4E061090A434D6B5C4568DD4066
:1017400085603A4D6D6805F46051C90A3E4D6B5C89
:101750004568DD40C560354D6D6805F44041890B35
:101760003A4D6B5CC568B5FBF3F5056130BD29B139
:101770002E4A526902432D4B5A6104E02B4A5269AA
:1017800082432A4B5A61704729B1284A9269024321
:10179000264B9A6104E0254A92698243234B9A6161
:1017A000704729B1214AD2690243204BDA6104E033
:1017B0001E4AD26982431D4BDA61704729B11B4A28
:1017C000D2680243194BDA6004E0184AD2688243B7
:1017D000164BDA60704729B1144A12690243134B61
:1017E0001A6104E0114A12698243104B1A61704772
:1017F00012494039086070470F49C86470470B4967
:10180000C87170470948406A40F0807007494862D3
:10181000704701460020054A92680A400AB101203B
:1018200000E00020704701498872704700100240B4
:101830000000FFF8FFFFF6FE000042428004424233
:1018400000127A0000093D00280000203800002026
:101850000E49086070470D49486070470B49886021
:1018600070474AF6AA200949086070474CF6CC40F8
:1018700006490860704701460020044AD2680A40C1
:101880000AB1012000E00020704700000030004055
:1018900010B50121C802FFF79EFF00214FF4006040
:1018A000FFF799FF10BD0021194A126822F4C07198
:1018B0000143174A1160704708B50021009114498F
:1018C000096821F07F01009100F07F01009A114327
:1018D00000910F4A0099116008BD01200D49086070
:1018E000704700F07F010A4A121F1160704740F0F4
:1018F0008001074A121F116070470548001D0068EB
:10190000C0B2704700200249091D086070470000FE
:10191000042C0040A480054231490143314A116042
:10192000704770B5002100230F22C47804B32D4CFA
:10193000246804F4E064C4F5E064210AC1F10403FE
:10194000CA40447804FA03F1847814402143090121
:10195000254C0678A155047804F01F050124AC40FD
:1019600005786D11AD0005F1E025C5F8004109E0ED
:10197000047804F01F050124AC401C4D0678761154
:1019800045F8264070BD1A4A0A400243154B1B1FFA
:101990001A60704739B1134A121D12680243114B85
:1019A0001B1D1A6006E00F4A121D126882430D4B80
:1019B0001B1D1A607047042808D14FF0E021096907
:1019C00041F004014FF0E022116107E04FF0E02107
:1019D000096921F004014FF0E02211617047000015
:1019E0000000FA050CED00E000E400E080E100E01A
:1019F00080FFFF1F10B50446FE48844208D1012134
:101A0000C014FFF7DBFE0021E014FFF7D7FEC4E0AF
:101A1000B4F1804F08D101210846FFF7DCFE002118
:101A20000120FFF7D8FEB8E0F348844208D1012135
:101A30000220FFF7D0FE00210220FFF7CCFEACE031
:101A4000EE48844208D101210420FFF7C4FE0021A2
:101A50000420FFF7C0FEA0E0E948844208D101213C
:101A60000820FFF7B8FE00210820FFF7B4FE94E03D
:101A7000E448844208D101211020FFF7ACFE002188
:101A80001020FFF7A8FE88E0DF48844208D101213A
:101A90002020FFF7A0FE00212020FFF79CFE7CE025
:101AA000DA48844208D101214014FFF787FE002163
:101AB0006014FFF783FE70E0D548844209D101210C
:101AC000C804FFF77BFE00214FF40020FFF776FEED
:101AD00063E0D048844209D101210805FFF76EFE7A
:101AE00000214FF48010FFF769FE56E0CA48844297
:101AF00009D101214805FFF761FE00214FF40010D4
:101B0000FFF75CFE49E0C548844208D1012140202E
:101B1000FFF761FE00214020FFF75DFE3DE0C04879
:101B2000844208D101218020FFF755FE002180204A
:101B3000FFF751FE31E0BB48844208D101218015F6
:101B4000FFF749FE0021A015FFF745FE25E0B64846
:101B5000844209D101210804FFF730FE00214FF42F
:101B60008030FFF72BFE18E0B048844209D10121F4
:101B70004804FFF723FE00214FF40030FFF71EFE5C
:101B80000BE0AB48844208D101218804FFF716FE20
:101B900000214FF48020FFF711FE10BD00220288C3
:101BA000944B98420ED0994B98420BD0B0F1804F95
:101BB00008D0914B984205D0904B984202D0904B60
:101BC000984204D14FF68F731A404B881A438D4BBD
:101BD000984207D08C4B984204D04FF6FF431A40EE
:101BE000CB881A4302808B8883850B880385814BC1
:101BF00098420BD0854B984208D08B4B984205D029
:101C00008A4B984202D08A4B984201D10B7A0386C4
:101C100001238382704770B5002400220023058CC5
:101C20004FF6FE7635400584028C8388048B4FF690
:101C30008F752C40B51E2C400D882C43751E2A40F4
:101C40000D892A434D882A436A4DA8420BD06F4D17
:101C5000A84208D0744DA84205D0744DA84202D0C5
:101C6000734DA84213D14FF6F7752A404D892A4388
:101C70004FF6FB752A408D882A434FF6FF652B40AF
:101C80004FF6FF552B408D892B43CD892B43838005
:101C90000483CD888586028470BD70B5002400223F
:101CA0000023058C4FF6EF7635400584028C83883F
:101CB000048B48F6FF752C404FF6FF452C400D88ED
:101CC0004FF6FF7606EA05252C434FF6DF752A40CE
:101CD0000D8906EA05152A434D8806EA05152A43AB
:101CE000444DA84202D0494DA8421DD14FF67F7500
:101CF0002A404D894FF6FF7606EA05152A434FF62E
:101D0000BF752A408D8806EA05152A434FF6FF3530
:101D10002B404FF2FF752B408D8906EA85052B433A
:101D2000CD8906EA85052B4383800483CD8805870A
:101D3000028470BD70B5002400220023058C4FF68C
:101D4000FF6635400584028C8388848B4FF68F753F
:101D50002C404FF6FC752C400D882C434FF6FF5558
:101D60002A400D894FF6FF7606EA05252A434D885D
:101D700006EA05252A431F4DA84202D0234DA8425A
:101D80001DD14FF2FF752A404D894FF6FF7606EAC6
:101D900005252A434FF6FF352A408D8806EA05259A
:101DA0002A434EF6FF752B404DF6FF752B408D896B
:101DB00006EA05152B43CD8906EA05152B438380DA
:101DC0008483CD888587028470BD70B5002200238E
:101DD0000024058C4EF6FF7635400584038C8488FC
:101DE000828B48F6FF752A404FF6FF452A400D8842
:101DF00020E00000002C01400004004000080040EA
:101E0000000C00400010004000140040003401406D
:101E1000004C0140005001400054014000180040B7
:101E2000001C0040002000400040014000440140F0
:101E3000004801404FF6FF7606EA05252A434DF695
:101E4000FF752B400D8906EA05352B434D8806EAC0
:101E500005352B43FA4DA84202D0FA4DA84208D1CD
:101E60004BF6FF752C408D894FF6FF7606EA8515F7
:101E70002C4384808283CD88A0F84050038470BDB9
:101E8000828B4FF2FF331A408283828B4FF6FF73AF
:101E900003EA01231A4382837047F0B50C461546C6
:101EA000002200210026078C4EF6FF7C07EA0C0773
:101EB0000784828B018C4FF6FF7707EA043640F6E1
:101EC000FF473A404FF6FF7707EA05273A434FF6B8
:101ED000FF7707EA03373A43D94FB8420ED0D94FBC
:101EE000B8420BD0B0F1804F08D0D74FB84205D0E0
:101EF000D64FB84202D0D64FB84206D14DF6FF7742
:101F0000394046F48057394305E047F6FF573940DA
:101F100044F48057394382830184F0BD828B4FF6AD
:101F2000F3731A408283828B0A4382837047F0B531
:101F30000C461546002200210026078C4FF6FF6C48
:101F400007EA0C070784828B018C4FF6FF7707EABC
:101F500004264FF60C773A404FF6FF7707EA03174F
:101F60002F433A43B64FB8420ED0B64FB8420BD0CB
:101F7000B0F1804F08D0B44FB84205D0B34FB8424B
:101F800002D0B34FB84206D14FF6FF57394046F45E
:101F90008077394305E04FF2FF57394044F48077AA
:101FA000394382830184F0BD028B4FF2FF331A4024
:101FB0000283028B4FF6FF7303EA01231A43028365
:101FC0007047F0B50C461546002200210026078C0C
:101FD0004FF6EF7C07EA0C070784028B018C4FF663
:101FE000FF7707EA041640F6FF473A404FF6FF77BF
:101FF00007EA03373A434FF6FF7707EA05273A43E4
:102000008F4FB8420ED08F4FB8420BD0B0F1804FF7
:1020100008D08D4FB84205D08C4FB84202D08C4FBB
:10202000B84206D14FF6DF77394046F01007394302
:1020300005E04FF65F77394044F0100739430283DB
:102040000184F0BD028B4FF6F3731A400283028BBA
:102050000A4302837047F0B50C4615460022002162
:10206000068C4FF6FE773E400684028B018C4FF6BD
:102070000C7632407E1C06EA03162E433243704E25
:10208000B0420ED06F4EB0420BD0B0F1804F08D0AE
:102090006D4EB04205D06D4EB04202D06C4EB04293
:1020A00006D14FF6FD76314044F00106314305E09C
:1020B0004FF6F576314044F0010631430283018446
:1020C000F0BD70B505460C465D4885420ED05D48B2
:1020D00085420BD0B5F1804F08D05B48854205D0D2
:1020E0005A48854202D05A48854200D100E000BFDC
:1020F000208850B92389A28861882846FFF7ABFF62
:10210000E1882846FFF79EFF25E0208804280AD1B1
:102110002389A28861882846FFF753FFE188284673
:10212000FFF742FF17E0208808280AD12389A288F8
:1021300061882846FFF7FBFEE1882846FFF7EEFEA0
:1021400009E02389A28861882846FFF7A6FEE18876
:102150002846FFF795FE70BD2DE9F04105460C4677
:1021600000260127608808B9022600E00026A08822
:10217000012801D1022700E001272088A0B9238986
:10218000A28861882846FFF766FFE1882846FFF7A6
:1021900059FF23893A4631462846FFF712FFE18866
:1021A0002846FFF701FF13E02389A28861882846AB
:1021B000FFF707FFE1882846FFF7F6FE23893A4636
:1021C00031462846FFF747FFE1882846FFF73AFFE8
:1021D000BDE8F0810A884B881A438B881A43CB8864
:1021E0001A430B891A434B891A438B891A43A0F867
:1021F000442070474FF6FF71818000210180C1802B
:102200004180017270470021018041808180C1803E
:10221000018141818181C18170470021018041801C
:10222000012181800021C18001817047002101804E
:1022300041808180C180018141818181704700009E
:10224000002C014000340140000400400008004020
:10225000000C004021B1028842F00102028004E03B
:1022600002884FF6FE731A400280704731B1B0F811
:10227000442042F40042A0F8442005E0B0F8442095
:10228000C2F30E02A0F8442070471AB183890B43B1
:10229000838102E083898B43838170478182704709
:1022A00041EA0203A0F8483070471AB183890B4312
:1022B000838102E083898B438381704701894FF6D4
:1022C000F8721140018170470A46002101894FF6DA
:1022D0008F73194011430181704730B504460D4694
:1022E00029462046FFF7F0FF208940F007002081B3
:1022F00030BD2DE9F04104460D4616461F46602DBF
:1023000006D13B46012231462046FFF75AFE05E042
:102310003B46012231462046FFF79DFE29462046D6
:10232000FFF7D2FF208940F007002081BDE8F0814F
:1023300030B50C4600210189C9B24FF6FF7505EA98
:102340000325154325432943018130BD2DE9F04183
:1023500005460E4617469846002443463A463146FF
:102360002846FFF7E5FF2C894FF6F870044044F04B
:1023700007044FF68F70044044F070042C81BDE8D0
:10238000F081F0B504460D4616461F463B463246E0
:1023900029462046FFF7CCFF208940F48040208169
:1023A000F0BD0185828270470A46002101884FF600
:1023B0008F731940114301807047F0B50C461546E4
:1023C0001E460021002200230189028B038C4FF658
:1023D000F877394021434FF6FC473A4040F2011765
:1023E0003A434FF6DD773B404FF6FF7707EA061793
:1023F0002F433B43018102830384F0BD0A46002141
:10240000018B4FF68F7319401143018370470A46C1
:102410000021018B48F6FF7319404FF6FF7303EA62
:1024200002231943018370470A460021818B4FF62E
:102430008F7319401143818370470A460021818BB5
:1024400048F6FF7319404FF6FF7303EA022319435E
:102450008183704721B1028842F08002028004E04B
:1024600002884FF67F731A400280704721B182883C
:1024700042F00402828004E082884FF6FB731A4027
:102480008280704721B1828842F00802828004E095
:1024900082884FF6F7731A408280704721B1828894
:1024A00042F00102828004E082884FF6FE731A40F7
:1024B000828070470A460021018B4FF6F77319405E
:1024C0001143018370470A460021018B4FF2FF73CD
:1024D00019404FF6FF7303EA022319430183704743
:1024E0000A460021818B4FF6F7731940114381830F
:1024F00070470A460021818B4FF2FF7319404FF657
:10250000FF7303EA02231943818370470A460021BF
:10251000018B4FF6FB7319401143018370470A4644
:102520000021018B4FF6FF3319404FF6FF7303EA8A
:1025300002231943018370470A460021818B4FF61D
:10254000FB7319401143818370470A460021818B38
:102550004FF6FF3319404FF6FF7303EA0223194386
:10256000818370470A460021018B4FF67F73194023
:102570001143018370470A460021018BC1F30E010C
:102580004FF6FF7303EA02231943018370470A469B
:102590000021818B4FF67F7319401143818370476F
:1025A0000A460021818BC1F30E014FF6FF7303EA47
:1025B00002231943818370470A460021018C4FF69C
:1025C000FD7319401143018470470A460021018CB4
:1025D0004FF6F77319401143018470470A460021F2
:1025E000018C4FF6DF7319404FF6FF7303EA0213B5
:1025F0001943018470470A460021018C4FF67F730E
:1026000019404FF6FF7303EA021319430184704720
:102610000A460021018C4FF6FF5319404FF6FF7315
:1026200003EA02231943018470470A460021018C02
:102630004FF2FF7319404FF6FF7303EA0223194369
:10264000018470470A460021018C4DF6FF73194042
:102650004FF6FF7303EA023319430184704730B524
:10266000002301248C40A3B2048C9C430484048C7A
:1026700002FA01F5ADB22C43048430BD30B500231D
:1026800004248C40A3B2048C9C430484048C02FA7E
:1026900001F5ADB22C43048430BD70B50346002073
:1026A00000241846183001258D40ACB21D8CA5437E
:1026B0001D8409B1082909D100EB6100056825F0E6
:1026C000700505600568154305600EE00D1FC5F334
:1026D0004E052844056825F4E045056005684FF679
:1026E000FF7606EA02263543056070BD21B10288F7
:1026F00042F00202028004E002884FF6FD731A40A5
:102700000280704721B1028842F00402028004E096
:1027100002884FF6FB731A400280704721B182880D
:1027200042F08002828004E082884FF67F731A4074
:102730008280704702884FF6F7731A400280028841
:102740000A430280704782884FF68F731A40828056
:1027500082880A438280704702894FF6F8731A40D4
:10276000028102890A430281704702894FF67F7312
:102770001A40028102890A430281704781847047AE
:1027800081857047818670470187704781877047D0
:10279000A0F84010704702884FF6FF431A400280AD
:1027A00002880A43028070470146888E70470146BE
:1027B000088F70470146888F70470146B1F8400086
:1027C00070470146888C70470146088D7047024665
:1027D0000020138A0B400BB1012000E0002070475D
:1027E000CA430282704730B502460020002300240D
:1027F000158A05EA0103958905EA010413B10CB1B4
:10280000012000E0002030BDCA4302827047000072
:1028100010B50446BE48844208D101218014FEF759
:10282000CDFF0021A014FEF7C9FF16E0B94884428D
:1028300008D101210014FEF7CEFF00212014FEF77D
:10284000CAFF0AE0B448844207D10121C013FEF751
:10285000C2FF0021E013FEF7BEFF10BD10B500223D
:10286000028802F441520B884C8823438C8823430E
:10287000CC8823430C8923434C8923438C892343ED
:10288000CC8923431A430280838B4FF2FF74234089
:1028900083830B8A038210BD2DE9F04F85B0054676
:1028A0000C464FF0000902274FF000084FF0010BD3
:1028B0000026B246A88B4FF240010840A8830220B0
:1028C0002884B5F81C90A068022801D100BF38E028
:1028D000A08810B94FF0010B01E04FF0020B8D48BA
:1028E000854200D100E000BF6846FEF7E0FEDDF85B
:1028F00000A0E088B0F5007F0AD14FEA1A2000EB73
:1029000080004000A168B0FBF1F0401D86B20BE0F2
:102910004FEA4B10BAFBF0F000EB80004000A168DA
:10292000B0FBF1F0401D86B20A20B6FBF0F606F0CF
:102930000108A6EB0800C0F34F074FF6FF7000EA4E
:102940000828022F01DBFF2F02DD02274FF00008CD
:10295000E08840EA080038432884A088A189084319
:10296000618808432188084340F4006040EA09096F
:10297000A5F81C9005B0BDE8F08F002101804180D2
:102980008180C180018141818181C18107210182D2
:1029900070470021018041808180C18002218160D7
:1029A00000218181704721B1028842F040020280FB
:1029B00004E002884FF6BF731A400280704721B1CD
:1029C000828B42F48062828304E0828B4FF6FF3375
:1029D0001A408283704730B5002400230C11012572
:1029E000A540ABB21AB185881D43858002E0858879
:1029F0009D43858030BD1AB183880B43838002E0FC
:102A000083888B4383807047818170470146888922
:102A100070474FF6FF62914204D0028842F4807200
:102A2000028004E002884FF6FF631A40028070477C
:102A300021B1828842F00402828004E082884FF64D
:102A4000FB731A408280704702884FF2FF731A406E
:102A5000028002880A4302807047018841F4805155
:102A60000180704721B1028842F40052028004E0E4
:102A700002884DF6FF731A4002807047024600201C
:102A8000012901D0108B00E0908A70470146088A26
:102A90007047B1F5804F04D1028842F48042028031
:102AA00004E002884BF6FF731A400280704702462A
:102AB000002013890B400BB1012000E0002070477B
:102AC000CA4302817047F0B502460020002400236B
:102AD000002501F00F070126BE40B4B20B110126FC
:102AE0009E40B3B2968806EA03051689264016B1C1
:102AF0000DB1012000E00020F0BD10B5002201F072
:102B00000F040123A3409AB2D343038110BD0000F8
:102B10000030014000380040003C00407047000099
:102B20000FB4044910B503AA029800F0B1F910BC23
:102B30005DF814FB040000200FB41CB5074B06AA77
:102B40007B4469460090059800F089F900206946A9
:102B500000F098F91CBC5DF814FB00004103000074
:102B60002DE9F0410646002410687529314616A566
:102B700010D0AFF30080002802DA404213A507E02E
:102B800031688A0701D512A502E0490704D511A5CD
:102B9000012401E0AFF3008000210A2206F124079E
:102BA00009E0B0FBF2FCB0FBF2F302FB1C0030309A
:102BB00078541846491C0028F3D123462A4630464B
:102BC000BDE8F04100F0EDB8000000002D0000006D
:102BD0002B0000002000000070B504460D46214681
:102BE0001068AFF300802188090502D50F4A7A44A6
:102BF00002E00E4A7A440E32002104F1240305E07B
:102C000000F00F060009965D5E54491C0028F7D1BC
:102C100020780023000704D5702D02D009B10223CB
:102C200011322046BDE8704000F0BBB860030000E0
:102C30002DE9F0410F460546002028622846E96844
:102C4000884770B3252805D0D5E901219047286A27
:102C5000401CF2E7E9682846002688476C280446AD
:102C60000AD0682C08D04C2C35D06A2C31D0742C6A
:102C700031D07A2C2FD016E0E968064628468847DE
:102C8000B042044608D16C2E23D04FF4806628460B
:102C9000E9688847044606E06C2E03D04FF480763E
:102CA00001E01EE04026E4B1A4F14100192802D859
:102CB000203446F400663A46214628462E60FDF749
:102CC0004FFA60B1012808D0FF1D27F00707083729
:102CD000B4E78026DBE70026D9E73F1DAEE72046B4
:102CE000B2E7286ABDE8F08110B5203AC0F00B8049
:102CF000B1E81850203AA0E81850B1E81850A0E800
:102D00001850BFF4F5AF5FEA027C24BFB1E8185059
:102D1000A0E8185044BF18C918C0BDE810405FEAC9
:102D2000827C24BF51F8043B40F8043B08BF704745
:102D3000D20728BF31F8023B48BF11F8012B28BF4A
:102D400020F8023B48BF00F8012B70474FF000020B
:102D500000B5134694469646203922BFA0E80C5091
:102D6000A0E80C50B1F12001BFF4F7AF090728BF6C
:102D7000A0E80C5048BF0CC05DF804EB890028BFE8
:102D800040F8042B08BF704748BF20F8022B11F011
:102D9000804F18BF00F8012B70477047704770478D
:102DA00070472DE9F0470D4699469246044600F1DA
:102DB00024080168880604D5E06921F0100121602B
:102DC00000E00120A84201DD471B00E00027A169C7
:102DD0007A1902EB0900081AA0612078C00602D413
:102DE0002046AFF30080002608E0D4E901211AF85C
:102DF00006009047206A401C761C20624E45F4DB9A
:102E00002078C0060AD52046AFF3008006E0D4E95A
:102E1000012130209047206A401C2062381EA7F113
:102E20000107F4DC07E0D4E9012118F80500904718
:102E3000206A401C2062281EA5F10105F3DC204613
:102E4000AFF300802078000602D50220BDE8F087AD
:102E50000120FBE701694A1C02610878704700B550
:102E60008FB0CDE901310021059105497944CDE9C3
:102E7000031011466846FFF7DBFE0FB000BD0000EF
:102E8000E5FFFFFF0A6802F8010B0A6070470000C7
:102E9000074B70B50D467B44FFF7E1FF044628461B
:102EA00000F008F810B14FF0FF3070BD204670BD43
:102EB00055D5FFFF007B00F080007047754600F09D
:102EC0002BF8AE4605006946534620F007008546BC
:102ED00018B020B5FDF726FFBDE820404FF00006F2
:102EE0004FF000074FF000084FF0000B21F00701F2
:102EF000AC46ACE8C009ACE8C009ACE8C009ACE835
:102F0000C0098D46704710B50446AFF300802046D7
:102F1000BDE81040FDF739B9004870473004002083
:102F2000FD0000000000000053756E79696E672097
:102F30006C6F76652042616F7169616E6700000099
:102F40000000000000000000344310100234431061
:102F50001001303132333435363738394142434449
:102F60004546403058003031323334353637383901
:102F70006162636465664030780000009C2F000841
:102F8000000000203C00000028010008D82F0008A5
:102F90003C000020540A000044010008000000002A
:102FA00000000000000000007F00000000000000A2
:102FB00000A24A0400000000000000000102030417
:102FC00006070809000000000102030401020304CF
:082FD0000607080902040608C7
:0400000508000D09D9
:00000001FF
